:020000023000CC
:100000000000042045AD03007DAD0300C572030070
:1000100081AD0300D5720300DD7203000000000013
:10002000000000000000000000000000A98A03009A
:1000300089AD030000000000418B0300518B0300D9
:1000400059E40300152D03008FAD03008FAD0300AD
:100050008FAD03008FAD03008FAD03008FAD0300A4
:100060008FAD03008FAD03006D2D0300552D0300F0
:100070008FAD03008FAD03008FAD03002D2D030066
:100080008FAD03008FAD03008FAD03008FAD030074
:100090008FAD03008FAD03008FAD03008FAD030064
:1000A0008FAD03008FAD03008FAD03008FAD030054
:1000B0008FAD03008FAD03000000000000000000C2
:1000C0008FAD03008FAD03008FAD03008FAD030034
:1000D0008FAD03008FAD03008FAD03008FAD030024
:1000E0008FAD03008FAD03008FAD03000000000053
:1000F000000000008FAD0300000000008FAD030082
:1001000010B5054C237833B9044B13B10448AFF351
:1001100000800123237010BD400E0020000000006D
:10012000581405000C4B43B10C480D4910B5AFF302
:1001300000800C48036823B910BD0A48036833B92E
:100140007047094B002BF7D0BDE810401847064B0D
:10015000002BF5D0184700BF000000005814050020
:10016000440E0020400E002000000000154B002B24
:1001700008BF134B9D46A3F5803A00218B460F46DE
:100180001348144A121A15F0D1F80F4B002B00D067
:1001900098470E4B002B00D0984700200021040008
:1001A0000D000D48002802D00C4807F075FD14F032
:1001B00037FA2000290008F001FB07F06AFD00BFB4
:1001C0000000080000000420000000001987030060
:1001D000400E002080360020997C030000000000C3
:1001E00070470020704708B107F002BF704710B594
:1001F0001421044607F0FEFE204610BD08B5036832
:10020000B3F1804F02D30C4811F056FE8B4209D94E
:1002100049008B4206D2B1F1804F2ABF6FF04043B4
:10022000016003600068013001D511F01DFE40003F
:10023000BDE8084007F0B8BEF9E0040038B504682E
:1002400005467CB16368013B63605BB92368204667
:100250009B689847A368013BA3601BB923682046AD
:10026000DB689847284638BD034653F8080B984288
:1002700001D007F0BDBE704710B50469201DFFF71F
:10028000F3FF24B12046BDE8104007F0B1BE10BD19
:1002900013B5044691E8050000230B604B6023680A
:1002A000206002A80093636840F8043D6260FFF795
:1002B000C5FF204602B010BD012A10B404D10A883F
:1002C00002805DF8044B7047002AFAD052005DF8B6
:1002D000044B14F02DBF000000F1080373B5044671
:1002E00003600E46E9B10B469D1B33F8021B002943
:1002F000FAD16D10072D019505D901A8FFF77EFFF2
:10030000019B2060A3602A4631462068FFF7D4FF96
:10031000019B226863600021204622F8131002B07E
:1003200070BD014811F0B0FD11E104002DE9F74363
:1003300045686FF040435B1B93420446884616466F
:1003400002D21C4811F0B8FD0346571953F8080BA8
:10035000984214BFA16807218F420ED822B14146AE
:1003600000EB4500FFF7A8FF2368676000222046E6
:1003700023F8172003B0BDE8F08302A840F8047DFD
:10038000FFF73CFF81461DB12A462168FFF794FF25
:10039000B8F1000F06D02EB13246414609EB4500B8
:1003A000FFF78AFF2046FFF75FFF019BC4F800902C
:1003B000A360D9E7E4E0040073B500260660466058
:1003C0000546402007F0F0FD044630B1034603F82F
:1003D0000C6B866043608681868300231420019322
:1003E00007F0E2FD034628B1012242608260074A1D
:1003F0000260046102A86A6840F8042D6B602C60FA
:10040000FFF71CFF284602B070BD00BFD0E004001B
:100410002DE9F04713789CB005460F4633B9002309
:100420002B606B6028461CB0BDE8F0870CAE13460D
:1004300002F1200C344618685968B646AEE803004D
:10044000083363457646F6D1D37A0F2B14AB10D020
:100450003F68B2F81AE007F11E06224603CA9A4224
:1004600030607160144606F10806F6D1A7F81CE06A
:10047000D5E7106851681C4603C40832624523461C
:10048000F7D13C6804F1040805220DF15101404602
:10049000FFF74CFF06220DF15E014046FFF746FFD5
:1004A00002221BA94046FFF741FF9DF850305B0632
:1004B000B5D50DF1180904AA61684846FFF70CFF8D
:1004C000C84520D06268079E04F10C039A4214BF0D
:1004D000E16807218E420BD904A80496FFF78EFE2F
:1004E00082464046FFF7C0FE049BC4F804A0E360C8
:1004F00026B1324606996068FFF7DEFE6368A660A3
:10050000002223F816203B6802937B68039313B103
:100510005A6801325A6001AA4FF0000104A8FFF79F
:100520004BFF04A93846FFF7B3FE05A8FFF786FE88
:10053000029B039A2B606A60002303A80393029333
:10054000FFF77CFE4846FFF78FFE6BE71FB50023E1
:1005500003604360044601AA4FF0000102A8FFF7C0
:100560002BFF02A92046FFF793FE03A8FFF766FEC4
:10057000204604B010BD0000F7B5044640681826B8
:1005800000270368CDE9006700225D6904F10801D6
:100590000023A84728B11B4803B0BDE8F04014F081
:1005A000CDBF194814F0CAFFB4F81310174814F05F
:1005B00021FF617D164814F01DFFE18A154814F0F3
:1005C00019FF217E144814F015FFB4F819101348D0
:1005D00014F010FFB4F81B10114814F00BFFE18B5E
:1005E000104814F007FFE38A217EB4F91E200E485C
:1005F000638402FB013189B2218403B0BDE8F0407D
:1006000014F0F8BE2AE204004DE2040065E20400A2
:100610007CE2040091E20400ACE20400BBE20400CE
:10062000D6E20400EEE2040004E3040013B5B0F8DF
:100630001B309A4216DC02A8002340F8043D530800
:1006400003EB4303194412F0010F0C888B78ADF8CB
:1006500004408370019814BFC0F30B30C0F30B004B
:1006600002B010BD40F6FF70FAE7426A5AB1B0F826
:100670001B30994207DCC81001F0070301219940A3
:10068000135C194311547047436A63B1B0F81B20DF
:10069000914208DCC810012201F007018A40195C70
:1006A00021EA020119547047436A5BB1B0F81B207C
:1006B000914207DCCA1001F00701985C084100F084
:1006C00001007047002070472DE9F843B0F81B3057
:1006D000994204460F4634DCDFF874900D4600F171
:1006E0002808B5F57F6F1ADA2946484614F082FECD
:1006F0003DB329462046FFF7D7FF064628B91348E1
:1007000014F01CFF3046BDE8F8830A2014F0BEFE4A
:100710002A4641462046FFF789FF0546E1E704F1F6
:1007200028063A4631462046FFF780FFB0F57F6F36
:10073000054608DA28B101462046FFF7A5FF2A46FC
:10074000F0E70026DEE70126DCE700BF1BE204003D
:100750000AE204000B68036013B15A6801325A6060
:10076000704700002DE9F04F1646B0F813200446FC
:10077000008CB4F822E01F4693B258434FEAE07B66
:100780008DB05F4508BF86428846169DDDF85C90B7
:100790000EFB03FC77D3002118448F4208BF86422A
:1007A00071D25348534FDFF864A114F0C7FE2A46B4
:1007B0004B465148DFF8589114F01CFE203D45444B
:1007C000A5EB0803002BC0F28F8004F50E712A46BA
:1007D00004A8FFF71DFE049900294FD01E313846AA
:1007E00014F008FE049B2046998BFFF76DFF00284C
:1007F00044D0484614F0FEFD0026049B9A689642B9
:1008000007D25B68504633F8161014F0F3FD01363A
:10081000F3E70A2014F03AFED4F83432002B2DD03E
:10082000049B069305A907A8FFF794FF069B08936E
:1008300007A909A8FFF78EFFD4F8343204F50A7B24
:100840002BB940F2AC422D492D4806F067FE0CAEA4
:10085000089A1B6846F8082D09A90BA80393FFF70F
:1008600079FF3146039B584698470BA8FFF7E6FCF3
:1008700009A8FFF7E3FC07A8FFF7E0FC05A8FFF7CE
:10088000DDFC203D9CE76046C1178F4208BF6645EE
:1008900012D37344D9178F4208BF9E420CD2194815
:1008A00014F04CFE4FF40072414604F128000DB0E4
:1008B000BDE8F04F14F03CBCE08A257EC0F57F40D7
:1008C000FE30451B92B20023304639461CF0DCFA5C
:1008D0000544ADB2009532463B460B4814F08AFD04
:1008E00029462046FFF7C1FE0DB0BDE8F08F00BFDE
:1008F0003BE104006EE1040062E10400A1E10400B8
:10090000BFE10400C4E10400E0E104009EE1040052
:1009100088E104007047406803681B691847406815
:1009200010B404686469A4465DF8044B60474068ED
:100930000168C969084740680168096A0847406852
:1009400003685B6A1847406803689B6A18474068F9
:100950000368DB6A184740680168096B084740680C
:1009600003685B6B1847406803689B6B18474068D7
:100970000168C96B084740680168096C084740680E
:100980000168496C0847406803689B6C1847036816
:10099000184708B10B6803607047704708B10B68CF
:1009A00003607047704710B50446406A18B107F0FD
:1009B00023FB0023636260680368BDE81040DB68C6
:1009C0001847000008B5024C20680FF04FFFFBE706
:1009D000C01000202DE9F743DDE90A458146CDE945
:1009E00000451F4688461646FFF7BCFED9F80400AE
:1009F0000368CDE90A459C6932463B464146A44618
:100A000003B0BDE8F043604738B50446054B44F8F1
:100A1000503B054601F0E4FB204607F06BFD2846FD
:100A200038BD00BFDCE6040038B504464068036802
:100A30009B689847054670B92046FFF79DFDB4F8BE
:100A40001B00C00807F0C2FAB4F81B206062D2088D
:100A5000294614F06BFC284638BD10B50446FFF754
:100A6000D3FF20464FF4AC7107F0C4FA204610BD06
:100A700010B52821044607F0BDFA204610BD00003D
:100A800038B5124807F092F8054660B912F080FDBB
:100A9000006815F0F7FB044612F07AFD2146026863
:100AA0000B4806F047FF07F0A5F80446284607F074
:100AB000B3F82CB12146074814F09CFC002038BD47
:100AC000054814F03BFD012038BD00BFBAE4040026
:100AD0004FE504009BE30400C8E304000B680360D7
:100AE0004B68436013B15A6801325A607047C3685B
:100AF00010B504460BB19B689847204610BD000016
:100B0000094B10B504460360406A18B107F074FA47
:100B10000023636204F50F70FFF790FB04F50A7081
:100B2000FFF7E5FF204610BD30E3040010B5044692
:100B3000FFF7E6FF20464FF4107107F05BFA2046FE
:100B400010BD13B504686846FFF7C8FF6846A047A4
:100B500001A8FFF773FB02B010BD000030B587B0ED
:100B600000F1100104466846FFF7B8FF694602A885
:100B7000FFF7B4FFE3682BB940F2AC420B490C48D5
:100B800006F0CCFC02A904A81D68FFF7A7FF04A982
:100B90002046A84705A8FFF751FB03A8FFF74EFB27
:100BA00001A8FFF74BFB07B030BD00BFA1E1040077
:100BB000BFE1040010B504461430FFF73FFB2046A8
:100BC000FFF795FF10BD38B50D46102200210446F1
:100BD00014F0ACFBEB681BB15B68294620469847D4
:100BE000EB68E360204638BD70B58CB01C46054606
:100BF0000E4602A81146FFF7E6FF21466846FFF7BA
:100C00006DFF02A906A8FFF7DEFF69460AA8FFF7F5
:100C100065FF1821284601F0A0FE0446A8B106A9E8
:100C2000FFF7D1FF0AA904F11000FFF757FF204694
:100C3000314601F0CFFF20460B4901F0CEFF22469E
:100C40000A49284601F0F4FE04460BA8FFF7F6FA1D
:100C500006A8FFF74CFF01A8FFF7F0FA02A8FFF77C
:100C600046FF20460CB070BDB50B03005D0B0300C2
:100C700030B589B008AC002344F81C3D036833F854
:100C8000262FADF804209B78A37021460546144812
:100C900014F0B0FB2046134914F046FF0446E8B9AF
:100CA000114814F04BFC10220DEB0200214614F009
:100CB0003DFB0E4B049329460D4B079302A8FFF70B
:100CC0000DFF02AB04AA40F6B8310A48FFF78CFFCB
:100CD00003A8FFF7B3FA04A8FFF709FF09B030BD76
:100CE000FAE404000FE5040013E50400D90D030045
:100CF0007CE30400B80E00202DE9F0472A4D2B4C70
:100D00002B492C4FDFF8CCA086B00022284605F0F6
:100D1000ADFC22462849284606F0B9FF274D284B4E
:100D2000049300261721132211238DE84E00284634
:100D300016231522142101F0F7F94FF4001822466A
:100D40004FF000091F49284606F0A1FF002329465D
:100D5000CDE900890022384602F0B2F92246514618
:100D60003846194F06F093FF4FF440120023CDE9A7
:100D7000002329464B464246144D384602F0A0F95E
:100D800022465146384606F082FF32464FF4D06183
:100D9000284601F0F9FC0E492246284606B0BDE877
:100DA000F04706F074BF00BF5C0E00200002002078
:100DB00094E30400981000205D640300180F0020E5
:100DC0000048E801090A030070100020B80E002056
:100DD000B9270300150903002DE9F04F6F4B704D43
:100DE00095B00DF15009064618680FF0EDFC002390
:100DF00009F8443D01220F21484605F003FF6948E8
:100E000014F0F8FA2B68986812F024FD66496748D8
:100E100005F083F8664B674A0446002814BF104665
:100E2000184614F08BFB0CB106F08CFB624A10687C
:100E30005168127A04AB03C321461A700DF11900F0
:100E4000372214F073FA04A815F03AFA336804AAAA
:100E50009E680244B44208D001193F2905DC596854
:100E600031F8141011550134F4E704A9534814F073
:100E7000C1FA2B68986812F0EDFC514904A812F0F1
:100E80002DFE80460028CFD04FF4805007F09EF80A
:100E90000021044600F58052034603F8011B9A42E4
:100EA000FBD14FF0000A4FF0000B43464FF4805245
:100EB0000121204612F0FCFE5246014606465B46E2
:100EC000404814F097FA2B68986812F0C3FC4FF46E
:100ED00080520023CDE900233B4852465B46002761
:100EE00002F090F8CDE9006752465B46214636484D
:100EF00002F058F8404612F0BBFB50BB1AEB060A52
:100F000048464BEB070B0AF04FFA9DF90C30591C81
:100F100004D120222D492E4806F000FB60B91F2B7A
:100F200086BF03F01F032B494FF0A041012202FAB4
:100F300003F3C1F80835B8E71F2B86BF03F01F0382
:100F400024494FF0A041012202FA03F3C1F80C3505
:100F5000ABE7404612F084FB14B1204607F04CF892
:100F60009DF90C305A1CD4D01F2B86BF03F01F03F1
:100F700018494FF0A041012202FA03F3C1F80835E5
:100F8000BFF34F8F1449154BCA6802F4E062134354
:100F9000CB60BFF34F8F00BFFDE700BFC010002044
:100FA000EC030020E1E30400981000205C0E002018
:100FB000BFFD040025E50400BAE40400FDE30400DD
:100FC0001DE4040020E404007010002048E4040044
:100FD00083E404000003005000ED00E00400FA0583
:100FE0002DE9F0416F48704C704F714EADF5467D64
:100FF00001F06CFF6F4814F0FDF92368986812F057
:1010000029FC68496C4804F088FF8046002814BF1A
:1010100038463046254614F091FAB8F1000F1BD03F
:10102000664814F0E7F92368986812F013FC002270
:101030005C49614805F084FD0446002814BF384629
:10104000304614F07BFA3CB1604215F01BF92246A1
:1010500001465B4806F06EFCFFF712FD0446B0B98E
:10106000584814F06BFA22464E49534805F068FD83
:101070004F4B4E4A0446002814BF1046184614F041
:101080005DFA002CE0D12B68986812F0E3FB4E4823
:1010900014F0B0F92B68986812F0DCFB464805F0B4
:1010A00081F9434B414A044612EA200038BF1846F2
:1010B00014F044FA002CC7DB4448002414F03EFA34
:1010C000434814F03BFA434B369310222146C0A804
:1010D000ADF8F840ADF8FA403F9414F027F9C4A8F1
:1010E000FFF734FA2F4B37934FF40072FF2140A8DB
:1010F00014F01CF91022214606A814F017F9364BFB
:101100000693C0A8354B0993FFF7F1FC06A9C0A8C8
:10111000FFF759FD06A8FFF7EAFC4FF48D6006F0D3
:1011200043FF01224FF482730192009336A940F2EB
:101130000373054610F016F9294B10221D60214655
:10114000284B069307A814F0F1F8214616A807F0DB
:10115000F9F91BA807F08CF9182123460DEB0100C3
:101160004FF48052009409F021FD1022214602A87C
:1011700014F0DCF81C4B029302A91C4B059306A843
:1011800009F068FD059B13B19B6802A898474FF0D2
:10119000FF311748164C01F00DFB0121204601F0EC
:1011A00009FBFAE798100020EC03002025E5040075
:1011B000BFFD0400E1E304005C0E0020F2E5040042
:1011C0004FE5040016E6040041E6040050E6040082
:1011D0006FE6040030E30400710C03007CE30400BC
:1011E000C0100020B4FE0400C509030088E3040019
:1011F000B80E0020C36810B504460BB19B68984731
:10120000204610BD00207047002070470368DB6A4D
:101210001847042000217047D0F83401002170479E
:1012200000487047CDE6040000F5A070D0E9000149
:101230007047FF2070472DE9D0431F4603689B6A23
:1012400016460446DDE90689984702460B463046B5
:1012500039461BF019FE134302D00020BDE8D083AD
:10126000236820469B6A984702460B4640464946FB
:101270001BF00AFE1343F0D1236816EB08069B6BA4
:10128000204647EB09079847B94208BFB0422CBF38
:1012900001200020BDE8D083016870B5096B1446B9
:1012A0001D460646884702460B46204629461BF047
:1012B000EBFD134301D0002070BDDDE90423A41829
:1012C0005D41336814F1FF32196B304645F1FF334D
:1012D000884702460B46204629461BF0D5FD13439E
:1012E000E9D1336830469B6B9847A94208BFA042BA
:1012F0002CBF0120002070BD2DE9D0431F4603689C
:101300005B6A16460446DDE90689984702460B46A5
:10131000304639461BF0B8FD134302D00020BDE82B
:10132000D083236820465B6A984702460B464046B6
:1013300049461BF0A9FD1343F0D1236816EB0806BC
:101340009B6B204647EB09079847B94208BFB0425C
:101350002CBF01200020BDE8D0830000F0B591F83B
:10136000393091F838201B0103F0100343EA1213BF
:10137000013B87B00F2B13D8DFE803F008081215E4
:101380001212121D1212121212121237002302939D
:10139000019300934FF0FF323821043001F0F1F84F
:1013A000002007B0F0BD00230293019300934FF09B
:1013B000FF323521F1E70025012705AE041D2B463C
:1013C000174A0297652101960095204601F0D9F849
:1013D0009DF81430124A8DE8E00043F040038DF888
:1013E000143071212B462046D8E70025012705AE91
:1013F000041D2B464FF0FF326521029701960095A0
:10140000204601F0BEF89DF8143003F07F038DF8FC
:1014100014308DE8E0002B464FF0FF326121E2E707
:1014200003008000282A07DD91F8283001201B11D5
:1014300023B14000013BFBE74FF4807070472DE97A
:10144000F041FF261E604C781C601C2A37DD069A8E
:10145000079C02F1100C0125B046C2F8008091F8FB
:101460001CE00127BEF1000F03D07F000EF1FF3E0C
:10147000F8E7012F276019D04F7F17602768D0F851
:1014800034E1774502D3BEF1000F01D1C0F83471C9
:101490002768B7F5805F04D117681E68BE4218BF81
:1014A0001F6090F828712F4380F8287104326D0076
:1014B0006245EDB201F1020104F10404CDD1002036
:1014C000BDE8F08170B5049D059C0026102A1E70B1
:1014D0002E7013DD0A7CD20610D5CA7E226001224E
:1014E0001A702A708E7E06F01F0202EB5612C0F8A8
:1014F0004C21022280F8492180F84B2100222A70D9
:101500008A7896060ED54A7A226001221A700A7AE3
:1015100002F01F0303EB5213C0F84C31022380F892
:1015200049310DE055060FD5CA7A226001221A70A2
:101530008A7A02F01F0303EB5213C0F84C310223E6
:1015400080F84B31002070BD0B7CDE070AD5CB7DC7
:1015500023608A7D02F01F0303EB5213C0F84C3165
:101560000123DCE7D50603D5CB7B23608A7BF1E73B
:10157000D307E7D54B7B23600A7B02F01F0303EB05
:101580005213C0F84C310123DAE7F0B587B00746B3
:1015900042F2107405AD6FF07F46012006F004FFA3
:1015A00003232E80AE7002930023009301954FF029
:1015B000FF320521381D00F0E4FF9DF81430DB07F1
:1015C00004D5013CE9D1204607B0F0BD0120FBE77E
:1015D00030B587B0002305AA0321041D02910192B2
:1015E000009305464FF0FF3205212046ADF8143038
:1015F0008DF8163000F0C5FF034620B14FF0FF34E0
:10160000204607B030BD0290019000904FF0FF32AD
:101610006621204600F0B5FF03460028EED1029077
:10162000019000904FF0FF329921204600F0A9FF71
:10163000003018BF012044422846FFF7A6FFDFE72D
:1016400070B586B00023051D0646029301930093F2
:101650004FF0FF320621284600F093FF044618B1F0
:101660004FF0FF3006B070BD3046FFF78EFF002808
:10167000F6D005AB032202920193009423464FF06B
:10168000FF3205212846ADF814408DF8164000F0D1
:1016900078FF0028E4D19DF8140080F0020040F3A8
:1016A0004000DFE72DE9F04F87B09A46031D04465E
:1016B0008846914600F150050393DDE9102313435A
:1016C00046D0D4F838B100275A463B4648465146E2
:1016D0001BF0DAFBDDE9100180185941B94208BF5F
:1016E000584534BFDDF840B0ABEB020B5E46002737
:1016F0002846CDE9046706F0C3FE2046FFF7A0FFA9
:1017000058BB04AB0193CDF800804B464FF0FF323D
:10171000A16F039800F0FEFE20BBDDE904239F4289
:1017200008BF93451ED1DDE9102319EB0B094AEBE5
:10173000070AB2EB0B0263EB07032046D844CDE95E
:101740001023FFF722FF80B1284606F0B7FEB4E76A
:101750000024204607B0BDE8F08F054C284606F06F
:10176000ADFEF6E76FF47A64F8E7024CF6E700BFE7
:101770005CF0FFFF5DF0FFFFF0B51D4600F5A073C4
:101780001446D3E90023AB4208BFA24216D3D0F8D7
:10179000AC1099B101290FD000EBC1008B1ED030E5
:1017A000002B0BDB70E90267AF4208BFA64201D2F3
:1017B000581CF0BD013BF3E70020F0BD4FF0FF30B7
:1017C000F0BD10B50446FFF7D7FF431CD4F8341121
:1017D0000AD02044002290F828010123184206D0A4
:1017E00004EB8204D4F89C100846C91710BD0132DE
:1017F0005B00042A5BB2F1D1F6E7F0B5059D00F17C
:10180000A806002703200824EB1A0D78254208D0EB
:101810003768974201DA9F420BDB25EA04050D7019
:1018200007460138451C4FEA5404A6F10406ECD1E2
:101830003846F0BD1FB504AB089C43F8044D043096
:101840008DE80C00069B4FF0FF3200F02CFE0030BC
:1018500018BF0120404204B010BD2DE9F04395B0FF
:10186000002304AD02928DE80A0003932A465A2110
:101870000446FFF7DFFF00284ED19DF8103003F03B
:101880000303032B03D09DF81130002B44D09DF8A7
:10189000120001300A28C4F8AC003DDC002304F13A
:1018A000B00904F5947804F1D80C4FF00F0E1946E6
:1018B0000131884255F8212015F8216022F0FF02FD
:1018C00002F5807249F8042B02F1FF3206F00F0690
:1018D000134408F8016B4FEAE3770EEA060E1E4642
:1018E000ECE8026703F10103E2DC0122002312EAC3
:1018F0000E0009D004EB83030020D3F89C30C4F819
:10190000343115B0BDE8F08301335200042BD2B25C
:10191000EDD1C4F83401F4E74FF0FF30F1E71FB523
:1019200022F07F42002322F47F620293019300930E
:1019300022F00F02043000F024FE05B05DF804FB35
:101940002DE9F04F87B0824616461F46FFF714FF79
:101950000AEB0003DDE9104593F828318DF81730C4
:101960000AF5A073D3E9002314EB060845EB070939
:101970004B4508BF4245834670D3DAF80030324603
:10198000D96C50463B46884702460B46304639469E
:101990001BF07AFA134361D1DAF8003018F1FF3204
:1019A000D96C504649F1FF33884702460B46404602
:1019B00049461BF069FA134350D10AF15008002C34
:1019C00051DD0AEBCB092246D9F8D83000930DF14E
:1019D000170133465046FFF710FF0AEB80003946E7
:1019E000D0F89C50D0F88C3003932A460023304620
:1019F0001BF04AFA13199D42404694BFAD1A254682
:101A000006F03EFD5046FFF71BFE70BB2246E31773
:101A1000CDE90023039932463B465046FFF77FFF4E
:101A200040BB7619A4EB050447F10007002C0DDD3F
:101A3000D9E93623BB4208BFB2423FBF0BF1010BCD
:101A40000AEB0B0393F828318DF817305046FFF757
:101A50009CFD90B1404606F031FDB0E7084C2046B1
:101A600007B0BDE8F08F0024F9E7064C404606F0C9
:101A700025FDF4E76FF47A64F8E7034CF6E700BF5E
:101A80005BF0FFFF5CF0FFFF5DF0FFFF70B49DF8BF
:101A90000C409DF810509DF8146005960495039431
:101AA000043070BC00F019BC2DE9F043044600F18D
:101AB000500685B030460F469046994606F0E0FC49
:101AC000D4F84C010390002594F84B0194F84A3166
:101AD00094F8492194F84811029001950095204608
:101AE000FFF7D4FFDDE90C23616FCDE90223CDE9D7
:101AF00000893A462046FFF79DFE0223A8422A4667
:101B00002946039502950195009520460CBF2F4666
:101B10006FF47A67FFF7BAFF304606F0CFFC38461D
:101B200005B0BDE8F08300002DE9F04F8DB092467E
:101B30009B460022082307910393114602920192CB
:101B40000092022306464FF00809FFF79FFF4FF06F
:101B5000000800220023CDE90023CDF80890CDF83D
:101B60000C8008AA5A213046FFF764FE28B14FF0D6
:101B7000FF3738460DB0BDE8F08F0422324908A87F
:101B800013F0A6FA07460028F1D19DF82520012A76
:101B9000EDD19DF826000021023041F10001CB007B
:101BA0000593C30004934C464546CDF80890CDF804
:101BB0000C80CDE900450AAA5A213046FFF73AFECB
:101BC0000028D4D19DF82A20012AD0D19DF82820C0
:101BD0000ABB9DF82F20FF2A13D19DF82D209DF8D8
:101BE0002E10079B120242EA01429DF82C100A4374
:101BF0001A609DF82B209200402AA8BF4022CAF804
:101C00000020DDE90423083445F100059D4208BFAA
:101C10009442CAD1ADE7512AF3D19DF82F20FF2A73
:101C2000EFD19DF82D209DF82E10169B120242EA4E
:101C300001429DF82C100A43CBF800209DF82B2080
:101C400092001A60DDE700BF83E604002DE9F0474B
:101C500086B00DF1100905AE0023ADF8103089F8FB
:101C60000230ADF81430B37091F83A30C3F3021378
:101C7000013B0446042B74D8DFE803F0032B300348
:101C80003A0002258DF8115003274FF0000A022375
:101C900052465146CDF80CA0CDF808A0CDF804A0CE
:101CA000CDF800A0204604F10408FFF7EFFE0297EC
:101CB0000196CDF800A053464FF0FF32D4F88810BB
:101CC000404600F05EFCD8B14FF0FF3006B0BDE8F2
:101CD000F08740238DF810300125D5E780238DF85B
:101CE00010303E23C0F884303F23C0F88830F3E73B
:101CF000022535238DF81150C0F888300127C4E73C
:101D0000335C19F800201343335401300328F7D112
:101D10002046FFF795FC0028D6D10290019000954F
:101D200033464FF0FF32D4F88410404600F029FCCF
:101D300005460028C8D12046FFF727FC0028C3D05D
:101D40003580B5702B468DE8E0004FF0FF32D4F8B7
:101D50008810404600F015FC003018BF01204042BA
:101D6000B4E70020B2E72DE9F04387B004AE0024C9
:101D70000225B4702B46074622462146039402945E
:101D8000019400948DF81650ADF81040ADF8144051
:101D900007F10408FFF77AFE02950DF111058DE8B1
:101DA000300023464FF0FF32152140460DF1140953
:101DB00000F0E7FB20B14FF0FF3007B0BDE8F08343
:101DC0000446335D19F80420134333550134032CC2
:101DD000F7D13846FFF734FC0028ECD1029001908F
:101DE000009433464FF0FF32D7F88410404600F09D
:101DF000C8FB04460028DED13846FFF7C6FB0028A2
:101E0000D9D002233480B4704FF0FF3202938DE8B2
:101E1000300023461521404600F0B3FB003018BFC8
:101E200001204042C9E770B596B0002316460292E1
:101E30008DE80A00039306AA5A210446FFF7FAFC2C
:101E400020B14FF0FF35284616B070BD9DF81A50EE
:101E500015F00405F5D19DF91F30002BF1DB079B30
:101E6000C4F844510133DB08C4F8403103236367ED
:101E70000223A367D4F88030E367324606A92046E0
:101E8000FFF7D0FA04F19C03019304F18C03C4F82A
:101E900038010093324604F1800306A920468DF8EC
:101EA00016508DF81750FFF7CAFAD4F88030E36760
:101EB00004F1740301930DF11703009332460DF101
:101EC000160306A92046FFF7FDFA9DF816300BB958
:101ED0000025B8E72046FFF746FF06A92046FFF792
:101EE000B5FE05460028ACD19DF81730002BEFD089
:101EF00006A92046FFF732FAA5E70000F0B5856C89
:101F00008BB004464DB1544B544AB5F1FF3F0CBF62
:101F100015461D4628460BB0F0BD00F15006304670
:101F2000069507950895099506F0AAFA94F8543194
:101F30000BB9C4F85051D4F850310133012BC4F817
:101F4000503120D10022C4F8AC300221C4F88430D2
:101F5000271D052384F84A11C4F8342184F8282168
:101F600084F8482184F8492184F84B21C4F84C2195
:101F7000C4F88830D4F83C11384600F03BFA0546E6
:101F800028B16FF47A65304606F098FAC2E7204629
:101F9000FFF71EFB0130F4D00323029305AB01933E
:101FA00000952B464FF0FF329F21384600F0E9FAAA
:101FB00005460028E5D19DF81430BF2B0CD12046F2
:101FC000FFF73EFB0295019500952B464FF0FF323F
:101FD0009821384600F0D5FA2046FFF7D6FA0028B7
:101FE00037D009AB009307AA08AB06A92046FFF734
:101FF0009BFD08B11A4DC6E7079A06992046FFF7E0
:1020000012FF05460028F5D104F5A073D3E900239B
:102010000899C4F8B02012F1FF3243F1FF33C4E94C
:10202000362369B9002202230392029201920092A0
:1020300011462046FFF72AFD012384F85431A2E718
:10204000099A002AEED02046FFF707FC0028D1D1DC
:10205000E8E7044D97E700BF59F0FFFF5AF0FFFF94
:102060005EF0FFFF5DF0FFFFF8B50546074655F847
:10207000044B94B90D4E306818B14FF0FF3107F0A2
:1020800059FE3C682CB915B1284606F0F1F93D60BF
:102090002C46306808B107F065FEAC4204D06C22D3
:1020A0000349044805F03AFA2046F8BD20250020EF
:1020B00088E60400AAE6040070B518480D46FFF74C
:1020C000D3FF06F0DDF9164A1068092820DC154B0D
:1020D0001B685C1E03F1090114F9016FAE421AD0AE
:1020E0008C42F9D103F10A041946013391F90060D9
:1020F00001360AD10D700130106000240748FFF747
:10210000B3FF06F0DBF9204670BDA342ECD1F2E745
:102110006FF00104F2E74FF0FF34EFE7C410002046
:10212000F0100020EC1000207FB5164E9DF92850CD
:10213000044640F8046B0B9E03969DF924600196BB
:102140009DF920600295009600F00EF984F84C503D
:1021500004F1500006F08CF90C9BC4F83C310020CF
:1021600004F5A0730021C3E900010023C4F8503135
:1021700084F8543129462046FFF79EFFA06420468C
:1021800004B070BDDCE6040010B512480C46FFF741
:102190006BFF06F075F9104B1B6803F10A001A4635
:1021A000013392F90010A14209D1FF2313700B4AA9
:1021B0001368002B01DD013B1360002403E0834220
:1021C000EDD14FF0FF340348FFF74EFF06F076F9EC
:1021D000204610BDC4100020EC100020F01000209C
:1021E000F0B5044600F1500785B0384606F048F9CE
:1021F00094F854613EB9C4F85061384606F05EF96F
:10220000304605B0F0BDD4F85051013DC4F85051EE
:1022100025B1384606F052F90026F1E704212B4695
:102220004FF0FF32601802950195009500F0A9F972
:1022300084F85451002838460CBF00266FF47A66A3
:1022400006F03CF9A36C002BDAD194F94C1020462F
:10225000FFF79AFFD4E7000008B50A2005F0B6FEA4
:10226000FF21431E00F1090203F8011F9342FBD135
:10227000014B186008BD00BFEC10002038B50D46BA
:1022800010220021044613F051F8EB681BB15B6883
:10229000294620469847EB68E360204638BD8842CF
:1022A00038B504460D4606D0FEF7A4FF1CB12946FA
:1022B0002046FFF7E3FF204638BDC36810B504464B
:1022C0000BB19B689847204610BD704710B544215C
:1022D000044605F08FFE204610BDF8B51D46036884
:1022E00004469B680F46164698479DF81830E372DF
:1022F0009DF81C3023739DF820306373099B236382
:102300002368277220466672A572DB689847002012
:10231000F8BD10B50446806B012886B004D90020B2
:1023200084F83C0006B010BDC0B20490606B03900E
:1023300094F94200029094F94100019094F9400010
:10234000009094F93F3094F93E2094F93D10201DFF
:102350000CF0A4FC28B9012384F83C3094F83C002C
:10236000E0E70023F8E7000038B580F83F309DF93A
:10237000103080F840309DF9143080F841309DF9DC
:10238000183080F8423002230F4D8372079B05609E
:10239000836300250D4B456080F83D1080F83E209A
:1023A00005724572C572057345730563436380F812
:1023B0003C500446FFF7ADFF20B9322204490548DE
:1023C00005F0ACF8204638BD58E7040040420F0045
:1023D0002CE7040047E7040038B5054D2B6883421D
:1023E000044602D0FFF795FF2C6094F83C0038BDFE
:1023F0001C11002038B590F83C3004460D46D3B18E
:1024000003689B6898470D4B65631B689C420DD120
:102410002946201D0CF072FC003018BF01204542F7
:1024200023682046DB689847284638BD2046FFF7DA
:10243000D3FF0025F4E74FF0FF35F5E71C1100202E
:10244000F8B504460F4616460021202210301D46DE
:1024500012F06CFF237A2374791C14BF002301232C
:10246000A374637A18BF67742375721CA37A6375AB
:1024700014BF002301232377E37A84F82030237BE1
:1024800018BFA66184F821306B1C14BF0023012300
:1024900084F82830236B84F82C30637B18BF656286
:1024A00084F82D30F8BD2DE9F843984690F83C307B
:1024B000089E099C05460F46914643B324B31EB3BC
:1024C000236823B303689B6898472846FFF784FF77
:1024D000B8B14B46424639462846FFF7B1FF23467E
:1024E000324605F11001281D0CF0B8FC003018BF71
:1024F000012044422B682846DB6898472046BDE807
:10250000F8834FF0FF34F5E76FF00104F6E74FF082
:10251000FF34F3E72DE9F843984690F83C30089EE5
:10252000099C05460F46914643B324B31EB3236866
:1025300023B303689B6898472846FFF74DFFB8B15F
:102540004B46424639462846FFF77AFF2346324635
:1025500005F11001281D0CF095FA003018BF01207C
:1025600044422B682846DB6898472046BDE8F8833C
:102570004FF0FF34F5E76FF00104F6E74FF0FF345A
:10258000F3E7F7B51D4690F83C3004460E46174673
:1025900033B303689B6898472046FFF71DFFE0B1FF
:1025A0004FF0FF333A4631462046FFF749FF0A9B7A
:1025B0000193099B00932A46089B04F11001201DFA
:1025C0000CF0AAFA003018BF0120454223682046CB
:1025D000DB689847284603B0F0BD4FF0FF35F5E7BC
:1025E0004FF0FF35F6E7000008B50348FFF73CFD64
:1025F000BDE8084005F044BFF410002008B50348CA
:10260000FFF732FDBDE8084005F058BFF410002088
:102610006FF01500704703681B69184703689B69D2
:10262000184703689B6A184700290CBF6FF0180011
:1026300000207047012070476FF0150070476FF061
:102640001500704711207047704710B5044605F01B
:102650002BF8236853B9237F0BB105F05BFEA0690B
:1026600004F010FDC4E9020101232360BDE810401D
:1026700005F030B838B5044605F016F8236863B1A4
:10268000A06904F0FFFCD4E90245041B61EB0505D9
:1026900005F020F82046294638BD00240025F7E73C
:1026A00070B5064605F000F83046D6E90445FFF758
:1026B000E1FF24184D4105F00DF82046294670BD74
:1026C00010B5044604F0F0FFA06904F0DBFC002222
:1026D0000023C4E90201C4E90423BDE8104004F06A
:1026E000F9BF002310B5002203600023C0E90223D4
:1026F000C0E904230B68816193F8203083F0010363
:1027000004460377FFF7DCFF204610BD03689B6893
:102710001847000010B50446074B23600022002331
:10272000C4E9022300230846A161236163610349D0
:1027300004F01EFC204610BD70E704000D270300C6
:1027400007B5009000F10801806904F050FC03B067
:102750005DF804FB00F10801806904F078BC00001A
:1027600010B5034B03600446FFF7F4FF204610BD8D
:1027700070E70400036801221B6900211847036801
:1027800000221B691146184770B5164604460D46CF
:10279000102200214C3012F0C9FD2EB929462046E6
:1027A00000F09EF8204670BD32462946204600F0D3
:1027B00063F8F7E700F056B910B5044600F0A2F848
:1027C00004F14C00FFF779FD204610BD2DE9F041E2
:1027D00003690E799E40C368CB1A1E434B699B1A4E
:1027E000002BACBFD318131C4B61437A4B7100F123
:1027F0004408054640460C46174600F0F6F92846C0
:102800000368002B30D059696269A1EB020EBEF15A
:10281000000F26DB914227D19B68A36013B104F11E
:1028200008021A612246036842F80C3F00219960B1
:102830001A61AB6A046020616BB195F8242052B133
:102840002A68944207D1E2682AB96169E86AC91B1B
:1028500021EAE1719847404600F0C9F93046BDE8E9
:10286000F08103F10800CBE7A36013B104F1080283
:102870001A610023E360DCE738B5D31C23F00303BF
:102880009A1A891A21F0030100220446C3604261AA
:1028900002610D46FDB9E1612362A561256000F08A
:1028A0009FF965726060257284F82450A562E56224
:1028B00004F1300000F09DF900280BDB04F1440026
:1028C00000F090F9002805DB04F1480000F08AF9D7
:1028D00000EAE07038BD2269013222616D08D9E753
:1028E00070B5054608460E4612F098F8044630B119
:1028F000024631462846FFF7BFFF6C6170BD4FF0BE
:10290000FF3070BD70B505680446B5B9A36A1BB148
:102910004FF0FF31E06A984704F1480000F064F995
:1029200004F1440000F060F904F1300000F077F9A0
:102930006069BDE8704012F079B8EE6836B9EB69AD
:1029400013B105F124009847AD68DEE7F36913B1D0
:1029500006F124009847F668F0E7F8B5064600F15E
:1029600048072731384621F0030500F03EF9B469E5
:1029700006F1180384B9F3699D4227D8346A5B1BBA
:10298000F36162190123326238462560237100F039
:102990002EF964B92046F8BD2268954212D8E26843
:1029A0006AB11A60A3689360384600F020F90023EA
:1029B0004FF0FF326361A261E3612434EAE7A26869
:1029C0001A60F1E704F10803A468D3E7384600F081
:1029D0000EF9DFE7F8B551F8083C05460C46A1F1C1
:1029E00024070BB10846984705F14806304600F029
:1029F000FCF8AB6905F11802ABB1186854F8241C57
:102A000088420CD30FD144F8183C13689B6844F8F3
:102A10001C3C30461760BDE8F84000F0E8B803F110
:102A200008029B68E8E7002344F8183C1368EEE7C7
:102A300070B5144605460E4600F0D2F854F8103C26
:102A400044F8046C0344024644F8103CA4F1240109
:102A50002846FFF7BBFE044605F1300000F0E2F81F
:102A6000204670BD2DE9F3470446884600F0B8F8CB
:102A70000027054608EB000984F8247004F1440699
:102A8000304600F0B2F8637A0133637263685B1B0F
:102A9000002B2368D8BF6560019301A91BB15A6957
:102AA000521B002A31DD236003B11C610F603046E8
:102AB00000F09DF8019B01A95BBB019D002D37D162
:102AC00000F08EF8B8F1000F824656DBA9EB000546
:102AD000002D54DCA36A9BB1304600F086F8A36A4F
:102AE00043B1226832B15169E06AA1EB0A0121EADF
:102AF000E1719847012384F82430304600F077F8DC
:102B00000023237202B0BDE8F08703F108019B683F
:102B1000C4E7D3F808E01A460025D068956015464A
:102B200020B90A6003F108017346C5E70246F4E7DD
:102B30002B6AD5F808A013B105F124009847AA69BB
:102B4000002A0BDB6B6913446B6100F049F82946DE
:102B500002462046FFF73AFE5546AFE72B79226939
:102B60000133DBB213FA02F208BF01232B7105F126
:102B700024012046FFF72EFFEEE74FF0FF353046E9
:102B800000F033F823683BB15969A1EB0A0121EA4F
:102B9000E1718D4228BF0D46304600F028F82946E5
:102BA00004F1300000F042F8237A7BB1304600F0A7
:102BB0001CF8237A3BB100233046237202B0BDE8F3
:102BC000F04700F014B8304600F011F800F008F8B3
:102BD000054655E740F8101C704740F8081C704740
:102BE00006F082BB00207047704704F05DBD04F022
:102BF00071BD30B5102585B004462A4600216846CF
:102C000012F094FB231D68460293039506F00CF91D
:102C10002060B0FA80F04009404205B030BD006845
:102C200006F072B90121006806F016B908B5002255
:102C300041EAE1730068012106F03CF9431E584265
:102C4000584108BD30B54FF47A7440F271256143A4
:102C5000B1FBF5F189B2032983809DF80C308371B3
:102C600098BF0423018098BF03800388B3F5804F89
:102C700088BF4FF4804304FB02F2B2FBF5F292B23C
:102C800088BF0380032A98BF0423428098BF4380F3
:102C90004388B3F5804F84BF4FF48043438030BDF9
:102CA00003680BB10846184770470000044B002228
:102CB0001A605A609A601A61024ADA60704700BF6F
:102CC00020110020A12C03000346002210B503F8B8
:102CD000012B00F1110403F8012BA342FBD1418227
:102CE00010BD000008B542F602110248FFF7ECFFE4
:102CF00008BD00BF3411002007B500234FF4804207
:102D0000009311460248FFF79DFF03B05DF804FBF6
:102D100048110020034B1A78034B53F8223003B1BB
:102D2000184770470402002050110020064B012272
:102D3000C3F80823054B5A78FF2A00D1FEE7044A5E
:102D400012885A70704700BF00F0004092240020A3
:102D500016250020044BD3F8402122B10022C3F8ED
:102D60004021D3F84031704700B00040074B4FF48A
:102D70008032C3F808230022C3F84021044B01220B
:102D80001A709B6803B11847704700BF00A000404D
:102D90006411002040680368DB68184740680368D6
:102DA0001B691847406803685B6A184740680368F6
:102DB0009B6A184740680368DB6A18474168D0B4CB
:102DC000D0E904670868046B92197B4108462146E4
:102DD000D0BC0847406803685B6B184730B5D0E942
:102DE0000845D0E90401201A65EB010130BD4068B7
:102DF00010B103689B6C184770472DE9D043994682
:102E000003685B6A90460446DDE906679847024618
:102E10000B46404649461AF037F8134302D00020CB
:102E2000BDE8D083236820465B6A984702460B467C
:102E3000304639461AF028F81343F0D1236816EBD0
:102E400008069B6B204647EB09079847D4E9042303
:102E500080185941B94208BFB0422CBF0120002060
:102E6000BDE8D083016870B5096B14461D4606465F
:102E7000884702460B46204629461AF005F81343B8
:102E800001D0002070BDDDE90423A4185D41336842
:102E900014F1FF32196B304645F1FF338847024683
:102EA0000B462046294619F0EFFF1343E9D133685A
:102EB00030469B6B9847D6E9042380185941A942B4
:102EC00008BFA0422CBF0120002070BD73B504468E
:102ED000406803689B689847054600282BD16068C6
:102EE00003689B6B9847237A3BB1D4E90423821A89
:102EF00061EB0303C4E904232572237E43B100235D
:102F00002376D4E90823801A61EB0301C4E90801A0
:102F1000D4E90423D4E90801801A61EB0301CDE967
:102F2000000126682046716C884720B93D2203497C
:102F3000034804F0F3FA284602B070BD7CE70400B1
:102F4000BAE704002DE9F34BDDE90A67D0E904BCD8
:102F5000CDE900671D46036814461BEB0202894653
:102F6000D96B4CEB05038046884720B94E220B49AC
:102F70000B4804F0D3FAD8F804000168CDE90A67D9
:102F8000D8E904BC4E691BEB04024CEB050349462F
:102F9000B44602B0BDE8F04B604700BF7CE70400D8
:102FA000E1E704002DE9F34BDDE90A67D0E904BC51
:102FB000CDE900671D46036814461BEB02028946F3
:102FC000196C4CEB05038046884720B954220B4905
:102FD0000B4804F0A3FAD8F804000168CDE90A67A9
:102FE000D8E904BC8E691BEB04024CEB050349468F
:102FF000B44602B0BDE8F04B604700BF7CE7040078
:1030000028E804002DE9F341DDE9086714461D4670
:10301000D0E904230168CDE9006712196B41496CBE
:103020008046884720B95A220849094804F076FAB0
:10303000D8F80400D8E904230168CDE9086712191B
:10304000C9696B4102B0BDE8F04108477CE7040064
:1030500004E804002DE9D043994603689B6A904632
:103060000446DDE90667984702460B464046494656
:1030700019F00AFF134302D00020BDE8D083236873
:1030800020469B6A984702460B463046394619F05F
:10309000FBFE1343F0D1236816EB08069B6B20461A
:1030A00047EB09079847D4E9042380185941B942EE
:1030B00008BFB0422CBF01200020BDE8D083000033
:1030C00070B5DDE904454160002A4FF000010F4E64
:1030D0000172017673F100010660C0E90423C0E9C2
:1030E000084506DA524263EB4303C0E90423012199
:1030F0000172012C75F1000306DA644265EB4505A7
:10310000C0E908450123037670BD00BF58E80400FC
:103110000368DB681847000008B5036803499B682B
:10312000984700280148D8BF002008BD7011002032
:1031300003689B69184703685B69184703681B6944
:10314000184710B50446406830B10368A1681B6E8B
:1031500098470023636010BD6FF0150010BD00009C
:10316000044B10B50360436804460BB1FFF7E9FF59
:10317000204610BDE0E8040010B50446FFF7F0FF5C
:1031800020460C2104F036FF204610BD38B54368B8
:1031900004460D4643B90B6800F10801DB6D284673
:1031A000984718B9656038BD6FF0150038BD00004C
:1031B000436810B50A4623B94A220649064804F076
:1031C000ADF919688C6E816818462346BDE8104039
:1031D000184700BFA4E80400D2E80400436810B513
:1031E00023B950220549064804F098F91A68816805
:1031F000D26E1846BDE81040104700BFA4E8040096
:10320000D2E80400436810B523B9562205490648A0
:1032100004F084F91A688168126F1846BDE81040FE
:10322000104700BFA4E80400D2E80400436810B5CA
:1032300023B95C220549064804F070F91A688168D0
:10324000526F1846BDE81040104700BFA4E80400C4
:10325000D2E80400436870B504460D4623B9432202
:103260000849094804F05AF940F2011200212846A1
:1032700012F05CF86068A16803682A465B6EBDE8DE
:1032800070401847A4E80400D2E80400024A026033
:103290000022426082607047E0E8040010B50446F6
:1032A000406830B10368A1685B6B98470023636096
:1032B00010BD6FF0150010BD044B10B503604368DE
:1032C00004460BB1FFF7EAFF204610BD50E90400A9
:1032D00010B50446FFF7F0FF20460C2104F08AFEEB
:1032E000204610BD70B50D464168044641B92968B5
:1032F0000E6B00F108012846B04718B9656070BD33
:103300006FF0150070BD000070B5044640681346AC
:1033100020B943220549064804F000F90268956B7C
:103320000A46AC46A168BDE87040604718E9040051
:10333000D2E8040070B504464068134620B949221B
:103340000549064804F0EAF80268D56B0A46AC461F
:10335000A168BDE87040604718E90400D2E80400A5
:10336000436810B523B94F220549064804F0D6F842
:103370001A688168126C1846BDE81040104700BFFB
:1033800018E90400D2E80400436810B523B95522B7
:103390000549064804F0C2F81A688168526C18465C
:1033A000BDE81040104700BF18E90400D2E804004F
:1033B00070B504464068134620B95B2205490648AB
:1033C00004F0ACF80268956C0A46AC46A168BDE80A
:1033D0007040604718E90400D2E80400436810B563
:1033E00023B961220549064804F098F81A688168F3
:1033F000D26C1846BDE81040104700BF18E9040021
:10340000D2E80400436810B523B96722054906488D
:1034100004F084F81A688168126D1846BDE81040FF
:10342000104700BF18E90400D2E80400436810B553
:1034300023B96D220549064804F070F81A688168BE
:10344000526D1846BDE81040104700BF18E904004F
:10345000D2E80400436810B50A4623B9732206492E
:10346000064804F05BF819688C6D8168184623469D
:10347000BDE81040184700BF18E90400D2E8040076
:10348000024A0260002242608260704750E90400F4
:103490006FF02500704700207047036810B49C6CE3
:1034A0000022A44601235DF8044B6047036810B472
:1034B0009C6C0023A4461A465DF8044B60470368E1
:1034C0002DE9F041DB6C04460D46984723688046A1
:1034D0009E6C2946022300222046B04723680646F8
:1034E0009F6C4246002329462046B8473046BDE837
:1034F000F0816FF0250070476FF0250070476FF086
:1035000025007047704700207047036800229B6EBB
:10351000184703682DE9F041DB6E04460E469847D4
:10352000804640F2011004F03FFD236807461B6F00
:10353000314620469847002523683A465B6E31465F
:1035400020469847002801DD0135F5E7236842460B
:103550009B6E314620469847384640F2011104F0F0
:1035600049FD2846BDE8F08110B5034B03600446D1
:10357000FFF7A2FE204610BDB0E9040010B50446D6
:10358000FFF7F2FF20460C2104F034FD204610BD69
:103590002DE9F04105460C2098460E46174604F0EA
:1035A00003FD0446FFF76CFF094B236029464346A1
:1035B0003A462046FFF796FE054638B11CB123680F
:1035C00020465B6898472846BDE8F0813460FAE7FA
:1035D000B0E9040010B5034B03600446FFF7C0FDDB
:1035E000204610BD10EA040010B50446FFF7F2FFB4
:1035F00020460C2104F0FEFC204610BDF8B505461F
:103600000C200E46174604F0CFFC0446FFF73EFEA2
:10361000084B236029463A462046FFF7B7FD05468A
:1036200030B11CB1236820465B6898472846F8BD36
:103630003460FBE710EA040010B5074B0446012292
:1036400040F8043B03F046FD044B03F108028833C5
:1036500022606360204610BD58F2040048EA04006E
:1036600038B50446FFF71AFE05461CB1236820460C
:103670005B689847284638BD38B50446FFF761FDBA
:1036800005461CB1236820465B689847284638BD2C
:1036900042884378007843EA022340EA03207047D7
:1036A0000B0A017043700B0C090E8370C1707047D8
:1036B000024400F8011B9042FBD1704730B504462C
:1036C00014F8013B11F8015B5B1B151BE84201D0AC
:1036D000002BF5D0184630BD036A0239023B9942EF
:1036E0003DBF4389406B01FB03000020704700F1A0
:1036F0000B01002310F8012B02EBC31202EB530362
:10370000884203F0FF03F5D118467047036810B5EF
:10371000044653B119460A4611F8010B1F2810D967
:103720003A28F8D1591C8A4202D04FF0FF3010BD20
:103730001B78303BD9B20329F7D8013218462260F2
:1037400010BD014B187810BD8412002038B50D460D
:10375000044618B9092000232B6038BD0368002BEC
:10376000F8D01A78002AF5D08188DA889142F1D110
:10377000587802F0C7FE10F00100EBD12368EBE7A8
:1037800001380A4411F8013B00F8013F9142F9D198
:103790007047CA7E8B7E032843EA022301BF487D1F
:1037A0000A7D42EA002243EA024318467047131298
:1037B0008A76CB760378032B01BF120C0A7512129E
:1037C0004A75704738B5C37804460BB9002038BD38
:1037D000826BC16B4078012302F0C0FE80B9A16BFF
:1037E000E36A626AE070CB1A9342EFD2A378022BAD
:1037F000ECD10A440123E16B607802F0AFFEE5E70B
:10380000012038BD2DE9F04104460E46FFF7DAFFEE
:10381000054678BB31462046FFF75EFF2946A06388
:103820008046A289E06BFFF743FF6389A5895D436A
:10383000B5F5004F28BF4FF40045A3899D421CD920
:10384000284602F05BFE0746C0B96D08F5E7E56B58
:10385000002663899E4207D2012306EB080229460F
:10386000607802F07BFE30B36089801B18BF0120B6
:10387000BDE8F0810120BDE8F0810027A3899D42C9
:10388000E5D92A46002138460026FFF711FFA38913
:10389000B5FBF3F563899E4207D22B4606EB08027F
:1038A0003946607802F05AFE18B1384602F028FE18
:1038B000DAE72E44EEE70136CBE770B50446FFF7B2
:1038C00081FF0546002840D12378032B35D1267986
:1038D000012E32D10146A289E06BFFF7E9FEE36BCE
:1038E000552283F8FE21AA2283F8FF21E26B52239E
:1038F00013705370412161239370D170E26B722079
:1039000082F8E73182F8E40182F8E50182F8E611F5
:10391000E06BA16900F5F470FFF7C2FEE06B61692E
:1039200000F5F670FFF7BCFEA26AE16B6078013229
:10393000A263334602F012FE257100221146607820
:1039400002F038FE003018BF012070BD836B8B423F
:1039500070B506460D4611D0FFF734FF044658B93E
:103960002A460123F16B707802F0DAFD00281CBFB3
:103970004FF0FF350124B563204670BD0024FBE7FE
:10398000002310B5C3704FF0FF3383630446FFF785
:10399000DDFF18BBE46B94F8FF2194F8FE3143EA95
:1039A00002234AF6552293421AD12378EB2B03D0F7
:1039B0001833DBB2012B15D803220B4904F1360072
:1039C000FFF77CFE78B10522084904F15200FFF7A9
:1039D00075FE002814BF0220002010BD042010BD79
:1039E000032010BD022010BD75EB040079EB04002C
:1039F0002DE9F04F002385B00B600F461546FFF709
:103A000085FE061EC0F2DE80AA4B53F82640002C2D
:103A100000F0DA803C60237805F0FE0573B1607831
:103A200002F070FDC10709D4002D00F0CF8010F026
:103A3000040000D00A2005B0BDE8F08F0023F0B2EA
:103A40002370607002F060FDC20700F1C1800DB10B
:103A50004307EFD404F10C020221607802F0AAFDC2
:103A600008B10120E7E7A089A0F50073B3F5606F06
:103A7000F7D8431E0342F4D1E36B1BB30021204669
:103A8000FFF77EFF02282CD1E16B002501F5E371E1
:103A900011F8040C10B10846FFF7FAFD4DF82500A7
:103AA0000135042D01F11001F2D100255DF82570DA
:103AB0007FB139462046FFF763FF01280ADC04285E
:103AC000CFD013E002F01AFDE0630028D6D1112018
:103AD000B1E703200135042DE8D10428C1D00D2021
:103AE000A9E70428BDD00128F9DC0027E16BA689ED
:103AF0000A7BCB7A43EA02239E42F0D1CB7D91F838
:103B0000168058EA032804D101F12400FFF7C0FD14
:103B10008046C4F824800B7CA3705A1E012ADED88C
:103B20004D7B08FB03F9ABB26381002BD7D06B1E32
:103B30002B42D4D18B7C91F811A04AEA032A730955
:103B4000BAFBF3FB03FB1BA39BB2A4F808A0002B5A
:103B5000C5D10B7DC87C50EA032003D101F12000C0
:103B6000FFF796FDCA7B8B7B53EA0223B7D013FA8B
:103B70008BF24A449042B2D3801AB0FBF5F04E4D1E
:103B800000F1FF3EAE45AAD84FF6F575A8423B447A
:103B900000F102053A444BD840F6F57E70452562A7
:103BA000A762E362626339D8BAF1000F97D04B4441
:103BB000236305EB450305F0010505EB53054FF0C5
:103BC00001094DE00B2036E70C2034E7284632E7A8
:103BD000032030E7E16B207191F8FF2191F8FE316D
:103BE00043EA02234AF65522934258D10846FFF78A
:103BF0004FFD324B984252D101F5F270FFF748FD6C
:103C00002F4B98424BD101F5F470FFF741FDA061B5
:103C100001F5F670FFF73CFD606140E0BAF1000F7E
:103C20003FF45DAF4B4423636D004FF0020917E092
:103C30002562A762E362626391F82B2091F82A3033
:103C400053EA02237FF44BAFBAF1000F7FF447AF82
:103C500001F12C00FFF71CFDAD0020634FF00309BC
:103C6000731E1D44B5FBF6F6B045FFF438AF4FF0B8
:103C7000FF33A3616361B9F1030F4FF08003237138
:103C80000DD191F8312091F8303043EA0223012B15
:103C900005D1791C2046FFF759FE00289AD0094A21
:103CA00084F80090138801339BB200201380E380D6
:103CB000E061C0E674120020F4FFFF0F5252614130
:103CC000727241617212002001292DE9F843044605
:103CD0000D46174640F28280036A99427ED20378ED
:103CE000022B45D0032B5AD0012B77D101EB510980
:103CF000C16A8389B9FBF3F31944FFF727FE06462F
:103D000060BBA389E06BB9FBF3F203FB129215F0E1
:103D100001051FBF835C03F00F013B0103F0F003BB
:103D200014BF0B43FBB28354E16A0123E37009F132
:103D30000108A389B8FBF3F320461944FFF706FEF8
:103D4000064658B9A389E06BB8FBF3F203FB128275
:103D50003DB1C7F3071787540123E3703046BDE830
:103D6000F883835CC7F3032723F00F031F43F2E7B5
:103D700083895B08B1FBF3F3C16A1944FFF7E6FDE1
:103D800006460028EAD1A2896D00B5FBF2F302FBDA
:103D90001355E36B5A195F553F125770DCE783895F
:103DA0009B08B1FBF3F3C16A1944FFF7CFFD064648
:103DB0000028D3D1A289AD00B5FBF2F302FB135367
:103DC000E56B1D442846FFF763FC27F0704700F0C1
:103DD000704139432846FFF763FCBDE70226BDE783
:103DE0000129F8B504460E4664D9036A994261D2A6
:103DF0000378022B30D0032B45D0012B5AD101EB95
:103E00005105C16A8389B5FBF3F31944FFF79EFDA1
:103E100010B14FF0FF30F8BDA189B5FBF1F36F1C75
:103E200001FB1355E36BB7FBF1F15D5DE36A2046DF
:103E30001944FFF78BFD0028EBD1A289B7FBF2F301
:103E400002FB1373E26BD05CF30745EA00204CBF22
:103E50000009C0F30B00F8BD83895B08B1FBF3F3E5
:103E6000C16A1944FFF772FD0028D2D1A2897600F9
:103E7000B6FBF2F302FB1366E36B9A19985D527876
:103E800040EA0220F8BD83899B08B1FBF3F3C16AC5
:103E90001944FFF75BFD0028BBD1A389B600B6FB30
:103EA000F3F003FB1066E06B3044FFF7F1FB20F00A
:103EB0007040F8BD0120F8BDB1F5001FF8B504460B
:103EC0000E4601D30220F8BDCA06FBD18268056800
:103ED0002161D2B92B78022B01DD2B6BB3B92B8971
:103EE000B3EB561FEED92B6BA3616261A269002A66
:103EF000E8D0A989B6FBF1F31A4401FB1366EB6B1A
:103F0000A2611E44E6610020F8BD13466A89AF89AC
:103F100057431A46BE4211460CD32068FFF760FF94
:103F2000431C02460BD00128CCD92B6A9842C9D237
:103F3000F61BEFE72846FFF7CFFBA061D5E701208E
:103F4000F8BD2DE9F041804605680F4649B96E6914
:103F5000CEB12B6A9E4228BF0126AB69ABB90024C3
:103F600009E02846FFF73CFF0128044658D9421CC7
:103F700004D14FF0FF342046BDE8F0812B6A98420F
:103F8000F9D33E46E9E70126E7E7BE4215D12B6AA1
:103F9000D8F80000741C9C4228BF02242146FFF779
:103FA0001FFF01283CD0431CE3D0D8B16B69012B23
:103FB00003D92A6A934238BF1E4634462B6A01341D
:103FC0009C4202D3012ECAD902242146D8F800000F
:103FD000FFF706FF40B1012822D00130C9D0B4421A
:103FE000ECD1BCE7002CE8D04FF0FF322146284648
:103FF000FFF76AFE90B957B92A6AAB696C61023A59
:1040000093420FD92B7943F001032B71B3E722467A
:1040100039462846FFF758FE0028EDD00128A8D0E1
:104020000124A8E7013BAB61ECE72DE9F3410D4624
:10403000012D0746114603D8022002B0BDE8F081E9
:104040000468236A9D42F7D242B9A84629463868D7
:10405000FFF7C6FE064648B90020EEE74FF0FF32F4
:104060002046FFF731FE0028EFD0E6E70128E3D035
:10407000431C2CD0002229462046FFF725FE0028AD
:10408000DBD1226AA369023A934205D20133A361CC
:10409000237943F0010323716B1C9E4212D04146E9
:1040A0002046FFF719FB294600902046FFF714FB36
:1040B0006389013B184401906A460421607802F04C
:1040C00079FAB046236A9E423546BFD3C4E7012041
:1040D000B3E72DE9F041076906682037B7F5001FFF
:1040E00024BF0023836183690446884683B1B28973
:1040F000B7FBF2F002FB1072002A3AD1616901337A
:10410000A36141B93389B3EB571F32D80023A361B0
:104110000420BDE8F0817389013B034229D1304678
:10412000FFF75EFE0128054602D80220BDE8F081B7
:10413000421C02D10120BDE8F081336A984212D3BB
:10414000B8F1000FE2D061692046FFF7FAFE05469C
:10415000D8B10128E9D0431CECD001463046FFF726
:1041600051FB0028E6D1656129463046FFF7B4FAD5
:10417000A061B2892761B7FBF2F302FB1373F76BFF
:104180001F44E7610020BDE8F0810720BDE8F08111
:10419000C16A4B1C2DE9F04104460568066918D137
:1041A000E5274FF00108A1692846FFF7CFFB60B96A
:1041B000E3691F7085F8038023699E420DD901468B
:1041C0002046FFF786FF0028EDD0042808BF022014
:1041D00003E0FFF771FE0028E2D0BDE8F0810000A7
:1041E0002DE9F74F00210446D0F80090FFF764FE58
:1041F0008246002840F081804FF0FF334FF0FF08E7
:10420000E3624646A1694846FFF7A0FB82460028C4
:1042100073D1E5692F78002F75D0EA7AE52F02F087
:104220003F03A37103D0120705D50F2B05D04FF024
:10423000FF33E36259E00F2B59D194F82B30580625
:1042400043D4790649D522696B7BE26207F0BF0748
:1042500095F80D80984554D1EB7EAE7E46EA032654
:1042600036B2002E41D12B78D9F810A003F03F03CD
:10427000013B0D2202FB03FB01212B4BF05C2A18B2
:1042800092F801E02A5C42EA0E2251B3BBF1FE0F24
:104290002BD81046019201F0BDFD00903AF81B00AA
:1042A00001F0B8FD0099019A81421ED10BF1010B7A
:1042B000114601360D2EE0D12A78520603D511B1F0
:1042C0003AF81B308BB9013FFEB200212046FFF7C0
:1042D00000FF8246002895D00FE0BE4205D143463C
:1042E000B6E74FF6FF739A42E3D0FF26EDE76EB9CB
:1042F0002846FFF7FCF9804508D1504603B0BDE8D9
:10430000F08F9846F1E74FF0040AF6E794F82B3067
:10431000DB078CD40B2204F120012846FFF7CEF9ED
:10432000002884D1E9E700BF68EB04002DE9F04FD5
:1043300090F82B4014F0A00489B005467FD10668A0
:10434000336933F814200AB10134FAE705F1200784
:104350000C22394605A8FFF713FA9DF81F30DB073A
:1043600076D54023DFF8248285F82B304FF0010901
:104370000B2205A93846D6F810A0FFF701FAB9F1CB
:10438000050F14D9AAF102024B4632F8021F79B187
:10439000102001F0010E0EEB430313F4803F18BF11
:1043A00083EA080301384FEA5101F2D1EDE74B46A9
:1043B000072203F00F0000F13001392988BF00F116
:1043C0003701013A03A810441B094170F1D108A933
:1043D00011447E2001F8140C9A421FD0F95C202968
:1043E0001ED13B44072A9BBF08A98918202111F838
:1043F000141C03F8011BA3EB070198BF0132072926
:10440000F0D92846FFF7ECFE8246D8B909F1010938
:10441000B9F1640FACD14FF0070A5AE01346E0E758
:104420000133D9E7804601212846FFF752FE824634
:1044300020B3BAF1040F08BF4FF0070A49E04FF06C
:10444000060A46E0042844D19DF81F3085F82B3039
:104450009DF81F30D5F800909B0748BF0C344FF0F3
:104460000001284649BF0D230124B4FBF3F40134B5
:10447000FFF722FD82460028DBD18046A969484625
:10448000FFF764FA82460028D3D1EB691B78E52B4D
:1044900001D0002BC6D108F101084445C3D1013C2D
:1044A0001BD1A9693046FFF751FA824688B920220C
:1044B0005146E869FFF7FCF80B223946E869FFF737
:1044C0005FF995F82B30EA6903F0180313730123A1
:1044D000F370504609B0BDE8F08F29692846A1EB7A
:1044E0004411FFF7E9FC82460028F2D13846FFF775
:1044F000FEF84FF6FF798046A9693046FFF726FAA5
:1045000082460028E5D1EB69D6F810C083F80D800B
:104510000F22E1B24FF00D0EDA724A1E0EFB02F2CC
:1045200018739876D8760192864648451FBF019A3F
:104530003CF8120001320192134A1EF802A00EF15B
:10454000010E03EB0A0B03F80A004FEA202A0028A9
:1045500008BF4846BEF10D0F8BF801A0E5D14845D4
:1045600003D0019A3CF812200AB941F040011970B9
:104570000123F37000212846FFF7ABFD8246002897
:10458000A7D1013CB8D18CE768EB040021100100F1
:104590002DE9F0470026D0F800908E758369074614
:1045A0000C46002B00F08F80C36A013335D0B04633
:1045B0003546D9F81030985B40B3B8F1000F05D1FB
:1045C00000F520539BB2B3F5006F13D340F2B51141
:1045D00040EA084001F0E8FBFF28C5F1FF0A0CDDC6
:1045E000BAF1010F11D9631902129A75D875022315
:1045F0001D44002002368046DBE730B1BAF1000FDF
:1046000042D0631998750123F2E70025B8F1000F35
:1046100018BF002525440023AB75F8690022451E0C
:1046200011464FF02E0E15F8013F202B01F101012C
:104630000DD0052B08BFE523092905D10B2A9EBF04
:10464000A618013286F809E0A618013273720B2908
:10465000E9D1A31800215972A37D03BBB2B104F1C3
:10466000090111F8012BA2B192B2A2F14105192D55
:1046700007D8092B067B34BF082510252E4218BF0A
:1046800020320A730133ECE75546BFE73F23A37599
:104690000123234400229A75037B03B96372F969ED
:1046A000CB7A237201F11C00FEF7F2FF2060CA7D75
:1046B0008B7D43EA0223E3804A7E0B7E43EA02239A
:1046C000A380BDE8F087BDE8F08700002DE9F84F32
:1046D000FF250668464F81462C464FF0040A4FF6E8
:1046E000FF78D9F81810002975D03046FFF72EF959
:1046F000824600285ED1D9F81C000378002B6ED0CA
:10470000C27AE52B02F03F0289F806204AD02E2B10
:1047100048D022F02001082944D00F2A51D15A064E
:104720003ED503F0BF04D9F81030457BC9F82C30D2
:10473000437BAB4236D1C27E837E43EA02231BB267
:1047400083BB0278316922F04002013A4FF00D0E2E
:104750000EFB02FE4FF0010C13F807A000EB0A025B
:1047600092F801B010F80A2042EA0B22BCF1000FC7
:1047700024D0BEF1FE0F15D821F81E2094460EF16C
:10478000010E01330D2BE7D103785B0605D5BEF191
:10479000FE0F07D8002321F81E30013CE4B202E0EE
:1047A000A342C5D0FF2400214846FFF792FC824671
:1047B000002896D00023C9F8183009E04245E0D01F
:1047C000F0E77CB9FEF793FFA8420BD14FF0000A47
:1047D0005046BDE8F88FBAF1000FF7D0EAE74FF086
:1047E000040AE7E74FF0FF33C9F82C30F0E700BFC9
:1047F00068EB04002DE9F74F0B78D0F800B02F2BB1
:104800000546894601D05C2B0AD14A4613782F2BE6
:10481000914602F10102F9D05C2BF7D0002301E0B0
:10482000DBF81C30AB6099F800301F2B09D88023CF
:104830000021284685F82B3003B0BDE8F04FFFF784
:104840003BBB2B68D3F810A0002719F8010B3E469C
:1048500048B140F2B51101F0C9FA002854D01F2820
:1048600001D92F2843D14A4613782F2B914602F1C4
:104870000102F9D05C2BF7D01F28CCBF0024042400
:10488000012F43D1BAF800302E2B45D100232AF84E
:10489000173005F120029F4294BF20212E210133C1
:1048A0000B2B02F8011BF6D144F0200485F82B40B5
:1048B0002846FFF795FC95F82B30002840F0B38090
:1048C0005A0700F1BE80AB79DB0640F1C180BBF82E
:1048D0000C102A69B2FBF1F301FB1323DBF83C1047
:1048E0009BF800001944FEF754FFA860A9E75C2874
:1048F000B9D07F2800F3AE80764A12F8013F002B32
:1049000000F0A8809842F8D106209AE0022F04D146
:10491000BAF802302E2BB5D03E460AEB47073EB11F
:1049200037F8023D202B01D02E2B01D1013EF6E7B6
:1049300000230AEB46022AF81630002EE4D03AF89B
:104940001310202901D10133F9E70BB92E2901D128
:1049500044F0030432F8021D2E2901D0013EF9D1A2
:1049600020210B2268184FF00008FEF7A1FE4746F1
:1049700008223AF81300591C0091002878D020280A
:1049800003D02E2805D1B1426BD044F00304009B24
:10499000EFE7904567D2009BB3420FD10B2A06D1B7
:1049A00063E0009BB34202D044F0030460D8BF0030
:1049B000FFB200960B224FF00808E8E77F280FDDD2
:1049C00040F2B511019201F0EFF910F0800F1CBF19
:1049D00000F07F00404B019A18BF185C44F00204BD
:1049E000FF2814DD531E984503D344F0030490467A
:1049F000CDE705EB0803011283F8201008F1010848
:104A000005EB080308F1010883F82000BFE730B187
:104A1000324911F8013F002B4BD09842F9D144F0B4
:104A200003045F20ECE704280BD113F0200F03F000
:104A3000040309D0002B3FF404AF802385F82B300A
:104A4000002003B0BDE8F08F002B08BF0520F8E779
:104A50000520F6E7FF2F3FF457AF2AF8170001377C
:104A6000F3E690459AD30B2A9BD144F003040B2222
:104A700095F82030E52B04BF052385F82030082A5F
:104A800004BFBF00FFB207F00C030C2B03D007F0EC
:104A90000303032B01D144F00204A6073FF506AF40
:104AA000F80748BF44F01004790748BF44F00804F1
:104AB000FCE6A0F141039BB2192B01D847F0020795
:104AC000A0F161039BB2192B9EBF203847F001076C
:104AD00080B295E7D7EA0400E8EA0400E0EA0400BF
:104AE0007FB5019004A8009140F8041D1446FEF71C
:104AF0000DFE061E17DB0E4D55F8262022B10023B1
:104B00001370D06B01F0FCFC019B13B100221A70F2
:104B1000DA6345F8263044B1002201A96846FEF761
:104B200067FF04B070BD0B20FBE72046F9E700BF2C
:104B3000741200202DE9F04391B01746019105460B
:104B4000002800F0D58002F03F06324603A901A8F4
:104B5000FEF74EFF002840F0C980039B04934FF4FA
:104B6000007001F0CBFC8046002800F0C380039B5E
:104B70000199186104A8FFF73DFE044620B99DF98C
:104B80003B30002BB8BF062417F01C0F72D094B135
:104B9000042C03D104A8FFF7C9FB044646F008061D
:104BA0008CB1404601F0ACFC0CB100232B602046D8
:104BB00011B0BDE8F0839DF8163013F0110F63D1EA
:104BC000780700F18D80310732D5039B0B9C187854
:104BD0002146FEF7DEFD074601F071FC014604F1B7
:104BE0000E00FEF75DFD0B9B03982022DA720B99F5
:104BF0000022FEF7DCFD0B9B00221A775A779A778A
:104C0000DA77039B0121D97097B1394604A8D3F80C
:104C10003890FFF70AFA04460028C2D149460398A3
:104C2000FEF794FE039B013F5F6104460028B8D164
:104C3000039C0B9FA36B2B626F6220783107394670
:104C400048BF46F04006FEF7A4FD0146A86007F104
:104C50001C00FEF71DFDE388AB80B2064FF0000399
:104C60000746E8602C602E746B74EB616B610DD4A9
:104C7000002496E7002C94D19DF81630DA0631D442
:104C8000BC07D5D5D807D3D507248AE70028EFD0AD
:104C90006389A68968615E43BE421FD22868FFF718
:104CA0009FF80128014617D9431C5C425C41BF1B99
:104CB000002CF1D0A961002C7FF473AF0398838995
:104CC000B7FBF3F203FB1277002FD1D0FEF704FD00
:104CD00050B10244EA6164E70224E8E70024E9E70E
:104CE00008245EE704245CE702245AE704465CE7F4
:104CF00009245CE711245AE72DE9F74F9846002371
:104D00008946C8F8003001A905461446FEF71EFD85
:104D100000BB687CF0B92B7CDB0740F18780E8683A
:104D20006A69801A844228BF0446002C7CD001980E
:104D30006A698389B2FBF3F103FB1123002B53D182
:104D40004789013F0F4012D13AB9A868012809D814
:104D50000220687403B0BDE8F08FA9692868FFF7E6
:104D60003FF8F3E7421C01D10120F2E7A861DDF82A
:104D700004B0A9695846FEF7AFFC0028E8D0BBF89C
:104D80000C60B4FBF6F607EB000A5EB3BBF80A3022
:104D90009BF80100BA199A4288BFDE1B334652467F
:104DA000494601F0BDFB0028DED1019BDA785AB1FB
:104DB000986BA0EB0A00864206D99A8922B1D96B7A
:104DC00002FB0090FEF7DCFC019B9B895E43D8F858
:104DD00000303344C8F800306B69A41BB1441E4452
:104DE0006E61A2E7C5F81CA001986A698689B2FBCA
:104DF000F6F306FB1323F61AA642E96928BF2646F6
:104E0000FEF7A4FD0028AFD1002EE0D0019A68691A
:104E10009189B0FBF1F301FB1303D16B4846324695
:104E20001944FEF7ADFCD2E7204693E7072091E74F
:104E3000F7B501A90446FEF789FC054658BB237C5B
:104E40005B0628D501F03BFB216A07460198FEF777
:104E50007DFD0546F8B9666AF37A43F02003F372E4
:104E6000A26820683146FEF7A2FCE16806F11C004A
:104E7000FEF716FC394606F11600FEF711FC019804
:104E8000B5740123F574C370FEF717FD237C23F07E
:104E9000400305462374284603B0F0BD2DE9F04FCA
:104EA0009B4685B000238846CBF8003003A9044612
:104EB0009146FEF74BFC60BB607C50BB237C9B079C
:104EC00040F1BC80636913EB090F28BF6FEA030947
:104ED0000025B9F1000F00F0A7800398626983896B
:104EE000B2FBF3F103FB1123002B7AD14389013B81
:104EF0000B4001931AD17AB9A06830B90146204617
:104F0000FFF71FF8002800F08F80012806D102204B
:104F1000607405B0BDE8F08FA169F0E7421C01D1D3
:104F20000120F5E7A368A06103B9A0600398E369D5
:104F3000826B9A4203D1FEF745FC0028F0D1DDF8E0
:104F40000CA0A1695046FEF7C7FB0028DFD0019BEB
:104F5000BAF80C60B9FBF6F61F18002E35D0019A8E
:104F6000BAF80A309AF8010032449A4284BF019A92
:104F70009E1A33463A46414601F0F0FA0028CFD156
:104F8000039B996BC91B8E420AD99A8922B102FBF5
:104F90000181D86BFEF7F4FB039B4FF00002DA703F
:104FA000039B9B8901255E43DBF800303344CBF83B
:104FB00000306369A9EB0609B0441E44E3686661EA
:104FC000B3422CBFE360E66083E76269E3689A421C
:104FD00006D35046FEF7F6FB0028A1D1039B9F6342
:104FE000E761039862698689B2FBF6F306FB132337
:104FF000F61A4E45E16928BF4E46FEF7A7FC002889
:105000008ED166B1039A61699089B1FBF0F300FB20
:105010001313D06B414632461844FEF7B1FB039B95
:105020004FF00102DA70BFE7237C43F040032374A2
:1050300015B12046FFF7FCFE00206AE7072068E76D
:1050400013B50446FFF7F4FE28B901A92046FEF780
:105050007DFB00B9206002B010BDF7B50D4601A977
:105060000446FEF773FB0646002865D1667C002ED9
:1050700062D1E368AB4204D2227C12F0020F08BF77
:105080001D46002263696261C5B9284609E0002017
:10509000E36865699D4281BF237CE56043F040037E
:1050A0002374019B9A89B5FBF2F302FB1355002D83
:1050B00042D0E36998423FD0E0613DE0019A5189D6
:1050C00097894F4373B3013B6A1EB3FBF7F1B2FB01
:1050D000F7F28A4226D37A421340A1696361ED1A3E
:1050E0000029D4D0BD420DD963693B446361237C60
:1050F0009A07A5EB070529D52046FEF722FF0146B2
:1051000040BB0546636901982B4463618389B5FB05
:10511000F3F203FB1255002DB9D0FEF7DDFA48B1CA
:105120001044B5E7A16879B92046FEF70AFF0128C7
:10513000014604D102266674304603B0F0BD01304A
:1051400001D10126F7E7A160A161C9E72068FEF758
:1051500047FE01464B1CF4D00129EBD9019B1B6A89
:105160009942E7D2A161BDE77FB5054601910028CC
:105170003AD0002203A901A8FEF73AFC044660BB1E
:10518000039B2B604FF4007001F0B8F9064668B33A
:10519000039B019918612846FFF72CFB0446B0B920
:1051A00095F92B30002B08DBAB79DB060ED5039B82
:1051B000E9691878FEF7EDFAA860039BDB88AB80FD
:1051C00000212846FEF778FE044600E0052430461C
:1051D00001F096F9042C05D00CB100232B60204679
:1051E00004B070BD0524F8E70924F8E71124F6E7B8
:1051F00013B501A90446FEF7A9FA00B9206002B070
:1052000010BD2DE9F3410F4601A90546FEF79EFAB0
:10521000044628B947B901462846FEF74DFE044624
:10522000204602B0BDE8F0814FF4007001F066F94D
:105230000646C0B1019B18612846FFF747FA10F0F7
:10524000FB0804460BD139462846FFF7A1F9414631
:105250002846FEF73EFF042814BF044600243046CB
:1052600001F04EF9DCE71124DAE770B58EB00E4696
:105270000190002202A901A8FEF7BAFB0446C8B9B2
:105280004FF4007001F03AF90546C0B1029B019954
:10529000186102A8FFF7AEFA044640B99DF9333011
:1052A000002B0ADB1EB1314602A8FFF771F9284630
:1052B00001F026F920460EB070BD0624F7E7112450
:1052C000F8E72DE9F04385B088460190154603A91B
:1052D000002201A8FEF78CFB074640B9039C2C6016
:1052E000256AA369AA1E934205D8C8F8003038463B
:1052F00005B0BDE8F0832378012B19D102250646BD
:1053000029462046FEF76CFD431C3ED001283ED0C6
:1053100000B90136039B1B6A01359D42F0D3039B04
:10532000C8F800601A799E6142F001021A71DEE746
:10533000E16A0646044634B9039801F10109FEF713
:1053400005FB30BB4946DDF80C9099F80030D9F8E0
:105350003C00022B10D103195A78035D53EA022353
:1053600008BF01360234B9F80C30B4FBF3F2013D4A
:1053700003FB1244DFD1D2E72044FEF789F930F075
:10538000704308BF01360434EDE70127C7E7022761
:10539000C5E70746C3E773B501A90446FEF7D6F98A
:1053A0000546C0B9637C33BB237C9B0725D5666962
:1053B000E3689E420FD28EB92A46A1682046FEF7C6
:1053C00034FEA66005466369E360237C43F0400336
:1053D000237405B16574284602B070BDA1692068C8
:1053E000FEF7FEFC421C014603D0012807D102252E
:1053F000E9E70125E7E71D46EDE70725EBE7019B18
:105400001B6A9842DFD2A2692046FEF70EFE0546CF
:10541000D9E72DE9F0419CB00222019003A901A82F
:10542000FEF7E6FA044600BB039B04934FF40070BA
:1054300001F064F8064628B3039B0199186104A89B
:10544000FFF7D8F9044668B99DF83B309A0601D4B5
:105450001B0601D5062405E09DF8168018F0010F03
:1054600012D00724304601F04BF820461CB0BDE8AE
:10547000F0810246294604A8FEF7D7FD044600281D
:10548000F0D126E01124F0E7039F0B993878FEF75E
:1054900080F918F0100F054613D0FB699D42E0D04B
:1054A000214610A810971295FEF706FD0446002825
:1054B000D8D110A8FFF70AF904460028D1D0042853
:1054C000D0D104A8FEF764FE04460028CAD1002DFE
:1054D000CFD10398FEF7F1F90446C3E72DE9F04771
:1054E00090B00222019003A901A8FEF781FA0446B8
:1054F00000287AD1039B04934FF4007000F0FEFF64
:105500000646002800F08380039B0199186104A8D7
:10551000FFF770F90446002875D0042862D19DF881
:105520003B1011F0200170D104A8FEF70AFD039B87
:1055300059899A894A430792054600285BD0012D74
:1055400057D06A1C65D1012400F0B9FF8146002CB8
:1055500053D129460398FEF755F9044600284CD14B
:10556000039BDC6B0B22204620214FF02E0A4FF0CC
:105570001008FEF79DF804F1160084F800A084F8E6
:105580000B804946FEF78CF804F1200721462A4695
:105590000398FEF70CF9214638462022FEF7F0F872
:1055A000394684F821A0069A0398FEF700F9039B78
:1055B0000127DF700DEB0800FEF7B8FE0446E0B9E6
:1055C0000B9C494604F11600FEF76AF821462A466C
:1055D0000398FEF7ECF8039884F80B80C770FEF789
:1055E0006CF90446304600F08BFF204610B0BDE851
:1055F000F0870224A8E70724A6E70022294604A88A
:10560000FEF713FDEEE70824ECE70624EAE7112491
:10561000EBE71846FEF7D6F8044695E7F0B5A5B0D7
:10562000019024A840F8901DFEF770F8022203A90B
:1056300001A8FEF7DDF90446002870D1039B0C9306
:105640004FF4007000F05AFF0646002878D0039B04
:10565000019918610CA8FFF7CDF8044600285BD12A
:105660009DF85B3013F0A00F66D12022139904A897
:10567000FEF786F830220DEB020118A8FEF780F83D
:10568000009918A8FFF7B6F8044600284AD0042C61
:1056900042D118A8FEF74AFE044600283CD11F9CC0
:1056A00013220DF11D0104F10D00FEF769F89DF8BC
:1056B0001B30039DDA0658BF43F020030127E37235
:1056C000EF70E37ADB061ED51A9B0E9A9A421AD027
:1056D00021462878FEF75DF801462846FDF7FCFFD5
:1056E000014658B32846FEF731F90446A0B903989D
:1056F000C16B91F821302E2B05D11A9A2031FEF77B
:1057000056F8039BDF700CA8FEF742FD044618B95B
:105710000398FEF7D2F80446304600F0F1FE20462A
:1057200025B0F0BD0E9B1A9A9A4203D1109B1C9A89
:105730009A42AED00824EFE70624EDE70224EBE717
:105740001124ECE72DE9F04F95B014AC0D4644F868
:105750001C0D204616461F46FDF7D8FF0028C0F254
:105760000483AD4B53F820300BB100221A705FFA5E
:1057700080F9484600F0C8FEC30700F1F8824407EC
:1057800000F1F7820FAA0321484600F013FF00281A
:1057900040F0F3820F9B5A1EB2F5004F80F0ED826D
:1057A0001A4240F0EA820DF13A020221484600F026
:1057B00001FF18B1012015B0BDE8F08FBDF83A80A7
:1057C000A8F50073B3F5606FF4D808F1FF3313EA5E
:1057D000080FEFD136B1464501D21320EBE7B6F101
:1057E000807FFAD8731E3342F7D12FBB4FF40043AA
:1057F0000393039ABDF83A309A42C0F0BC82104637
:1058000000F07CFE0446002800F0BA82BDF83A3071
:10581000039AB2FBF3F30493049B002B00F0AB82DA
:1058200010AA0121484600F0C5FE70B1002FC1D179
:10583000204600F065FEBDE71E9BB3FBF8F3049322
:1058400003FB08F303933C46E6E715F00803DDF895
:1058500040C006930CBF4FF03F0A4FF0000AE245EC
:1058600005D917B9204600F04BFE0E20A3E7ACEB9C
:105870000A037F2B1093F4D9B6FBF8F2802A05D9DE
:10588000002FAAD1204600F03BFEA6E715F002014A
:10589000079105D005F00701022921D0E8071FD59F
:1058A000E907EDD54FF00208BDF83AE0190B0B916E
:1058B0000EF1FF310891590C0A910F99481E494287
:1058C00009900C91B8F1030F21D162B95349012617
:1058D00031F8020F40B10A9D854205D37600F7E703
:1058E0004FF00308E0E716460898B3FBF6F18D1C6D
:1058F00000EB8505A1F57F414948B5FBFEF5F6397A
:105900008142AED8002102914FF0200B2AE04AB923
:105910004449012631F8020F28B10B9D854202D37C
:105920007600F7E7164640F6F571B3FBF6F58D42C3
:105930009BBF05EB4505013502356D0808998CBF05
:105940006D0003350D4488BF4FF002084FF48041CD
:1059500098BF4FF00108B1FBFEF14FF0010B02912F
:10596000B5FBFEF50BEB0A0101910299681801994C
:10597000411805910598099901440C980140059832
:10598000B8F1030FA1EB000101BF019840188B444F
:10599000014605980CBF01916D18CAEB0611084429
:1059A0008342FFF45EAFA3EB0B010298491BB8F1F1
:1059B000030FA1EB0001B1FBF6F105910AD14FF6FF
:1059C000F570814238D8002A7FF44BAF760840F05A
:1059D000E18146E7B8F1020F26D105994FF6F5703F
:1059E00081420BD9002A40F0CE817600402E40F251
:1059F000D1810799002940F0CA8108E0059940F655
:105A0000F570814218D8002A7FF42BAF7600802EE3
:105A100040F2C08125E700BF741200208CEB040027
:105A2000FFFFFE0F7EEB0400059A40F6F5739A42E5
:105A30003FF617AF4FF001080CF1FF3311AA042114
:105A400048461293CDF844A000F0B4FDBDF83A20CA
:105A500000212046FDF72CFECF490B222046FDF702
:105A60008FFEBDF83A30E3721B122373109984F84D
:105A70000EB00123B8F1030F23744FF000034FEA77
:105A80002B2B637418BF0223B1F5803F667384F833
:105A90000FB0A37480F04181E17409122175F823DD
:105AA00063753F2323764FF0000BFF2384F819B072
:105AB000A37684F81BB0514604F11C00FDF7F0FDFD
:105AC000B8F1030F40F02E8100F0F9FC014604F11B
:105AD0004300FDF7E5FD294604F12400FDF7E0FD54
