:020000040002F8
:10F000003DB8F396000000000010000028F5010054
:10F0100000000000010203000000000000000000EA
:10F0200000000000000000000000000000000000E0
:10F0300000000000000000000000000000000000D0
:10F0400000000000000000000000000000000000C0
:10F0500000000000000000000000000000000000B0
:020000040003F7
:1000000000000420D1970300099803008102030037
:100010000D98030091020300990203000000000004
:10002000000000000000000000000000D57F030079
:1000300015980300000000006D8003007D80030020
:100040001B9803001B9803001B9803001B980300D8
:100050001B9803001B9803001B9803001B980300C8
:100060001B9803001B9803001B9803001B980300B8
:100070001B980300F5B403001B9803001B980300B2
:100080001B9803001B9803001B9803001B98030098
:100090001B9803001B9803001B9803001B98030088
:1000A0001B9803001B9803001B9803001B98030078
:1000B0001B9803001B9803000000000000000000D4
:1000C0001B9803001B9803001B9803001B98030058
:1000D0001B9803001B9803001B9803001B98030048
:1000E0001B9803001B9803001B98030000000000EE
:1000F000000000001B980300000000001B98030094
:1001000010B5054C237833B9044B13B10448AFF351
:1001100000800123237010BD403F0020000000003C
:100120002CE904000C4B43B10C480D4910B5AFF35A
:1001300000800C48036823B910BD0A48036833B92E
:100140007047094B002BF7D0BDE810401847064B0D
:10015000002BF5D0184700BF000000002CE9040078
:10016000443F0020403F002000000000154B002BC2
:1001700008BF134B9D46A3F5803A00218B460F46DE
:100180001348144A121A15F011F80F4B002B00D027
:1001900098470E4B002B00D0984700200021040008
:1001A0000D000D48002802D00C4807F013FA14F097
:1001B000EDFA2000290007F0ADFD07F008FA00BFB6
:1001C000000008000000042000000000717C030013
:1001D000403F0020C0910020D575030000000000C2
:1001E000F8B51E4F1E4D1F4E1C480CF0B3F997F981
:1001F0000040631C04D120221B491C4806F06CFE01
:100200002246B8B92F2C10D931464FF4E87002F0CD
:1002100035FE04F01F02294601239340C1F808353A
:100220004FF4FA7007F0D2FBDEE71F2CF1D84FF045
:10023000A041F1E72F2C0CD931464FF4E87002F0C1
:100240001DFE04F01F02294601239340C1F80C351E
:10025000E6E71F2CF5D84FF0A041F5E75C3F002002
:1002600000030050EBAB040098AB0400D3AB0400D8
:10027000024800230F21037006F0DFBB5C3F002023
:100280004FF0100300F00CB84FF0200300F008B856
:100290004FF0300300F004B84FF0400300F000B816
:1002A000EFF308804FF0040172460A4201D0EFF3E9
:1002B00009809C46244B196802680A600431426830
:1002C0000A60043182680A600431C2680A6004313D
:1002D000F0C147460F6004314F460F600431574666
:1002E0000F6004315F460F60043102690A60083113
:1002F00042690A60043182690A600431C2690A6095
:100300000431034620334FF40076324200D00433E8
:1003100075464FF01006354200D148330C46103C6C
:100320002360EFF309820A600431EFF308820A6068
:10033000043172460A600431EFF314820A606046A9
:10034000014900F079F8FEE744AC0400F0B52C4C0C
:100350002C4F85B00025264654F8252029463846DE
:10036000013506F06FFE0D2DF6D1A36C0293636C80
:100370000193236C009304F13401234C23480EC9EC
:1003800006F060FE2168224806F05CFEE16AA26A7F
:10039000A36AA06A256BE76B0297000C0195009099
:1003A000C3F30723D2B21B4806F04CFEA36A1D0616
:1003B00003D5616B184806F045FEA36A180403D5FF
:1003C000A16B164806F03EFEF36C190712D51448CF
:1003D00006F038FE336DDA070FD5124806F032FE0C
:1003E000F36C5B074CBF1048104805B0BDE8F04007
:1003F00006F028BE0E4806F025FE0E48EEE700BFC8
:1004000088320020D8AC040000ED00E0E6AC040027
:1004100035AD040043AD040092AD0400A0AD04006E
:10042000AEAD0400BDAD0400EDAD0400F9AD0400B7
:10043000DDAD0400CAAD040013B50446154806F04E
:1004400001FE302C17D0402C1AD0202C1DD1124880
:10045000124C06F0F7FD124806F0F4FDFFF776FFA8
:10046000104806F0EFFD00230F4A0093D26B0F49AE
:10047000204606F0B9FF0E480E4C06F0E3FDEAE711
:100480000D480E4C06F0DEFDE5E70D480D4C06F07C
:10049000D9FDE0E748AC040071AC04003E01FF80E8
:1004A0009EAC0400A9AC040088320020C8AC040053
:1004B00080AC04003F01FF8089AC04004001FF8054
:1004C00094AC04003D01FF80C36810B504460BB135
:1004D0009B689847204610BD38B50546064B45F841
:1004E000283B044600F09BF82846FFF7EDFF204626
:1004F00000F036F9204638BD54AE040010B504466D
:10050000FFF7EAFF204607F00DFA204610BD000075
:10051000F8B50546074655F8084B94B90D4E3068B6
:1005200018B14FF0FF3108F081FC3C682CB915B1CF
:10053000284607F0ABFA3D602C46306808B108F059
:100540008DFCAC4204D06C220349044806F0C4FC84
:100550002046F8BD7081002005AE040027AE0400DF
:1005600008B50A2007F0CAF9FF21431E00F109026D
:1005700003F8011F9342FBD1014B186008BD00BF77
:10058000603F002038B50D4610220021044614F0CB
:100590000DFEEB681BB15B68294620469847EB6867
:1005A000E360204638BD884238B504460D4606D083
:1005B000FFF78AFF1CB129462046FFF7E3FF2046DC
:1005C00038BD6FF01500704703681B691847036852
:1005D0009B69184703689B6A184700290CBF6FF096
:1005E000180000207047012070476FF01500704719
:1005F0006FF015007047704770B5D0E90823D0E957
:100600000245064612196B4100F09AF8736B2BB144
:1006100006F128001B68BDE87040184770BD1FB583
:10062000044606F029FD204600F094F8636B13B1F0
:1006300094F8383083B910220021684614F0B6FDD2
:10064000694604F12800FFF7AEFF6846FFF73CFF5C
:1006500006F028FD04B010BD07F088F9EBE70000B4
:1006600010B5034B03600446FFF736FF204610BD6C
:100670008CAE040010B50446FFF7F2FF204607F0E9
:1006800051F9204610BD000030B5044685B000F198
:10069000280510220021684614F088FD636B1BB109
:1006A0005B68294668469847636B03932046FFF7CB
:1006B000B6FF039B2BB940F23B220649064806F0E1
:1006C0000BFC1B68684698476846FFF7FDFE05B0BF
:1006D00030BD00BF60AE04007EAE040003689B68BE
:1006E00018470000094B10B5002203600023C0E941
:1006F0000223002303614361044606F0D5FB04494D
:10070000A06106F039FB204610BD00BFA0AE04007A
:10071000DD06030010B50446074B236000220023CA
:10072000C4E9022300230846A161236163610349F0
:1007300006F022FB204610BDA0AE0400DD0603003B
:1007400007B5009000F10801806906F054FB03B082
:100750005DF804FB00F10801806906F075BB00003C
:1007600010B5034B03600446FFF7F4FF204610BDAD
:10077000A0AE0400036801221B690021184703682A
:1007800000221B6911461847704703680BB10846E1
:100790001847704713B5044606F06EFC237F1BB163
:1007A00006F080FC02B010BD0123237706F07AFC2E
:1007B000A36804F10800002BF4D0044B002BF1D007
:1007C00002A9636941F8044D9847EBE789070300E4
:1007D00038B50C4A01600023044643608360C3605F
:1007E000036183614261037749B9074D2B6813B9EF
:1007F00003F010FD2860236855F82330636020461D
:1008000038BD00BF8B0703008C3F002070B560B976
:10081000104C25683DB9202007F05EF829460646B1
:10082000FFF7D6FF2660206870BD0B4C2378BFF31E
:100830005B8FDB0701D5094870BD204606F0D4FE6A
:100840000028F8D001210548FFF7C2FF204606F036
:10085000EFFEF0E7683F0020643F00206C3F00207F
:10086000704708B50846FFF7D1FFBDE80840FFF71D
:1008700091BF30B54FF47A7440F271256143B1FBFA
:10088000F5F189B2032983809DF80C30837198BFFC
:100890000423018098BF03800388B3F5804F88BF8D
:1008A0004FF4804304FB02F2B2FBF5F292B288BF30
:1008B0000380032A98BF0423428098BF4380438863
:1008C000B3F5804F84BF4FF48043438030BD10B5F3
:1008D00006220446002114F069FC0622002120466D
:1008E00014F064FC204610BD7EDF70477FDF704748
:1008F00080DF704781DF704784DF704785DF704796
:1009000086DF70479DDF704708281BD00BD804286E
:100910001ED002D800B10B207047062814D007283B
:10092000F9D104207047112810D003D80D2809D020
:100930001028F5E743F202039842F2D043F2050390
:100940009842E8D106207047022070470520704782
:1009500007207047836810B40C4623B12046114627
:100960005DF8044B18475DF8044B7047C36810B43A
:100970000C465BB1D1B2022904D0033901298CBFE6
:100980000121032120465DF8044B18475DF8044B14
:100990007047436910B40C4623B1204611465DF8F8
:1009A000044B18475DF8044B704770477047704719
:1009B00070477047704770477047704770470368CB
:1009C0000BB108461847704703680BB10846184733
:1009D0007047034610B107C983E8070070477047A6
:1009E000034610B107C983E8070070477047034604
:1009F00010B107C983E8070070477047034610B17C
:100A000007C983E8070070477047034610B107C95C
:100A100083E807007047704730B44468856803680E
:100A200014F0010F4FEA64041CBF2859C358281959
:100A300030BC184730B444688568036814F0010F6F
:100A40004FEA64041CBF2859C358281930BC184702
:100A500030B444688568036814F0010F4FEA6404F9
:100A60001CBF2859C358281930BC184730B44468F3
:100A70008568036814F0010F4FEA64041CBF28590D
:100A8000C358281930BC184710B4426884680368FA
:100A900012F0010F4FEA62021CBFA058C358A01801
:100AA0005DF8044B184710B5044606F03BFF20469E
:100AB00010BD38B50446006820B1056906F032FF64
:100AC0002846F9E7206038BD10B5044B044640F8CD
:100AD000043BFFF7EEFF204610BD00BF14AF04003B
:100AE00010B50446FFF7F0FF204606F01BFF204636
:100AF00010BD38B50446006820B1056906F012FF44
:100B00002846F9E7206038BD10B5044B044640F88C
:100B1000043BFFF7EEFF204610BD00BF24AF0400EA
:100B200010B50446FFF7F0FF204606F0FBFE204616
:100B300010BD000038B5064B03600446406820B184
:100B4000056906F0EFFE2846F9E7204638BD00BFEC
:100B5000B4AE040010B50446FFF7ECFF204606F0E3
:100B6000E1FE204610BD000038B5064B0360044688
:100B7000406820B1056906F0D5FE2846F9E7204611
:100B800038BD00BF04AF040010B50446FFF7ECFF0A
:100B9000204606F0C7FE204610BD000038B5064BC3
:100BA00003600446406820B1056906F0BBFE284694
:100BB000F9E7204638BD00BF34AF040010B5044645
:100BC000FFF7ECFF204606F0ADFE204610BD00000A
:100BD00038B5064B03600446406820B1056906F04D
:100BE000A1FE2846F9E7204638BD00BF44AF040007
:100BF00010B50446FFF7ECFF204606F093FE2046B2
:100C000010BD000038B5064B03600446406820B1B3
:100C1000056906F087FE2846F9E7204638BD00BF83
:100C200054AF040010B50446FFF7ECFF204606F071
:100C300079FE204610BD0000084BF0B5421D451E50
:100C40000A26B1FBF3F404F1300702F80179AA4255
:100C500003FB141193FBF6F3F3D1F0BDA086010062
:100C600030B5421E431D012100200A2512F8014F14
:100C7000303C934201FB040005FB01F1F6D130BD8D
:100C800038B5062204460D46002114F08FFA0622DC
:100C90002946204614F08CF9204638BD037819B156
:100CA00043F004030370704723F00403FAE738B5F8
:100CB00004469DF8105081B9217021787AB141F035
:100CC0000201217020461946FFF7E8FF23784DB155
:100CD00043F008032370204638BD0121ECE721F0E2
:100CE0000201EEE723F00803F4E710B59DF8084091
:100CF00081B9017001787AB141F004010170027884
:100D00006BB142F00802027003785CB143F010034B
:100D1000037010BD0121ECE721F00401EEE722F0A1
:100D20000802F0E723F01003F2E74B1E073113F837
:100D3000012F2AB98B42FAD1003018BF0120704729
:100D40000120704710B50446406B10B103685B6822
:100D500098472046FFF7EEFE204610BD704708B5C5
:100D6000C06803684FF000025B69984708BDF0B5A2
:100D700000234FF0140E0EFB03F2851895F89F70B8
:100D8000FE073C4608D444F00103903285F89F30BA
:100D90001044C5F89010F0BD0133052BEBD10020B5
:100DA000F0BD70B50023142505FB03F2841894F8F8
:100DB0009F60F60706D5D4F890408C4202D190325D
:100DC000104470BD0133052BEED1002070BD10B56D
:100DD0001446FFF7E6FF40B1037C64F3410303745C
:100DE0001CB9DBB264F34513037410BD70B505463E
:100DF00000220C46FFF7EBFFE86803682146DB683A
:100E00000122BDE870401847F7B504461746012295
:100E10000E46FFF7DCFFE4682368394668469D69A3
:100E2000FFF70AFF6A4631462046A84703B0F0BDE7
:100E300070B50646154601220C46FFF7C8FFF0685C
:100E400003682A4621465B6ABDE87040184770B5C2
:100E5000054601220C46FFF7BAFFE8680368214601
:100E60001B6ABDE87040184770B5054601220C4664
:100E7000FFF7ADFFE86803682146DB69BDE8704015
:100E800018470000436B70B5054616462BB940F273
:100E90000D621349134806F01FF8FFF782FF04465E
:100EA000E0B1686B616803689B689847B0B1227CC9
:100EB000C3796168C2F3400262F3861363F07F0373
:100EC000C371686B036832469B6A9847686B6168B8
:100ED000036832469B69BDE87040184770BD00BF8B
:100EE00098AF0400E1AF0400436B70B505461646A9
:100EF0002BB940F224620F490F4805F0EDFFFFF7D0
:100F000050FF0446A0B1686B616803689B6898470E
:100F100070B1237CC2796168C3F3400363F3861226
:100F2000C271686B036832469B6ABDE8704018471F
:100F300070BD00BF98AF0400E1AF040070B51E465D
:100F4000436B044615462BB940F23A6209490A48F8
:100F500005F0C2FFFFF725FF014648B1606B496805
:100F60000368DC6A2A463346A446BDE87040604701
:100F700070BD00BF98AF0400E1AF0400436B70B5D3
:100F8000054616462BB94FF4C9620B490B4805F0CC
:100F9000A3FFFFF706FF044668B1686B616803684A
:100FA0009B68984738B1686B6168036832469B69F3
:100FB000BDE87040184770BD98AF0400E1AF040071
:100FC00070B51E46436B044615462BB940F25C6271
:100FD00009490A4805F080FFFFF7E3FE014648B1E2
:100FE000606B49680368DC692A463346A446BDE85D
:100FF0007040604770BD00BF98AF0400E1AF0400CF
:10100000436B70B5054616462BB940F26A620B4930
:101010000B4805F061FFFFF7C4FE044668B1686B3A
:10102000616803689B68984738B1686B61680368BA
:1010300032461B6BBDE87040184770BD98AF040086
:10104000E1AF0400436B2DE9F041054688461746A1
:101050002BB94FF4D2621549154805F03DFFFFF753
:10106000A0FE0646F8B1686B716803689B689847F4
:101070000446C0B1337CC2797168C3F3400363F3A3
:101080004512C271686B03683A461B6C9847E86862
:10109000E3790268546B41463A46A446C3F34013D1
:1010A000BDE8F0416047BDE8F08100BF98AF0400A3
:1010B000E1AF040070B51E46436B054614462BB9DC
:1010C00040F27E620A490B4805F006FFFFF769FE11
:1010D000014660B1686B49680368E2B25C6BB2FAC2
:1010E00082F23346A4465209BDE87040604770BDA5
:1010F00098AF0400E1AF040070B505461646002223
:101100000C46FFF764FEE868036866F07F0221463C
:10111000DB68D2B2984721462846FFF742FE58B115
:10112000C37B03F01803182B06D1E86803684FF05F
:1011300000025B692146984770BD00002DE9FF4120
:10114000436B04460F462BB940F20152144915482F
:1011500005F0C2FEFFF725FE0646C0B1656B2B68A1
:10116000102200216846D3F8388014F01FF80E4B87
:101170000093002301930D4B039302947268694618
:101180002846C047039B13B19B6868469847E068B0
:1011900003680022DB683946984704B0BDE8F08157
:1011A00098AF0400E1AF04008D12030074AF040097
:1011B00070B50023142505FB03F2841894F89F6092
:1011C000F60706D5D4F894408C4202D190321044F0
:1011D00070BD0133052BEED1002070BD38B504463B
:1011E0000025056045600830FFF771FBE37B03F0E5
:1011F000800365F3C713E373237C03F0C00365F337
:1012000087132374204638BD30B587B00C4601A83B
:10121000FFF7E4FF05AD01AA2346144603CCAC4218
:1012200018605960224603F10803F6D122781A703B
:1012300007B030BDF8B50546D0F8800007280F4646
:101240001E4611461CD8172444432A1992F89400CC
:1012500067F3470082F8940004F1950006222844C1
:1012600013F0A6FE04F1840010223146284413F046
:101270009FFED5F880300133C5F880300020F8BDDE
:101280000620F8BD08B5FFF7D5FF08BD08B5134621
:101290003AB1917D806AC943063301F00101FFF73D
:1012A000F1FF08BDD1F88020843180E80600704746
:1012B00007B50023D2B200938DF80430C2F380004A
:1012C00002F0010360F34103C2F3C00060F3820344
:1012D000C2F3001262F3C30388B269468DF800308E
:1012E000FFF702FB03B05DF804EBFFF70DBB38B569
:1012F000436B04460D4693B1FFF753FD68B1037C81
:1013000094F88A20A06ADB074CBF42F0040202F086
:10131000FB022946FFF7CCFF38BD042038BD092069
:1013200038BDF0B589B00C460E9F9DF83C5019466B
:1013300016460DF10200082213F03AFE3946022249
:10134000684613F035FE3146102203A813F030FE34
:101350009DF81C3003F0FE0365F34103102262F395
:101360008703694603AAA0B28DF81C30FFF7C6FABE
:1013700009B0BDE8F040FFF7C7BA13B59DF81440B7
:101380000194049C0094FFF7CCFF02B010BD30B56F
:1013900089B00C461146002200920192ADF8082057
:1013A00003A810221D4613F003FE9DF81C2042F0F6
:1013B000010265F341021346102262F38703694676
:1013C00003AAA0B28DF81C30FFF798FA09B0BDE867
:1013D0003040FFF799BA08B5FFF7D9FF08BD000004
:1013E000436B73B5054614462BB940F2C632154916
:1013F000154805F071FDFFF7DBFE064698B1686BF6
:10140000716803689B68984768B164B1C37913F049
:10141000800F4FEA931303F0010306D02246316890
:10142000A86AFFF7D8FF02B070BD019304F1100362
:101430000093224604F112033168A86AFFF79DFF6A
:10144000F1E700BF98AF0400E1AF040070B586B0CB
:101450000C4601A8114610221D469DF8286013F085
:10146000A7FD9DF8142066F3000265F341021346C0
:10147000102262F387038DF8143000231A4601A965
:10148000A0B2FFF73DFA06B0BDE87040FFF73CBAE6
:1014900013B59DF810400094FFF7D8FF02B010BDBF
:1014A00008B5002388B21A461946FFF729FABDE8A5
:1014B0000840FFF729BA08B5FFF7F2FF08BD0000A2
:1014C000436B73B5044616462BB940F2DF32104920
:1014D000104805F001FDFFF76BFE054680B1606B1B
:1014E000696803689B68984750B15EB1C379A06A88
:1014F000DA090092C3F3801332462968FFF7C8FF68
:1015000002B070BD2968A06AFFF7D5FFF8E700BFF9
:1015100098AF0400E1AF04000220704713B5049CAB
:101520000094FFF7F9FF02B010BD73B506461546EB
:10153000FFF73EFE044680B17DB1706B61680368C1
:101540009B68984748B1C3792A690092C3F3401356
:101550002A462168B06AFFF7E1FF02B070BD0220A1
:10156000704708B5FFF7FBFF08BD0000436B70B57F
:1015700004460E462BB940F281420B490B4805F058
:10158000ABFCFFF70EFC054660B13146A06AFFF7E1
:10159000E8FF606B696803681B6E98472946204620
:1015A000FFF732FE70BD00BF98AF0400E1AF04004A
:1015B00008B588B20221FFF79BF9BDE80840FFF7A4
:1015C000A3B908B5FFF7F4FF08BDF0B5DFB20378A3
:1015D0009DF818609DF81450C7F3800E67F3000360
:1015E0006EF34103C7F3C00E6EF38203C7F3001717
:1015F00067F3C3030F7E67F3061362F3C713037029
:101600004B7E43708B7E8370C378C6F3400266F3D3
:10161000000362F34103C6F3800262F38203C6F360
:10162000C00666F3C303C3700379C5F3400265F3D4
:10163000000362F34103C5F3800262F38203C5F342
:10164000C00565F3C3030371F0BDF8B51446054644
:10165000637204F10C03036004F12803436004F196
:1016600090032B6104F1AC036B6104F1C3039DF89B
:101670001820AB6104F13F0004F14F0704F1D303DC
:101680000E46A272A860EF60EB6118B1102204311F
:1016900013F08EFC2022B118384613F089FC20226A
:1016A00006F1400104F16F0013F082FC2846F8BDFA
:1016B00038B50A4905464FF48A7006F031F90446F8
:1016C00050B14FF48A72002113F070FD0023637251
:1016D000A372EB692360EC61204638BD80E604000C
:1016E000C3698B4205D11A68C261184606F01AB95F
:1016F00013461A682AB19142FAD10A681A6008465C
:10170000F4E770472DE9FF470746884691469A4619
:101710009DF830509DF83460FFF7CAFF044600B3CF
:10172000002325F00C0526F00C0603724A468DF8BE
:1017300000505346394602A88DF80460FFF745FF74
:1017400002A91FFA88F0FFF7CFF8054618B1214625
:101750003846FFF7C5FF284604B0BDE8F047FFF75D
:10176000D3B8072004B0BDE8F087C06920B1436852
:101770008B4201D00068F9E7704737B50C46154633
:10178000FFF7F3FFF8B902F043FD0368DB69984700
:101790000DF10702214601F086FF0346C8B99DF806
:1017A0000720012AA0B20AD165F07F011A46C9B20A
:1017B000FFF79CF803B0BDE83040FFF7A5B8194625
:1017C000FFF792F8F6E700221146A0B2FFF790F873
:1017D000F0E7042003B030BD08B5FFF7CEFF08BD29
:1017E0002DE9F0478CB00446884691469A469DF80C
:1017F00050609DF85470FFF75BFF054650B326F02C
:101800000C06012327F00C0703724A468DF800608E
:101810005346214602A88DF80470FFF7D6FE3346E2
:101820002A46214604A88DF80070FFF70EFF04AB8E
:1018300002AA00211FFA88F0FFF758F8064618B1EF
:1018400029462046FFF74CFF30460CB0BDE8F04774
:10185000FFF75AB84FF0080241462046FFF7BCFF99
:1018600007200CB0BDE8F08708B5436B2BB14FF0F3
:101870000802806AFFF781FF08BD092008BD10B586
:101880000446E16919B12046FFF72AFFF9E710BDC8
:1018900008B5FFF7F4FF002008BD08B5FFF7F8FF13
:1018A00008BD10B50446FFF7F8FF204610BD08B587
:1018B000FFF7DAFF08BD006810B103681B6818471E
:1018C0007047006D20B183688B4201D0C068F9E792
:1018D000704710B50446FFF7F4FF28B103682146AE
:1018E000DB68BDE81040184710BD70B504461546CA
:1018F000FFF7E7FF30B103682A4621469B68BDE841
:101900007040184770BD38B500250446294640F898
:10191000045B102213F04AFC1022294604F1140043
:1019200013F044FC6562A562E5622563204638BD7C
:1019300010B50B4C2378BFF35B8FDB070ED420462A
:1019400005F052FE50B10748FFF7DDFF204605F0D5
:101950006FFE054A0549034805F037FE014810BDF2
:10196000903F0020943F0020883300205D23030037
:1019700010B500F1240200F1340352F8040B10B149
:1019800044688C4202D09A42F7D1002010BD10B5B5
:1019900000F12402002352F8044B8C4206D1083394
:1019A00000EB830300225A60012010BD0133042B99
:1019B000F1D1002010BD10B50C468988FFF7D8FF83
:1019C00028B1036821469B68BDE81040184710BD48
:1019D00038B50446E36A2363206B38B1C3682146F7
:1019E0009847236B002BF5D01B69F4E7E06A20B120
:1019F000056905F097FF2846F9E7E06204F1080061
:101A0000FFF777F804F11400FFF753F8206A20B1CC
:101A1000056905F087FF2846F9E7206238BD10B553
:101A20000446FFF7D5FF012384F85430206D20B120
:101A3000036821461B699847F8E784F8540010BDF5
:101A400008B5FFF7ECFF08BD074941600749016190
:101A50000749C16100220749026082604261026257
:101A60008162C262704700BF24AF040014AF04005B
:101A700044AF040054AF040038B5036A04460D4671
:101A800063B1084A32B938BDC36829469847636ACA
:101A90002BB9236A6362606A0028F5D138BD1B69DF
:101AA000F8E700BF890703007FB514460E460546D8
:101AB00010220021684613F079FB237800961B2B37
:101AC00003D01D2B11D004B070BD6388ADF8043075
:101AD00001238DF80630A368ADF8083069466368C5
:101AE00003932846FFF7C8FFEDE76388ADF804309D
:101AF0000223EEE710B514781D2C09D80123A3406A
:101B0000054C1C402CB913F0205F01D0FFF7CCFF2F
:101B100010BDFFF7EAFE10BDAAAA8A0201F0E1BFDC
:101B200010B510220446002113F040FB204610BDE2
:101B300038B50025044640F8045BFFF7F1FF0323A6
:101B400023760723637620221023A3762946A01844
:101B50006561E56113F02AFB2946202204F140006B
:101B600013F024FB2022294604F1600013F01EFB31
:101B7000C4F88050204638BD10B50B4C2378BFF315
:101B80005B8FDB070ED4204605F02EFD50B10748D1
:101B9000FFF7CEFF204605F04BFD054A05490348F7
:101BA00005F013FD014810BDC83F0020CC3F0020C8
:101BB00088330020A318030008B5062213F0C8F9E3
:101BC000B0FA80F0400908BD38B5436B05462BB923
:101BD00040F226421849194805F07EF9FFF7E1F86E
:101BE000044688B1686B616803689B68984758B180
:101BF00095F88A301B0708D505F13E01FFF7DCFF99
:101C0000237C60F30413237438BD237C1A46C3F38A
:101C1000800363F30412743522742946FFF7CCFF66
:101C200030B9294604F10800FFF7C6FF0028EBD0C1
:101C3000237C43F01003E6E798AF0400E1AF040013
:101C4000F0B5436B85B004460F46002B50D0FFF72C
:101C5000A8F8054600284DD094F88D301BB994F8AB
:101C60008A301E0748D5002239462046FFF7AFF8D4
:101C700039462046FFF7A8FF2B7C94F88A60DB07E3
:101C800001D546F0040694F88B10C1F3C00343F06D
:101C900002038DF80830EB7B18064CBFC3F38011AC
:101CA000C1F3800102A8FEF7F9FF94F88E2094F8A2
:101CB0008B300AB18DF80830E97B8DF80C300A06BC
:101CC00004D5C1F3801103A8FEF7E8FF2A7C9DF834
:101CD00008309DF80C108DF804108DF80030A06AC3
:101CE0003346C2F300123946FFF70CFD05B0F0BDD4
:101CF0000920FBE70420F9E70620F7E708B5FFF71E
:101D00009FFF08BD2DE9F04105460E461746FFF737
:101D100048F8044640B3FBB2022B06D1C37B03F064
:101D2000E70343F02003E3730EE0DA1E012A05D82F
:101D3000C37B03F0E70343F02203F4E723B9E37B1B
:101D400003F01803082B07D0E86803683A463146C9
:101D50005B69BDE8F041184721682846FFF7CEFFD0
:101D6000E37B43F01003E373BDE8F081F0B5436B10
:101D700085B004460E46002B52D0FFF712F80546F8
:101D800000284FD031462046FFF71EFF2B7C94F8E9
:101D90008A7094F88E10DA07AA7B02F00F0248BF0F
:101DA00047F0040702F00403002936D094F88B10A2
:101DB0000A408DF808205BB1E97B0B0656BF94F80A
:101DC0008B10C1F38011C1F3800102A8FEF766FFFA
:101DD00094F88B10AB7B01EA131358078DF80C3085
:101DE00009D5EB7B1A064CBFC3F38011C1F3800108
:101DF00003A8FEF753FF2A7C9DF808309DF80C10CD
:101E00008DF804108DF80030A06A3B46C2F3001232
:101E10003146FFF7E5FC05B0F0BD02F00A02C8E765
:101E20000920F8E70420F6E708B5FFF79FFF08BD93
:101E30002DE9F04190F88D209DF818609DF81C70F8
:101E400004460D460AB91B0720D529462046FEF751
:101E5000A8FF08B9BDE8F081837B66F3030367F34D
:101E600007138373037C6FF34103037494F88C307E
:101E700033B1E068036829469B68BDE8F041184724
:101E800029462046FFF7D0FFBDE8F081FFF70FFDA0
:101E9000BDE8F081436B2DE9F04104460F462BB9B4
:101EA00040F2DD522049214805F016F8FEF779FF8F
:101EB0000546A8B1606B696803689B6898478046CF
:101EC00070B104F174063146FFF776FEA0B93146D1
:101ED00005F10800FFF770FE70B92B7C9A0601D55A
:101EE000BDE8F08143F020032B74E06803683946B5
:101EF0009B6ABDE8F0411847012239462046FEF7AB
:101F000066FF394604F17A02A06AFFF75AFB3146B0
:101F10004046FFF751FE0028E2D03046062200215D
:101F2000BDE8F04113F042B998AF0400E1AF0400FE
:101F30000022426082600261014A0160C260704713
:101F4000C909030038B5104B8360104B4361104B37
:101F5000036200250F4BC36204460560057145719D
:101F6000C56085614562056329463830FFF7E0FFAB
:101F7000294604F14C00FFF7DBFF294604F160001D
:101F8000FFF7D6FF204638BD04AF040014AF0400AD
:101F900024AF040034AF040010B503460C4607C953
:101FA00083E80700E268DA6000221A61184610BD73
:101FB00070B5044686B0236B6363606B38B1C36849
:101FC00021469847636B002BF5D01B69F4E7206B23
:101FD00020B1056905F0A6FC2846F9E7E56820630D
:101FE000207160712DB12E69284605F09BFC3546A5
:101FF000F8E704F11800E560FEF75BFD04F124004A
:10200000FEF777FD294601A8FFF792FF01A904F129
:102010003800FFF7C1FF294601A8FFF789FF01A992
:1020200004F14C00FFF7B8FF294601A8FFF780FF35
:1020300001A904F16000FFF7AFFF284606B070BDAC
:10204000C36810B504460BB19B689847204610BD85
:10205000C36810B504460BB19B689847204610BD75
:1020600008B5102212F074FF003018BF012008BD1F
:102070002DE9F04198B005460E466846144698464C
:102080001E9FFFF74DFD31462846FFF76EFBA8B3B4
:1020900069462046FFF7E4FF054628B11022214695
:1020A0000DF1170012F084FF69464046FFF7D8FF94
:1020B00060B90024B0B2EDB92946ECB92246FEF76A
:1020C0001BFC18B0BDE8F041FEF71EBC694638465F
:1020D000FFF7C6FF04460028EBD0414610220DF161
:1020E0003F0012F065FF102239460DF14F0012F04B
:1020F0005FFFDFE704A9E0E70EAAE0E7062018B0DB
:10210000BDE8F08113B5049C0094FFF7B1FF02B065
:1021100010BD73B5012204460D46FEF758FE294650
:102120002046FEF73EFE28B3636B41681A681846E6
:1021300092689047F0B104F13E063146FFF73CFD4E
:1021400090B104F15403009304F16402294604F1B0
:102150004403A06AFFF7D6FF06220021304602B0F2
:10216000BDE8704013F022B84FF002022946A06A81
:10217000FFF732FB02B070BD10B51022044612F01A
:1021800017FF204610BDC36810B504460BB19B680D
:102190009847204610BDC36810B504460BB19B6834
:1021A0009847204610BD00002DE9FF410446002558
:1021B0008846FFF749FC2E4B6364C4F83480A5635E
:1021C000E5632564A564E564256584F85450102210
:1021D0002946684612F0EAFF264B02946E4608F143
:1021E00004078DE82800B742234B039311D03846EB
:1021F000FFF7C9FF6FB110222946384612F0D6FF0B
:10220000039B1BB15B68694638469847039BC8F837
:1022100010303046FFF7B7FF676B102200213046C1
:1022200012F0C4FF07F11405144B00934FF000089F
:10223000134BCDF80480B5420294039310D0284686
:10224000FFF7A9FF65B110224146284612F0AEFF04
:10225000039B1BB15B68314628469847039B3B6252
:102260003046FFF798FF204604B0BDE8F08100BF7C
:10227000BF090300F51A030068AF0400D318030078
:102280005CAF0400036913B11B6804301847704742
:1022900030B50A7B8C88012A85B005460B4603D0F1
:1022A000022A10D005B030BDDA894989ADF8061090
:1022B0001B25103303928DF80450029301AA214686
:1022C000FFF7E0FFEEE749892046FEF71BFB1D20E4
:1022D0005989DA898DF804001033ADF8061003929D
:1022E000029301AA21462846EAE770B504460D4646
:1022F000FFF71EFB2146FFF74AFBFFF719FB2A46B3
:102300006168FFF7BFFF2CB1236820465B68BDE81A
:102310007040184770BD07B5037A8DF8013000236F
:102320000122ADF8023069460E238DF800208DF8A9
:102330000430FFF7DAFF03B05DF804FB70B500F17D
:10234000240400F134050026206810B1FFF7E3FFF4
:1023500026600434AC42F7D1002070BD10B50446AD
:10236000FFF7ECFF04F11400FFF715FF201DFFF746
:102370000AFF204610BD10B50446FFF7D9FA2146E2
:10238000FFF7F6FA08B1FFF7C6FF10BD70B58D88EC
:1023900029460446FFF7ECFA08B1FFF7BCFF236AB1
:1023A00033B1294604F114001B68BDE8704018479A
:1023B00070BD0388303B10B504460B2B18D8DFE8FE
:1023C00003F00606060606060606060C1712FFF7B9
:1023D000AFFA2146FFF7EFFA10BDFFF7A9FA214641
:1023E000FFF756FF10BDFFF7A3FA2146FFF7CEFF18
:1023F00010BD0000F7B50D4602A901E90C00044626
:1024000010220021009F019E12F0D0FE14B127601F
:102410006660A560024BE360204603B0F0BD00BFDC
:102420008CAF04002DE9F0431E46436B87B007468E
:1024300090462BB94FF48B623649374804F04CFD77
:10244000FEF795FC054600285FD002AC10992046A7
:10245000FEF716FC94E80300A860A8F10200D0F192
:102460000008EB7BA98148EB000868F38203EB735B
:10247000D7F834800E99D8F800302046D3F8589019
:10248000FEF7FEFB314622464046C84701466860DB
:10249000786B0268926890470E9980462046FEF756
:1024A000EFFB0298C8F80000A388A8F80430F6B241
:1024B00076B3B11E4E424E4198F8073066F30003E2
:1024C00088F80730EB7B1A0656BF97F88B30C3F3BA
:1024D0008013C3F38003C3B198F807309B0714D56A
:1024E0007E6B3368D3F820800C4B0093002301935C
:1024F0009DE80C0039462046FFF77CFF30466A68AD
:102500002146C0472046FFF79BFD07B0BDE8F0839A
:102510000126D1E798AF0400E1AF04002B150300BA
:1025200038B504460D466368A360A06838B1C36837
:1025300029469847A368002BF5D01B69F4E738BDFE
:10254000C368184708B503460846042811460AD050
:1025500005280FD0032816D103F138009B6B93B1E7
:10256000094B73B908BD03F14C00DB6C5BB1064B42
:102570003BB908BD03F160001B6E23B1024B03B9E8
:1025800008BDFFF7DDFF08BD8907030038B510223D
:1025900004460D46002112F009FE1CB195E8070023
:1025A00084E80700014BE36038BD00BF80AF040042
:1025B0002DE9F041436B88B005460C46002B34D022
:1025C000FEF7EFFB064618B9042008B0BDE8F0811D
:1025D000686B716803689B6898470028F4D0F37BA8
:1025E0005A071DD5C3795B0715D56F6B3B680395FB
:1025F000D3F824800E4B0193002401A904A802946F
:10260000FFF7C4FF726804A93846C04704A8FFF763
:102610001FFD2046D9E721462846FFF76FFBD4E788
:1026200021462846FEF763FECFE70920CDE700BF2D
:10263000E1130300436B70B505460E464BB3FEF73E
:10264000B0FB044608B9042070BD686B616803687C
:102650009B6898470028F6D0C37913F0400FE37BBE
:1026600009D09A0717D443F00803E373314628468C
:10267000FFF79EFF70BD227C5B0742F001022274CF
:102680003146284602D5FFF739FB70BDFEF72FFE15
:1026900070BD092070BD002070BD08B5FFF7CAFFEE
:1026A00008BD0000F8B5436B05460E46D7B22BB9FE
:1026B00040F24B5219491A4804F00EFCFEF771FB28
:1026C000044648B3686B616803689B68984718B311
:1026D00017F0080308D090F90730002BAABF95F82F
:1026E0008A300023C3F3C003790702D5C2795206AA
:1026F0000DD523B131462846FFF700FBF8BDE37B3B
:102700001B0709D431462846FFF752FFF8BD237C4A
:1027100043F001032374EDE7F8BD00BF98AF040058
:10272000E1AF0400F0B5436B89B004462BB94FF418
:10273000DB620E490E4804F0CFFBFEF732FB064683
:1027400090B1656B2B6803945F690A4B019301A9F3
:10275000002304A80293FFF719FF2846726804A912
:10276000B84704A8FFF774FC09B0F0BD98AF0400A7
:10277000E1AF0400C11403002DE9F0439946436B17
:102780008BB0044690462BB940F2AB621349144813
:1027900004F0A2FBFEF705FB0546D8B1606B696843
:1027A00003689B689847A8B1666B336805941F69F6
:1027B0000C4B039303A9002306A80493FFF7E6FE3E
:1027C000CDF80090304643466A6806A9B84706A887
:1027D000FFF73EFC0BB0BDE8F08300BF98AF0400EC
:1027E000E1AF0400C11403002DE9F0478EB080462C
:1027F0000C46FFF7C1F981460668002C00F099806D
:10280000002E00F0E081A5882946FEF7AEFF238860
:10281000133B07460B2B00F2D681DFE813F00C00C8
:102820006F009300AD00B300C200ED00A301B8013A
:10283000D401D401C001217BC1F3C003C1F3400224
:10284000009304A8C1F3800301F00101FEF72FFA01
:10285000E17AC1F3C0030093C1F34002C1F38003E6
:1028600005A801F00101FEF722FA4FB397F808908E
:10287000B9F1000F24D19DF814209DF8103022F0FA
:102880000C0223F00C038DF814208DF80020414633
:102890003A4606A88DF81030FEF7D7FE06AB4A463A
:1028A00049462846FEF722F830B339464046FEF73F
:1028B00017FF4FF0080229463046FEF71DFC1BE0CB
:1028C000247AC4F3C0030093C4F34002C4F380032A
:1028D00004F0010106A8FEF708FA9DF810209DF803
:1028E00014108DF804108DF800209DF81830E209BE
:1028F00029463046FFF79CFA01241AE004F112073A
:10290000208A3946FEF711FA04F108080446A0B1FE
:10291000022208F1080105A812F04AFB08223946F4
:1029200006A812F045FB06AB05AA29463046FFF77C
:1029300023FF20460EB0BDE8F08729463046FFF75A
:10294000F1FED9E7A37B13F0010F04F1080007D1D2
:10295000FEF786F9294602463046FEF755FACBE7E0
:10296000FEF77EF9294602463046FEF74DFA294623
:102970003046FEF779FABFE7227A29463046FEF75D
:1029800057FAB9E7247A012C06D0022CB4D1294693
:102990003046FFF77FFAAFE729463046FEF757FA91
:1029A000C7E74FF4407004F097FF074600F088FA3D
:1029B000A36803932033049308F160030DF1180812
:1029C0000593CDF8008005AB04AA03A9384600F0B2
:1029D000DAFA2FB1384600F08DFA384604F0A2FF3B
:1029E00041462846FDF786FF237BD80784D5294634
:1029F0003046FFF78EFB7FE794F80880B8F1010FAF
:102A000000F09C800DD3A8F18108B8F10D0F00F201
:102A1000A48001464846FEF763FE227A02F00F02C8
:102A200049E7027A447A837A002A7AD1A2461C4680
:102A300007F120084146F88BFEF777F9002872D09D
:102A40001AF0010F1AD007F10C0106A8FFF794FB4A
:102A500006AA29463046FEF791FA022207F11E0126
:102A600005A812F0A5FA0822414606A812F0A0FA1D
:102A700006AB05AA29463046FEF7A2FAE1071BD5A8
:102A800007F1900106A8FFF777FB06AA2946304612
:102A9000FEF72AFA022207F1A20105A812F088FA2D
:102AA000082207F1A40106A812F082FA06AB05AAD3
:102AB00029463046FEF742FAA2071DD507F1AC01C0
:102AC00006A8FFF759FB06AA29463046FEF798FAF2
:102AD00097F8BC3013F0FE0F14BF4FF001084FF011
:102AE000000807F1BD0106A8FEF7CAF806AB42468A
:102AF00029463046FEF7DEFA630709D507F1C30120
:102B000006A8FFF739FB06AA29463046FEF79AFACF
:102B100039464846FEF7E4FD29463046FEF70EFBEF
:102B2000EAE69A4684E707F10C0106A8FFF724FBC2
:102B300006AA29463046FEF7A5F9BDE720B9294681
:102B40003046FEF70CF9D7E601464846FEF7C8FDC9
:102B500029463046FEF74AF9CEE601464846FEF7DA
:102B6000BFFDC9E6237A03F00F04012C08D11F2B07
:102B700006D94FF0020229463046FFF7C3F8D8E6DF
:102B80004FF0000229463046FFF7BCF8B4E6237A3E
:102B9000042B18D129463046FEF7E0F8ACE6217A3E
:102BA000C1F3C0030093C1F34002C1F3800306A840
:102BB00001F00101FEF799F89DF8182029463046EA
:102BC000FFF770FD98E60024B3E675DF704790DFED
:102BD0007047ADDF704769DF70472DE9F743044662
:102BE000FFF7E7FB002001F013FB03680646DB69F3
:102BF0009847336805465B6A304698470746FEF7B4
:102C0000BBFF23881F2B804600F0918018D8112B22
:102C100057D00AD8102B4DD021464046FFF7E4FD8F
:102C20002146384600F084FF22E01B2B00F085800F
:102C30001D2BF1D104F10801284600F0F8FCEBE768
:102C4000232B56D017D8212B4CD0222BE4D1237A1A
:102C5000A0881B2B28BF1B23002269460192ADF8D8
:102C60000030ADF80230FFF7B2FF80B20028D3D0B9
:102C700003B0BDE8F0833A2B45D0552BCCD11721BA
:102C8000A088FFF7A6FF80B20028F1D12B68002BA7
:102C9000C2D03368A5885B6A304698470068002830
:102CA000BAD0E2880368172A1B68A8BF17222946F2
:102CB0009847B1E704F10802A188284600F0E2FD38
:102CC000AAE7A6884FF6FF71284600F08BFC94F81F
:102CD00008903046FFF74FFB4A463146284600F041
:102CE0002FFD99E704F10802A188284600F06CFD49
:102CF00092E7286800288FD0036822895D6BA1883D
:102D00006389A84788E72B68002B85D03368A5889E
:102D1000DB6A30469847006800283FF47DAF62893F
:102D2000172AA8BF17222946FEF7C5FD74E704F14C
:102D30000801A088FFF749FF6EE7217A284600F0D6
:102D400045FA69E7084B1A7810B502F0FF044AB952
:102D5000012220461A7001F05BFA2146BDE81040BE
:102D6000FDF77FBD10BD00BF084100202DE9FF41E8
:102D70004149162006F052FD07F0C2FD84B2F4B9B5
:102D800004AE46F8104D304607F060FE84B2B4B988
:102D90000C222146042701A812F008FA01254FF061
:102DA0000308009A8DF804500DEB070120208DF8E0
:102DB0000670ADF80880FFF70EFF20B1072420460B
:102DC00004B0BDE8F0810C22214601A812F0EEF912
:102DD000009A8DF8045001A940208DF805808DF8E7
:102DE0000650FFF7F8FE0028E8D10C22214601A882
:102DF00012F0DCF91723009A8DF8045001A9232062
:102E0000ADF80630FFF7E7FE0028D7D10C222146A7
:102E100001A812F0CBF9009A8DF8047001A9284698
:102E2000FFF7D9FE0028C9D10C22214601A812F0D3
:102E3000BDF94FF4C063009A019301A9A120FFF7E7
:102E4000CAFE0028BAD10C22214601A812F0AEF920
:102E50009DF80430009A43F0010301A9A0208DF8E9
:102E60000430FFF7B8FE0028A8D1304607F0F8FD7F
:102E70000028A3D1A3E700BF452D0300024608B5F3
:102E8000014804F05BFA00BFE5AF040080B260B90E
:102E9000BFF34F8F0549064BCA6802F4E062134343
:102EA000CB60BFF34F8F00BFFDE7704700ED00E040
:102EB0000400FA05014B00221A6070470C41002003
:102EC00038B504462546002005F8080B01F0FEFB46
:102ED000284604F5207503F013FD284602F020FC77
:102EE0000321284603F0C6FBB0FA80F040092070A9
:102EF000204638BD10B5044600F5207002F041FCB4
:102F000004F1080003F024FD002001F0FDFB204641
:102F100010BD10B5013A0A440B46581A541AA04283
:102F200006D21878147803F8014B02F80109F4E787
:102F300010BD30B589B005460C46684611682022A0
:102F400012F036F8694628462022FFF7E2FF2022D9
:102F50006946204601F000FE09B030BD38B50C4688
:102F6000096800290546104614BF2022002201F0FE
:102F70002BFE21680029284614BF20220022BDE82C
:102F80003840FFF7C6BFF0B593B0044603A81F460C
:102F900015460E4601F0FAFC06A801F0F7FC09A858
:102FA00002F0B0FB3A4606A92046FFF7C2FF3246C0
:102FB00009A92046FFF7BDFF2A460CA92046FFF7C6
:102FC000B8FF01210FA801F04BFD002301930093EE
:102FD00009AA06AB03A904F5207001F039FA0546E9
:102FE00020B903AA18A92046FFF7B8FF09A802F0E4
:102FF000B8FB06A801F0D0FC03A801F0CDFCB5FA9F
:1030000085F0400913B0F0BD6DDF704776DF704783
:10301000022807D0042803D0431E58425841704765
:103020004FF00300704703680BB10846184770471C
:1030300003680BB1084618477047000038B5064BC7
:1030400003600446406820B1056904F06BFC284623
:10305000F9E7204638BD00BF34B0040010B504467F
:10306000FFF7ECFF204604F05DFC204610BD000099
:1030700038B5064B03600446406820B1056904F08A
:1030800051FC2846F9E7204638BD00BF04B00400D3
:1030900010B50446FFF7ECFF204604F043FC204641
:1030A00010BD000038B5064B03600446406820B1EF
:1030B000056904F037FC2846F9E7204638BD00BF13
:1030C00014B0040010B50446FFF7ECFF204604F0EE
:1030D00029FC204610BD000038B5064B03600446AD
:1030E000406820B1056904F01DFC2846F9E7204638
:1030F00038BD00BF24B0040010B50446FFF7ECFF54
:10310000204604F00FFC204610BD10B51F220446D7
:10311000002112F04BF80023E37710BD40798011B5
:10312000012808D0032803D048B901230B70704749
:1031300000200870704702230B70002070470420A5
:10314000704737B5C0B20D4614460023032811D886
:10315000DFE800F01402141602A9284601F8043D25
:10316000FFF7DCFF38B99DF80430012B05D007D3F9
:10317000022B03D0002003B030BD03232370F9E7F6
:103180000123FBE713B590F85630013BDBB2044650
:1031900080F856302BB990F8580063F3410084F85A
:1031A000580000918DF80420D4F8A430C4F8A83059
:1031B000D4F8A80040B1C36869469847D4F8A8304D
:1031C000002BF1D01B69F1E702B010BD38B5044601
:1031D0000D4629B990F8583061F3000380F8583053
:1031E000636E63B1074A32B938BDC3682946984750
:1031F000A36E2BB9636EA366A06E0028F5D138BD0F
:103200001B69F8E78907030070B5044686B0D4F857
:10321000B030C4F8B430D4F8B40040B1C36821462B
:103220009847D4F8B430002BF1D01B69F1E7D4F8FB
:10323000B00020B1056904F075FB2846F9E794F861
:103240005830C4F8B00060F3000360F3410384F821
:10325000583084F8560084F85C0004F10A00FFF747
:1032600054FF04F13400FFF750FF606E20B1056990
:1032700004F058FB2846F9E76066D4F8980020B1BE
:10328000056904F04FFB2846F9E7D4F8A430C4F8E8
:1032900098002BB11D69184604F044FB2B46F8E753
:1032A00001AD01930293039395E8070004F16C06C6
:1032B000C4F8A43086E80700084AA26795E807002A
:1032C00004F18006E36786E80700054AC4F88C200D
:1032D000C4F89030236006B070BD00BF31300300E9
:1032E000273003002DE9F0410546904606221044A0
:1032F00005F10D041F46069E11F05AFE06224146B6
:103300002046B8F1000F11D011F052FE06223946C6
:103310007FB105F1180011F04BFE0622314666B16F
:1033200005F11E00BDE8F04111F042BE11F03EFF74
:10333000ECE7204611F03AFFEFE72046BDE8F04108
:1033400011F034BF37B51D460023016002710446F9
:103350004371821D00F10C0102F8013B8A42FBD14E
:103360009DF81C30237304F1130204F10D030021B6
:1033700003F8011B9342FBD1099B636104F118021E
:1033800004F11E03002102F8011B9342FBD104F15A
:103390002402002103F8011B9A42FBD10B9B0093EE
:1033A000089A0A9B069984F824502046FFF79AFF52
:1033B000621D06992846FFF7C4FE204603B030BDC3
:1033C0000246811D002302F8013B8A42FBD1837132
:1033D000C37103724372C3600374437470472DE971
:1033E000F04186B004460E4601A81F4690469DF85F
:1033F0003C50FFF7E5FF3146062201A811F0D8FD49
:103400009DF830308DF80C309DF834308DF80D304B
:1034100005AA0E9B0493314628468DF80A808DF844
:103420000B708DF81550FFF78CFED4F88C3001A985
:1034300004F18000984706B0BDE8F08100220260E8
:103440007047000073B5044604F10A05FFF7F6FF64
:103450000023A022E2802371238104F129012A465E
:1034600002F8013B9142FBD14FF4007262854FF4A8
:103470008042114684F82930009304F12C00002387
:1034800004F13406FDF7F5F904F153013246002347
:1034900002F8013B8A42FBD14FF40072A4F8542099
:1034A00094F8582084F8533002F0FE0263F341028E
:1034B00084F85820174A2266174AA267174AC4F8A8
:1034C0008C20174AC4F89420164AC4F8A020164A43
:1034D00084F8563084F85C306366E366236763677C
:1034E000E367C4F88030C4F88430C4F88830C4F886
:1034F0009030C4F89830C4F8A430C4F8AC20C4F8B4
:10350000B0302846FFF701FE3046FFF7FEFD2046AB
:1035100002B070BD04B00400313003002730030056
:1035200014B0040024B0040034B0040070B50446A4
:103530000025FFF787FFC4F8B85084F8BC5084F822
:10354000BD5084F8BE5004F1BF0304F1F7021D60C2
:10355000C3F8035007339A42F9D104F1F806402228
:10356000002184F8F750304611F020FE3046FDF778
:10357000B9F81A4BC4F8F8301022002104F5907005
:1035800011F014FE0123164A84F83031C4F8F820F3
:1035900084F83E31022284F83F31002384F83A5106
:1035A00084F83B5184F83D5184F8465184F84751E2
:1035B00084F83C2104F5A4751846E918E8500A7906
:1035C000083302F0FE0260F34102202B0A71F4D1AD
:1035D0004FF6FF73A4F83831204670BD54AE040096
:1035E0008CAE0400A0F83811704713B51446D1B161
:1035F000CAB16846FFF708FD98B99DF80030C3F3DB
:103600004603DAB21AB1012A01D0062007E00B7096
:1036100006220DF10101204611F0CAFC002002B083
:1036200010BD0320FBE70420F9E7FFF7DEBF30B54C
:1036300090F83A3187B005460C4663B30B7803F037
:10364000FE02042A27D1D90725D4FEF795FA0146B0
:1036500004A8FDF727FE059BEBB195F83E31022B40
:1036600019D107B030BD002B0CBF02230323E17B2F
:103670008DF80C3004F110030293CB080193C1F3D1
:103680004103009394F90E2001F001032846611CC8
:10369000FFF7A5FEE5E722785308D207E3D400330D
:1036A00018BF0123E3E730B5002300EBC30494F80F
:1036B0004C41A5070DD500EBC305D5F848518D4207
:1036C00007D114F0010F14BF01230223137000204F
:1036D00030BD0133042BE8D1184630BD70B500234E
:1036E00003F1290500EBC5042679B6070CD4531E57
:1036F00040F835105A425A41237962F30003DBB295
:1037000043F00203237170BD0133042BE8D170BD77
:1037100030B5002303F1290400EBC4042279950796
:103720000AD500EBC305D5F848518D4204D11346A4
:103730006FF34103237130BD0133042BEAD130BD57
:1037400070B504460D461646FFF7E2FFD0F8B80004
:1037500010B13246FDF70AFF324629462046FFF7F0
:1037600011FD70BD90F84C316FF3410380F84C317E
:1037700090F854316FF3410380F8543190F85C3184
:103780006FF3410380F85C3190F864316FF34103CB
:1037900080F86431704710B50446FFF735FD0246E6
:1037A00070B94FF6FF7384F8BC0084F8BD0084F84C
:1037B000BE00A4F838312046FFF7D4FF104610BDF4
:1037C000062010BDFFF7E7BFF7B504680E46F4B159
:1037D00011781E291DD004D851B11A2907D00B2108
:1037E00006E0232901D02A29F9D1062100E0082189
:1037F000236850781D6BFFF70BFC07469078FFF7A6
:1038000007FC3B468DF8000032462046A84703B02F
:10381000F0BD0421ECE738B504460D466368A360AB
:10382000A06838B1C36829469847A368002BF5D033
:103830001B69F4E738BD10B5044690F8580000F055
:10384000FE0040F0020084F8580094F8560090B052
:10385000013084F856001798059016980490159832
:103860000390149802909DF84C00019012980090DB
:1038700006A8FFF767FD06A904F19400FFF7CBFF48
:1038800010B010BD2DE9F04F8DB28DB0A0F83851B9
:1038900008AE1446D27907468946FFF71FFF062275
:1038A0000021304611F082FC06220021304611F042
:1038B0007DFC32460DF11F013846FFF7B6FE97F842
:1038C0003A2112B102238DF81F30237803F001084A
:1038D000B2B1E279012A13D197F83C21012A0FD124
:1038E00003F0FE03042B0BD1B8F1000F08D1FEF753
:1038F00043F901460AA8FDF7D5FC0B9B002B4FD1DD
:1039000025786D08B8F1000F03D1003518BF0125E7
:1039100003E0002D0CBF02250325D7F8B80004F101
:10392000010A04F1080B60B19DF81F300193E279A0
:10393000CDF80CB00296CDF800A02B464946FEF714
:1039400071FD97F83A31BBB1B8F1000F14D1E379AA
:10395000012B11D1237803F0FE03042B0CD197F82F
:103960003C31022B08D1404600F052FC03681B6B2F
:1039700098474946FEF791FE00239DF81F100593D6
:1039800004930191E279CDF80CB00296CDF800A035
:103990002B4649463846FFF74EFF0DB0BDE8F08F85
:1039A00013212846FFF732FBF7E7A4DF7047A8DFB3
:1039B0007047A9DF704766DF70470000C36A04489C
:1039C000002B08BF0020003018BF0120704700BF47
:1039D00089070300036C0448002B08BF0020003057
:1039E00018BF0120704700BF8907030038B505469E
:1039F0000C46FFF7EFFF38B10023238205F14000AA
:103A0000EB6C21469847208A38BD10B500224479D6
:103A100000F174031046A24207D253F8041B098B2D
:103A20008842B8BF08460132F5E710BDF8B5D0F8B6
:103A3000A03104460F4633B1D0F8AC31CBB1D0F849
:103A4000B831C3B902230C265E4306F5CC702518A5
:103A50002046FFF7DAFF10F04FFF34440023C4F88C
:103A6000A001A4F89C31A4F89E31A4F898712846CE
:103A7000F8BD0123E7E70020F8BD10B5024600239A
:103A8000D2F8A0414CB1B2F898418C4205D10C2239
:103A900002FB030000F5CC7010BD0133032B02F1D3
:103AA0000C02EDD1002010BD10B5FFF7E6FF044673
:103AB00030B1806810F028FF0023A360012010BD02
:103AC00010BD70B5044600F124050026D4F8A0010D
:103AD00018B110F019FFC4F8A0610C34AC42F5D154
:103AE00070BD38B50546FEF763FA0446F0B90146E5
:103AF000502205F1740011F059FB2146202205F5F2
:103B0000B27011F053FB2146082205F1C40011F0F8
:103B10004DFB1022214605F5C37011F047FB2846E6
:103B200085F88441FFF7CDFF204638BD062038BD1B
:103B30002DE9F0430B88512B8FB005460C466BD016
:103B400006D8012B73D0502B15D00FB0BDE8F083F1
:103B5000532B2CD059D3572BF7D18C79EB682B6191
:103B600028690028F1D0C368214698472B69002BAB
:103B7000F4D01B69F3E7CF88427900239A420ED92B
:103B800005EBC301B1F8C810B9420AD105EB8303B4
:103B9000586F90F8202012F0300F40F0768102210B
:103BA00007E00133EAE7032180E104217EE1CF88C9
:103BB000052195F805800026B04540F27C8105EB93
:103BC000C603B3F8C430BB423AD10629B14600F06F
:103BD0001F81072900F07981022940F05481A388D0
:103BE0000993237B8DF82A30E389ADF82C30123409
:103BF00034F8023CADF82870ADF82E300C9409A9C9
:103C000005F11400FEF78CFC9FE700231A461946C5
:103C1000A088FFF7CEFE98E78B79012B04D0022B0A
:103C200093D10F890721C4E70F890621C1E78C884A
:103C30002146FFF7FBFE00212046FFF7BCFE84E78C
:103C40000136B9E731462846FFF717FF074608B99E
:103C5000AE4924E0C38833BB22894280A0F80480A7
:103C6000B86804F114054A462946184411F0A0F931
:103C7000B4F81280FB884344FB800021102209A87D
:103C800011F094FA02238DF8243001238DF82A30A4
:103C9000238AADF82C30ADF82E800C9509A930465A
:103CA000FFF785FE51E781881944884540F024815B
:103CB000218942889142D3D094491EE13146284659
:103CC000FFF7F2FE9249EAE731462846FFF7D5FEB4
:103CD00007460028BCD01422002109A811F066FA7A
:103CE000BB887A88ADF82A30FB88ADF82C30BB68E9
:103CF0000C930996ADF828200023984507D005EBD2
:103D0000C301B1F8C410914203D00133F5E74FF07D
:103D1000FF3305EB830309A9586FFFF767FE0028FF
:103D2000CAD1FB88ADF80430BB88ADF8063001AAD3
:103D3000BB68798802933046FFF737FE0028BBD175
:103D400073493046FFF733FE7B88ADF81830A37B0C
:103D50008DF81A30BB88ADF81C30FB88ADF81E30EA
:103D6000BB68059605A905F114000893FEF7D8FB7A
:103D7000C6E01422002109A811F018FA238A099636
:103D8000ADF82A301022638AADF82C30002104F1FE
:103D9000140601A805EB8909ADF828700C9611F0FE
:103DA00005FA02238DF8043009A90123D9F874001B
:103DB0008DF80A30FFF71AFEBDF82A30ADF80C3046
:103DC000BDF82C30ADF80E300C9BADF80800049314
:103DD00028B19DF80A306FF300038DF80A3001A96D
:103DE000A088FFF7E4FDBDF80830002B7FF4ADAEEE
:103DF000A3880593A37B8DF81A30238AADF81C3075
:103E0000638AADF81870ADF81E30089605A9F7E67C
:103E10001422002109A811F0C9F905EB8605A38831
:103E200009931022E389ADF82A30002105A8ADF8E6
:103E3000287011F0BBF96D6F012328468DF81430FE
:103E4000FFF7BCFD30B105F12C00AB6B09A9984719
:103E5000BDF83400BDF83430ADF8180083B90C9AC1
:103E600072B19DF81A30089243F001038DF81A30B0
:103E7000BDF82A30ADF81C30BDF82C30ADF81E303E
:103E800005A9A0880CE73A4611E0E17CA37C9406E2
:103E900043EA012302D59F073FF585AED6067FF59D
:103EA00084AE13F0010F0CBF04210321828B28463E
:103EB000FEF748FB49E607297FF447AEA37B053BA5
:103EC000012B3FF642AE4FF0FF392846FFF79DFD2C
:103ED000A37BA688052B3FF4F1AE062B3FF4F4AE8E
:103EE000042B7FF446AFB4F81080B4F8129009EBBD
:103EF000080383427FF7A6AE06493046FFF757FD19
:103F000031462846FFF7D0FD1FE600BF4CB0040045
:103F10003CB004005CB0040065DF70473EDF7047D2
:103F2000007970471030704700F5BE707047103050
:103F3000704703685B6B184708B503689B68984730
:103F4000BDE80840FFF7EABF1FB50379F3B1144C91
:103F50002278B2B902A8FFF7DFFFD0B9BDF80A3066
:103F6000592B16D19DF80830DA1F012ABDF80C2014
:103F700009D800920B4A0C48202111F087FB01233D
:103F80002370094803E00092084AF4E7084804B0A7
:103F900010BD20220749044811F080FCF1E700BF62
:103FA0001043002086B00400F0420020A3B00400BB
:103FB0006CB00400C8B0040038B503790546F3B10D
:103FC00006F0CEFCE8B9D5F8780188B92B68284608
:103FD000DB6A9847FDF734FD044670B905F110001F
:103FE000FFF7F0FB044640B9FEF764FF2C7104E0D4
:103FF000FDF794FD04460028E8D0204638BD09248A
:10400000FBE70524F9E7000008B503F035F8074B96
:104010001A783AB100221A7003F044F8BDE808405B
:1040200006F0D8BCBDE8084003F03CB808410020C9
:104030000379F7B507460E46154683B100230A24D7
:10404000019300938DF804403046FCF7DFFBEB68EA
:104050000090694628469847204603B0F0BDB960F5
:10406000FEF784FE044620B901233B7100900190C5
:10407000EAE70C20F1E70000174B10B50446036097
:1040800000F5D270FCF7BEFD04F5CC70FCF7A0FD86
:1040900004F5C670FCF718FD04F5C070FCF734FD9C
:1040A0000E4BC4F8083104F58470FCF715FA04F1DE
:1040B000BC00FEF7C3FF04F1B000FFF70DF804F1F8
:1040C000A400FEF7EFFF04F17000FEF7D1FF2046D9
:1040D000FCF7C6FB204610BDD8B004008CAE04002F
:1040E00010B50446FFF7C8FF204603F01BFC20462E
:1040F00010BD10B50446FDF725FF04F1740304F16B
:10410000C402002143F8041B9342FBD104F5B272B0
:1041100000211960596008339A42FAD1134604F518
:10412000C271002243F8042B9942FBD184F8842108
:1041300004F5C37304F5CB72002123F8021B9342EC
:10414000FBD104F5CC7304F5DE7100221A605A60CD
:104150009A600C338B42F9D1204610BD38B5D0F8A7
:104160007831044643B94FF4DE7003F0B5FB0546E1
:10417000FFF7BFFFC4F87851D4F8780138BD38B5DF
:10418000D0F87831044643B94FF4DE7003F0A4FB55
:104190000546FFF7AEFFC4F87851D4F8780138BD72
:1041A00038B50446094B0360002505718560103061
:1041B000FFF7BCF9C4F87851FDF7BAFB014604F5E6
:1041C000BE70FDF7F1FF204638BD00BFD8B0040037
:1041D00010B50B4C2378BFF35B8FDB070ED4204662
:1041E00003F002FA50B10748FFF7DAFF204603F068
:1041F0001FFA054A0549034803F0E7F9014810BDD5
:10420000104100201841002088330020794003002D
:10421000FFF7DEBFFFF7DCBFF8B5394F0446FDF707
:10422000ABFC3D78BFF35B8F15F00105064664D10A
:10423000384603F0D9F900285FD0236820461B6A6E
:10424000304C9847304B656184E828002F4B236140
:10425000B83004F11003E360E0622D4BA561E56125
:104260002562656204F138002363A6626563FCF78A
:104270002EFB04F13E00FCF72AFB04F14400FDF79D
:104280004FFC04F15400FDF74BFC04F16400FDF712
:1042900047FC04F17400FCF71AFB04F17A00FDF707
:1042A0003FFC0F2384F88B30012684F88A5004F1F8
:1042B000900084F88C5084F88D6084F88E50FCF760
:1042C0008DFF04F1A400FCF789FF04F1B800FCF7AE
:1042D00085FF04F1CC00FCF781FF04F1E000FCF75E
:1042E0007DFFA36A38461C6084F8646003F0A0F97F
:1042F000084A0949204603F068F90248F8BD00BFA2
:104300001441002014430020B4AE0400C4AE0400E5
:104310000844002088330020450D030008B5064BF3
:1043200006490122C3F8002508F06AFA002814BFE4
:104330006FF06F00002008BD00A002500C44002068
:1043400008B508F0C9FA024B0022C3F8002508BDE1
:1043500000A002500138C0B20B289ABF014B185C74
:104360000C20704714B104002E4B98422CD8043B0B
:10437000984220D2283B984214D8073B98421AD240
:10438000253B984209D8013B984249D220B1083BCD
:10439000984245D06FF06F007047234B98423FD052
:1043A0000C33F5E7214B984207D8043B984202D2E0
:1043B000173B9842EED11E487047A0F57000A0F65A
:1043C00057000128E6D8F6E71A4B984216D8013B69
:1043D0009842F0D2193B984208D8013B9842EAD261
:1043E000A0F570006FF407631844EAE7124B984297
:1043F000E1D001339842CDD110487047104B98421C
:1044000007D8023B9842D6D22B3B9842C2D10D48E6
:1044100070470D4B0344012BBCD86FF071007047FF
:104420000A4870476408F0000F08F0005508F000D3
:1044300080B0FFFF9108F0008308F00000B2FFFF9A
:104440003223F00000B3FFFF02DC0FFF80B3FFFF59
:104450002DE9F04F9946C36DB1B00733DB088046B4
:104460000078079193460993FFF774FF09F020F84D
:10447000D8F85C3005900733DB0819460120069315
:104480000A930FF0C7FC0746002800F0BC8059468D
:10449000404601F0F7F90446002840F0A180059B52
:1044A000002B65D00BAE4FF0910A014652463046C4
:1044B00010F07CFE4FF41F6101200FF0ABFC0546AD
:1044C000002800F09E8022468DE8400409AB594642
:1044D000404601F087F90446002840F096800346E4
:1044E0000190099A00953146059808F069FBFFF79D
:1044F0003BFF0446002840F0888001465246304683
:1045000010F054FE484600F021FB31460246484672
:1045100000F05AFB0446002877D1484600F016FB0D
:1045200005F55D78024631464346059808F090FC53
:10453000FFF71AFF51460446304602F019FA002CE4
:1045400063D105F2A46300933A460AAB414628467C
:1045500008F0EAFCFFF708FF0446002855D14FF4A5
:104560001F660A9A0798394600F0F6FA044630E0CA
:1045700098F80030092B41D14FF4D07101200FF091
:1045800049FC054600283CD000F12006484600F0D2
:10459000DDFA31460246484600F016FB044650BBA1
:1045A000099A2946584600F00FFB044618BB05F14E
:1045B000400302932023324601930AA9009538460E
:1045C0000BF048FBFFF7D0FE4FF4D07604460028EE
:1045D000C7D02846314602F0CBF9284610F094F9AE
:1045E0003846069902F0C4F9384610F08DF9204695
:1045F00031B0BDE8F08F4FF4D076EAE76FF0710488
:10460000EEE7034CECE7024CF1E74FF41F66E0E7FE
:1046100080B2FFFF0146014808F008BA007400208C
:104620007047000070B588B01C46154B029307AB6D
:10463000019306AB0E4615460093014605AB0022DA
:1046400010480AF0BBFCB8B9079B0699AB4288BF7B
:104650000795079A22600831304610F0A9FC069BA6
:1046600022680833002112F1FF3202D2002008B084
:1046700070BD19700133F6E74FF0FF30F7E700BF68
:10468000EC5B002000740020F0B50F4C89B0204690
:104690000D4616461F46FBF73BFF03F0FFF901A846
:1046A000FFF7B8FF29463B46324601A8FFF7BAFF9D
:1046B000054601A8FFF7B4FF2046FBF729FF03F0EA
:1046C00005FA284609B0F0BDD073002010B50C489B
:1046D000FBF71EFF03F0E2F90A48D0F8E43001339B
:1046E000012BC0F8E43009D1FFF718FE0446044856
:1046F000FBF70EFF03F0EAF9204610BD0024F6E7B1
:10470000D07300200074002010B50D480D4CFBF74D
:10471000FFFE03F0C3F9D4F8E430013B002BC4F8EA
:10472000E43005DC2046FFF70BFE0023C4F8E4303C
:104730000348FBF7EDFEBDE8104003F0C7B900BF2A
:10474000D073002000740020A2F1300310B5DCB259
:10475000092C88BFFF230360A2F14103052B9CBFF6
:10476000A2F137030360A2F16103052B9CBF573A06
:10477000026003688B422CBF6FF00500002010BD63
:104780000023F0B516461C46844203D102EB840296
:10479000BBB9F0BDD6F800E0AEEB0305356051F8CB
:1047A0002470BD422CBF4FF0000C4FF0010CED1BEC
:1047B000734594BF63460CF1010346F8045B013472
:1047C000E2E71168C81A8B4242F8040B94BF002339
:1047D0000123DDE7F0B505460E46074600240F2FFE
:1047E00046D805F00F05072D37D956F8040B116888
:1047F000E3FB601442F8041B56F8040B1168E3FB5A
:10480000601442F8041B56F8040B1168E3FB6014B3
:1048100042F8041B56F8040B1168E3FB601442F8DD
:10482000041B56F8040B1168E3FB601442F8041BE8
:1048300056F8040B1168E3FB601442F8041B56F8A9
:10484000040B1168E3FB601442F8041B56F8040BD8
:104850001168E3FB601442F8041B05F00705002D06
:1048600078D1136823449C4242F8043B7BD8F0BDC6
:1048700056F8040B1168E3FB601442F8041B56F869
:10488000040B1168E3FB601442F8041B56F8040B98
:104890001168E3FB601442F8041B56F8040B11681E
:1048A000E3FB601442F8041B56F8040B1168E3FBA9
:1048B000601442F8041B56F8040B1168E3FB601403
:1048C00042F8041B56F8040B1168E3FB601442F82D
:1048D000041B56F8040B1168E3FB601442F8041B38
:1048E00056F8040B1168E3FB601442F8041B56F8F9
:1048F000040B1168E3FB601442F8041B56F8040B28
:104900001168E3FB601442F8041B56F8040B1168AD
:10491000E3FB601442F8041B56F8040B1168E3FB38
:10492000601442F8041B56F8040B1168E3FB601492
:1049300042F8041B56F8040B1168E3FB601442F8BC
:10494000041B56F8040B1168E3FB601442F8041BC7
:10495000103F44E756F8040B1168E3FB601442F87B
:10496000041B013D7BE701247BE701F18041013914
:1049700000EB8101884200D9704703680A681BBABE
:1049800012BA40F8042B41F80439F3E7012303601D
:10499000002343608360704710B5044668B18068A7
:1049A00030B16168890001F0E3FFA0680FF0ACFF4F
:1049B0000123236000236360A36010BD42F21073E3
:1049C000994270B504460D4602D96FF00F0070BDD4
:1049D0004368994216D9042128460FF01BFA06466F
:1049E0000028F2D0A16859B16268920010F0E0FA94
:1049F0006168A068890001F0BBFFA0680FF084FF28
:104A00006560A660002070BD8842F8B506460F4676
:104A100003D08D681DB9FFF7BFFF0020F8BD4C68BB
:104A2000013C1CB155F82430002BF9D072683B686A
:104A300033600134944205D921463046FFF7BEFF6A
:104A400040B1F8BDB068121B9200002100EB840059
:104A500010F0ACFBA200B968B06810F0A9FADCE76E
:104A600070B50E4601210446FFF7A8FF054688B938
:104A7000626801469200A06810F098FBA36886EA7D
:104A8000E672002EA2EBE6721A60B4BF4FF0FF335D
:104A900001232360284670BD4368B1EB431F3FBF2D
:104AA00083684A0901F01F0153F822003ABFC84049
:104AB00000F0010000207047012AF8B507460C46B7
:104AC00015464FEA51161CD84368B1EB431F10D26C
:104AD000B96804F01F04012303FA04F251F82630E8
:104AE00005FA04F423EA02031C4341F8264000209F
:104AF000F8BD002AFBD0711CFFF760FF0028E7D04B
:104B0000F8BD6FF00300F8BD436810B5E3B15A1E5D
:104B100003F18043013B9B0081687AB951F8221070
:104B200000204FF00043194204D1013020284FEA01
:104B30005303F8D1C0EB4210203010BDCC58043BD9
:104B4000002CEBD1013AE7E7184610BD08B5FFF796
:104B5000DBFF0730C00808BD2DE9F04112F0030467
:104B600018BF0124436804EB92049C420746884620
:104B7000154608D100213846FFF772FF064688B176
:104B80003046BDE8F081FFF707FF01233B600023BB
:104B90007B60BB6021463846FFF710FF06460028C1
:104BA000E8D0EDE7B8F1000FEAD0BB68C5EB8400B0
:104BB0002A464146184410F0FBF9002CE0D021466B
:104BC000B868FFF7D2FEDBE7F8B5054608466C6823
:104BD000A400944210D31346A34214D023F0030E32
:104BE000AF6803F00301CE0057F80E10F14011F04A
:104BF000FF0F1AD10133EFE7121B8E18002110F0BE
:104C0000D5FA30462246104400239A4201D10020B2
:104C1000F8BD23F00306AF6803F00301CC00B959D7
:104C2000E14000F8011D0133EFE76FF00700F8BD28
:104C3000F8B506460C464D0901F01F07FFF764FF63
:104C400073682044B0EB431F03D875B94FBB0020F5
:104C5000F8BD10F01F0118BF012101EB50113046C3
:104C6000FFF7ACFE0028F0D0F8BD736803F1804276
:104C7000013A6FF0030192006943AB420AD803F195
:104C80008043013B9B000022191DDFD0B168CA5050
:104C9000043BF9E7B0688418013B64588450043A37
:104CA000EBE7D6F804E0AB000021C7F1200C754516
:104CB000CDD2B468E05800FA07F20A43E250013559
:104CC000043320FA0CF1F2E74268F0B54C09944243
:104CD00001F01F0101D805D171B30021BDE8F040FA
:104CE000FFF7BEBE54BB39B102F18043013B9B00CC
:104CF0000025C1F1200EA2B90020F0BD85681E1963
:104D000055F8266045F823600133151BAB42F5D3F7
:104D1000AB0000249542E6D286680135F450043396
:104D2000F8E78768FE5826FA01F42C43FC50013A54
:104D3000043B06FA0EF5DEE7002CDDD00023E4E7A5
:104D4000436870B503F18042013A92004BB94C6858
:104D500004F18042013A920054B9181C18BF012096
:104D600070BD8468A458043A002CF0D1013BEDE7F3
:104D70008D68AE58043A0EB9013CEDE79C4211D360
:104D800012D803F18042013A92000BB9184670BD67
:104D900081688C58A9588C4204D8A2F1040203D32C
:104DA000013BF2E7012070BD4FF0FF3070BD43685A
:104DB00070B503F18042013A92003BB94C6804F1AE
:104DC0008042013A920044B97BB923E08468A45838
:104DD000043A002CF2D1013BEFE78D68AE58043A5B
:104DE0000EB9013CEFE79C4202D20268104670BD4A
:104DF000096801D94A42F9E70268002A01DD002961
:104E000016DB002901DD002A14DB03F180410139A2
:104E100089000BB91A46E9E7846866586C58A642BF
:104E2000E4D8A1F1040101D25242DFE7013BF0E7EF
:104E30000122DBE74FF0FF32D8E71FB581EAE173CB
:104E4000A3EBE17300290093B4BF4FF0FF330123BC
:104E5000019301A901230293CDF80CD0FFF7A7FF1E
:104E600005B05DF804FB90422DE9F04105460C4683
:104E7000174602D0884230D13C46676801232B6038
:104E800007F18043013B9B007FBB39462846FFF773
:104E900095FD064630BBAB68D4F808C01A460446F8
:104EA0000146B94228D18F003B44DCB16A68914287
:104EB00001F1010806D341462846FFF77FFD58BBA4
:104EC000AB683B441A682244944243F8042B94BFD5
:104ED0000024012441460437E7E7FFF795FD064625
:104EE0000028C9D03046BDE8F081A268D258043B02
:104EF000002ACAD1013FC7E710685CF821E02418F6
:104F000074442CBF0120002042F8044B0131A64517
:104F100094BF0446441CC4E70646E3E7F0B50F46D9
:104F200085B00646114638461446FFF709FF0028AB
:104F300032DB01230193B4424FF000030293039349
:104F400006D1214601A8FFF75FFD0546B8B901ACBF
:104F5000B7420DD160680123336000F18043013B0B
:104F60009B0090B9B268A168FFF70AFC002506E033
:104F700039463046FFF748FD05460028EAD001A82B
:104F8000FFF70AFD284605B0F0BDA268D258043BE1
:104F9000002AE7D10138E4E76FF00905F2E7F8B538
:104FA0000C681368634305460F46164616D511462E
:104FB0003846FFF7C5FE002806DB3246394628464C
:104FC000FFF7ACFF40B1F8BD3A4631462846FFF73F
:104FD000A5FF0028F7D164422C60F4E7FFF743FFF8
:104FE000F0E7F8B50C6813686343002B05460F46DD
:104FF000164616DD11463846FFF7A2FE002806DBEE
:10500000324639462846FFF789FF40B1F8BD3A4697
:1050100031462846FFF782FF0028F7D164422C6012
:10502000F4E7FFF720FFF0E71FB582EAE273A3EB96
:10503000E273002A0093B4BF4FF0FF3301230193C2
:1050400001AA01230293CDF80CD0FFF7A8FF05B009
:105050005DF804FB1FB582EAE273A3EBE273002A5A
:105060000093B4BF4FF0FF330123019301AA012342
:105070000293CDF80CD0FFF7B4FF05B05DF804FB48
:105080002DE9F04786B00023154688424FF0010213
:1050900081460E468DE80C0002930392049305931B
:1050A00005D16846FFF7B0FC044688BB6E46A945AB
:1050B00006D1494603A8FFF7A7FC044640BB03AD51
:1050C000D6F804A00AF18043013B9B00BAF1000F1F
:1050D00028D16F6807F18043013B9B0057BB0AEB67
:1050E00007014846FFF76AFC044688B9014648466E
:1050F000FFF7B6FC044658B907F1804808F1FF38BD
:105100004FEA8808EFB932682B685343C9F800307A
:1051100003A8FFF741FC6846FFF73EFC204606B0B7
:10512000BDE8F087B268D258043B002AD1D10AF119
:10513000FF3ACBE7AA68D258043B002ACFD1013FFF
:10514000CCE7AB68D9F8082053F80830B16842447E
:105150005046FFF73FFB013FA8F10408D2E71FB517
:105160000123009201AA01930293CDF80CD0FFF71E
:1051700087FF05B05DF804FB2DE9FF478B1E0E2B62
:1051800006468946904605D96FF00304204604B0D0
:10519000BDE8F08701230024104601930294039494
:1051A00010F00EFBB9F1100F05463ED1B0F1804F63
:1051B000EAD2830013F01C0F0CBF2146012101EB42
:1051C00053113046FFF7FAFB044690B901463046CA
:1051D000FFF746FC044660B907460DB9002408E015
:1051E000012D0AD198F800302D2B06D14FF0FF3356
:1051F000336001A8FFF7D0FBC8E7013D102118F884
:1052000005206846FFF7A0FA002843D1F808009B64
:10521000B168BA0002F01C0203FA02F251F8203021
:10522000134341F820300137D7E721463046FFF7D6
:1052300017FC04460028DCD107464FF0FF3AAF4286
:10524000CCD03FB998F800302D2B03D1C6F800A080
:105250000137F4E718F8072049466846FFF774FA63
:1052600004460028C5D14A46314601A8FFF777FF1A
:1052700004460028BDD13368009A012B01A93046AD
:1052800005D1FFF7D1FE04460028E1D0B1E7FFF7D2
:10529000E1FEF8E70446ACE72DE9F04F9BB00F467E
:1052A00001900021184690460393FFF7C6FD0028A1
:1052B00000F0A3810024012603990B9640460C942C
:1052C0000D940E960F9410941196129413941496B4
:1052D00015941694179618941994FFF731FDA0426F
:1052E00026DA019B2BB9DFB9002420461BB0BDE8AC
:1052F000F08F21460198FFF7B3FB04460028F2D057
:105300000BA8FFF749FB0EA8FFF746FB11A8FFF714
:1053100043FB14A8FFF740FB17A8FFF73DFBE4E7AA
:1053200041463846FFF770FB04460028E8D1DBE72A
:1053300041460BA8FFF768FB04460028E0D10EADFC
:1053400003992846FFF760FB04460028D8D1D8F817
:1053500004100E96023111A80B96FFF72FFB04469E
:105360000028CDD1014611A8FFF77AFB044600289A
:10537000C6D1022114A8FFF721FB04460028BFD1A3
:10538000032117A8FFF71AFB04460028B8D12846C6
:10539000FFF7BAFB00F01F001F2878D0C0F11F03F1
:1053A00019460BA80293FFF743FC04460028A7D137
:1053B00002992846FFF73CFC04460028A0D10C9E29
:1053C000DDF83CA006F1FF390AF1FF33A9EB030B2E
:1053D00000934FEA4B13194628460693FFF728FC23
:1053E000044600288CD14FEA8B0B29460BA8FFF707
:1053F000DEFC00284DDA06992846FFF765FC0446D6
:1054000000287FF47DAF009B9B000693043B06F1D0
:105410008045089306F10063013D013B06F180469B
:10542000A5EB0A05023EA3EB0A0AAD004FEA4A1AB1
:10543000B600009B99453BD8019B5BB111A918466A
:10544000FFF7E2FA08BB039BD8F800201B68534320
:10545000019A1360002F3FF453AF02990BA8FFF796
:1054600033FC90B9D8F800300B930BA93846FFF7FE
:10547000CBFA0146002840F0BE803846FFF7DDFC3D
:1054800000287FF43DAF01233B60044638E70294D7
:1054900095E7139951F80B20013241F80B200BA925
:1054A0002A460846FFF79DFD044600289DD027E7C1
:1054B000331D06980D99109A09931258CB581398DA
:1054C000934279D34FF0FF334351139A5359013329
:1054D0005351331F9B46139A5359013B535100219B
:1054E00014A8FFF7BDFA0028CFD10099169B109A97
:1054F00000297ED0089951581960069952585A606F
:10550000139B14A908465A59FFF729FE01460028A3
:1055100071D117A8FFF7A4FA0028B6D1B9F1010F8D
:105520000D9A199B1CBF59465058186091595960E3
:10553000099952589A6017A914A8FFF738FC002857
:10554000C9DC139B0EA95A5914A8FFF708FE0028BE
:105550009BD1514614A8FFF76BFB002895D10BA9EE
:10556000084614AAFFF73DFD0146002843D10BA8C9
:10557000FFF763FC002818DA0EA914A8FFF744FA15
:10558000002882D1514614A8FFF752FB00287FF46F
:105590007CAF0BA914AA0846FFF701FD00287FF491
:1055A00074AF139A5359013B535109F1FF39043D2C
:1055B000AAF1200A043E3CE7284407908859AAB182
:1055C000059300230493DDE904BC4BEA000B584625
:1055D000614615F03DF900234FF0FF328B4208BFC2
:1055E000824200D21046079B18606EE74FF0FF30F2
:1055F000F9E7009980E70C4682E66FF00B0474E649
:1056000070B504460D46104600211646FFF715FCFE
:10561000002824DB2A46334621460020FFF73CFEC3
:10562000054638B1284670BD324621462046FFF770
:10563000B6FC90B900212046FFF7FFFB0028F3DB02
:1056400031462046FFF7B3FB0028EBDB324621460C
:105650002046FFF7C6FC0028F2D00546E2E76FF0CF
:105660000905DFE7036B2BB1C36B002B0CBF0220D6
:1056700001207047184670474B6E70B504460D46C2
:105680002BB90A1DBDE870400146FFF7B9BF03689A
:10569000002B09DB2046FFF737FAAB6DB0EB430F69
:1056A00008D9174E304670BD0021FFF7C6FB002811
:1056B000F0D0F6E76B6E2046984706460028F1D1F9
:1056C00004352368002B04DA00212046FFF7B5FBE0
:1056D00068B929462046FFF76AFB0028E2DB2A4624
:1056E00021462046FFF71AFC0028F2D006E02A46A1
:1056F00021462046FFF753FC0028E2D00646D1E7BA
:1057000080B0FFFF10B50446FFF740F904F10C002C
:10571000FFF73CF904F11800BDE81040FFF736B977
:1057200038B50025044600F8045BFFF72FF904F1B3
:105730001000FFF72BF904F11C00FFF727F904F123
:105740002800FFF7DFFF04F14C00FFF71FF9A56504
:10575000E56525666566A566E56625676567A567EF
:1057600038BD10B5044658B1FFF716F904F10C0026
:10577000FFF712F904F11800BDE81040FFF70CB96B
:1057800010BD70B5044658B3036E012B12D004301F
:10579000FFF702F904F11000FFF7FEF804F11C0016
:1057A000FFF7FAF804F12800FFF7DBFF04F14C00E3
:1057B000FFF7F2F8636F3BB100252426A36F606FFB
:1057C0009D4207D30FF0A0F820467C21BDE8704031
:1057D00001F0CEB806FB0500FFF7C3FF0135EDE78A
:1057E00070BD00002DE9F8430E460546002106F184
:1057F000180091469846089C099FFFF71EFB48B980
:1058000017B91F48BDE8F88320700123C8F800309D
:10581000BDE8F883281DFFF799F90546B9F1000F97
:1058200017D1420001329742C8F80020E9D321463F
:105830000423024601F8013B3046FFF7C5F9E8B9F9
:10584000691C2A46214406F10C00BDE8F843FFF725
:10585000BBB9B9F1010F10D1431C9F42C8F8003009
:10586000CFD3002106F10C00FFF716F921460230D4
:1058700001F8010B2A463046E7E70020BDE8F8832F
:1058800000B1FFFF2DE9F0410F4686B0054601212A
:1058900007F11800FFF7D1FA044608B15F4C0CE09D
:1058A0002846FFF7DFFE02280BD13846FFF74EF9F6
:1058B000EB6D0733B0EBD30FF0D8204606B0BDE850
:1058C000F081012840F0A88021463846FFF7B5FA5C
:1058D0000028E3DB07F10C0621463046FFF7ADFA5E
:1058E0000028DBDB05F1040841463846FFF75FFA84
:1058F0000028D3DA41463046FFF759FA0028CDDABE
:105900006846FFF743F803A8FFF740F832463146F0
:105910006846FFF7B5FB044600284FD12946684684
:10592000FFF7AAFE0446002848D13D4E33683A46A8
:105930000133394603A83360FFF7A2FB0446002871
:105940003CD1294603A8FFF797FE0446002835D12D
:10595000336801333360AB69002B42D103A90322C2
:105960000846FFF777FB044640BB039B002B2CDB6C
:1059700003A93A460846FFF783FB0446F0B92946D7
:1059800003A8FFF779FE0446C0B9336803A90133C1
:1059900005F11C0208463360FFF701FB044668B9B5
:1059A000414603A8FFF703FA00282FDA03A9684647
:1059B000FFF7FDF9194C002808BF00246846FEF7E0
:1059C000EBFF03A8FEF7E8FF77E7002103A8FFF746
:1059D00034FA0028CCD003A942460846FFF7DFFA84
:1059E000C1E703A905F110020846FFF7D8FA0446FB
:1059F0000028E3D1414603A8FFF7D9F90028B7DB17
:105A000003A942460846FFF789FAF0E703A9424690
:105A10000846FFF783FAC1E7024C4EE780B3FFFF69
:105A2000E874002080B0FFFF03680B440360107827
:105A3000994294BF0346431C13707047036810B526
:105A400014788B4238BF013C147003685B1A036002
:105A500010BD0000F0B543680E2BA5B0044656D922
:105A60000E3B01220E2B0192029352D815AF3C221D
