:020000040002F8
:10F000003DB8F3960000000000100000E0BA0000D8
:10F0100000000000010203000400000000000000E6
:10F0200000000000000000000000000000000000E0
:10F0300000000000000000000000000000000000D0
:10F0400000000000000000000000000000000000C0
:10F0500000000000000000000000000000000000B0
:020000040003F7
:1000000000000420453103007D310300C9090300CD
:1000100081310300D9090300E10903000000000059
:10002000000000000000000000000000B119030003
:100030008931030000000000491A0300591A030027
:10004000B9550300010403008F3103008F31030011
:100050008F3103008F3103008F3103008F31030094
:100060008F3103008F310300590403004104030062
:100070008F3103008F3103008F3103001904030017
:100080008F3103008F3103008F3103008F31030064
:100090008F3103008F3103008F3103008F31030054
:1000A0008F3103008F3103008F3103008F31030044
:1000B0008F3103008F3103000000000000000000BA
:1000C0008F3103008F3103008F3103008F31030024
:1000D0008F3103008F3103008F3103008F31030014
:1000E0008F3103008F3103008F31030000000000C7
:1000F000000000008F310300000000008F3103007A
:1001000010B5054C237833B9044B13B10448AFF351
:1001100000800123237010BDC00D002000000000EE
:1001200014AF03000C4B43B10C480D4910B5AFF3AD
:1001300000800C48036823B910BD0A48036833B92E
:100140007047094B002BF7D0BDE810401847064B0D
:10015000002BF5D0184700BF0000000014AF0300CB
:10016000C40D0020C00D002000000000154B002B26
:1001700008BF134B9D46A3F5803A00218B460F46DE
:100180001348144A121A06F0D9F80F4B002B00D06E
:1001900098470E4B002B00D0984700200021040008
:1001A0000D000D48002802D00C4801F075F805F04C
:1001B00073FC2000290001F0ABFA01F06AF800BFDF
:1001C0000000080000000420000000006D1603007D
:1001D000C00D0020202B0020991203000000000019
:1001E00070B5164E164D0124144803F0DDFA96F949
:1001F00000305A1C04D120221249134800F010FD8F
:1002000078B91F2B86BF03F01F032A464FF0A04288
:1002100004FA03F3C2F808354FF4FA7001F04AF912
:10022000E2E71F2B86BF03F01F032A464FF0A042D0
:1002300004FA03F3C2F80C35EEE700BFDC0D002032
:100240000003005088A00300C3A00300024800235D
:100250000F21037000F057B9DC0D002008B50A200B
:1002600001F0BAF8FF21431E00F1090203F8011F53
:100270009342FBD1014B186008BD00BFE00D002088
:100280006FF01500704703681B69184703689B6986
:10029000184703689B6A184700290CBF6FF01800C5
:1002A00000207047012070476FF0150070476FF015
:1002B00015007047704703689B68184710B50446DF
:1002C000074B236000220023C4E9022300230846D1
:1002D000A16123616361034900F0B4FA204610BDB7
:1002E000E4A00300B702030007B5009000F1080185
:1002F000806900F0E6FA03B05DF804FB00F1080144
:10030000806900F00EBB000010B5034B036004468B
:10031000FFF7F4FF204610BDE4A0030003680122AC
:100320001B6900211847036800221B691146184702
:1003300030B54FF47A7440F271256143B1FBF5F1A9
:1003400089B2032983809DF80C30837198BF042300
:10035000018098BF03800388B3F5804F88BF4FF4B6
:10036000804304FB02F2B2FBF5F292B288BF038035
:10037000032A98BF0423428098BF43804388B3F583
:10038000804F84BF4FF48043438030BD03680BB17E
:100390000846184770470000044B00221A605A6054
:1003A0009A601A61024ADA60704700BFE40D0020CB
:1003B0008D0303000346002210B503F8012B00F162
:1003C000110403F8012BA342FBD1418210BD0000B0
:1003D00008B542F602110248FFF7ECFF08BD00BF66
:1003E000F80D002007B500234FF48042009311461A
:1003F0000248FFF79DFF03B05DF804FB0C0E0020E0
:10040000034B1A78034B53F8223003B11847704757
:1004100004020020140E0020064B0122C3F808231A
:10042000054B5A78FF2A00D1FEE7044A12885A7019
:10043000704700BF00F00040321A0020B61A0020BA
:10044000044BD3F8402122B10022C3F84021D3F855
:100450004031704700B00040074B4FF48032C3F882
:1004600008230022C3F84021044B01221A709B6824
:1004700003B11847704700BF00A00040280E0020BD
:1004800008B590F900305A1C04D120220F491048B9
:1004900000F0C6FB61B11F2B86BF03F01F030D499F
:1004A0004FF0A041012202FA03F3C1F8083508BD5C
:1004B0001F2B86BF03F01F0306494FF0A041012206
:1004C00002FA03F3C1F80C3508BD00BF88A0030091
:1004D000C3A003000003005070B50E460446154645
:1004E00003F03EF901360DD029462046FFF7C8FF3C
:1004F0002046012103F0A8F920460021BDE8704004
:1005000003F080B970BD0022FFF7E6BF00487047D6
:10051000F0A00300024B1B680BB10248184770475C
:1005200008020020F0A003002DE9F74FD0F804A046
:100530009AF83A300446002B46D103685B68984726
:1005400063681B6A98423FD0DAF82030DAF8084036
:10055000CAF82000A0EB0308DAF80C30314808EAAA
:100560000308844246464FF0000727D0DAE90A2301
:100570009AF83BB0A8FB0089CDE900230025BBF128
:10058000000F2BD05A464046494608F041FFDDE9AE
:10059000002312EB080243EB090390465A469946A2
:1005A00006460F4608F040FFB8EB000069EB01017A
:1005B000A94208BFA0420AD2CAE90A01DAE90C231B
:1005C000B6185F41CAE90C6703B0BDE8F08F013689
:1005D00047F10007001B61EB0501EDE722462B46C2
:1005E0004046494609F0BCFB224606460F464046B7
:1005F00049462B4609F0B4FBDDE9008918EB0208F7
:1006000049EB0309A94508BFA04502D2CAE90A89F6
:10061000D4E7013647F10007B8EB040869EB050998
:10062000F4E700BF40420F00824206D98A420BD94C
:10063000884294BF002001207047884206D98A4230
:100640008CBF0020012070470120704700207047B8
:100650002DE9F14F476897F83A300646002B60D1F4
:1006600097F83930002B5CD1FFF75EFF75686B6837
:10067000002B59D0D5E90C89D3E90001894508BF81
:10068000804505D333685B6901B0BDE8F04F18477A
:10069000D5E90623B0EB080861EB09094B4508BF13
:1006A00042452C6906D3AB68254A93420FD1444595
:1006B00028BF44462A6A3B6A1444EA681440A342AD
:1006C00021D14FF484721F491F4800F0A9FA95F810
:1006D0003B20DFF878A04FF0000B7AB14046494646
:1006E00008F0A2FE10EB0A0041EB0B01144A0023B4
:1006F00009F036FB844228BF0446DBE7A3FB080170
:1007000003FB0911EEE7336820461B6998473368FD
:100710005B68984722460146386AFFF785FF002844
:10072000B0D101B0BDE8F08F3B69386AFA6818446F
:1007300033681B69104001B0BDE8F04F184700BF97
:1007400040420F001CA103003CA103003F420F00E8
:100750002DE9F04F436893F8382085B00546002A0C
:1007600066D193F83A30002B62D103681B68984732
:100770002B68DB699847076827B92D222E492F4837
:1007800000F04EFA1F23012202FA03F18F425FFAB2
:1007900083FB02D0013BF7D19B46D0F804A0AAF11D
:1007A00004031C2B01D93B22E8E7072617F1FF3091
:1007B00006FA03F6224C4FF0000343F1FF313A46AC
:1007C000C4FB060109F0CCFA6C682A680023236098
:1007D000636052680393CDE90001904720626C6822
:1007E0004FF000084FF000095246C4E90A89A7609B
:1007F00084F83BB00120002108F016FEDDE900235B
:10080000C4E90623039B84F8393084F83A30013870
:100810000123E06026612846C4E90C8984F8383059
:10082000FFF782FE284605B0BDE8F04FFFF710BF86
:1008300005B0BDE8F08F00BF1CA10300D4A60300E3
:1008400040420F0038B505460C46FFF781FF00F027
:10085000ADFA6B681C60BDE8384000F0BDBA70B5F9
:10086000044600F0A3FA2368DB689847636893F8AE
:100870003A201AB1BDE8704000F0AEBA012283F808
:10088000392063685B68A3B12046FFF74DFE6568B9
:100890006E68D5E90C01D6E90023994208BF904261
:1008A00007D3F3686B602B68002BEAD0B0689847D9
:1008B000E7E76368002283F839202046FFF7C8FE87
:1008C000D8E72DE9F84305460C4616461F46DDF8E5
:1008D000208000F06BFA2846FFF726FE6A68C4F80D
:1008E0000880C4E900675368002133B9E36069B93F
:1008F00054602846FFF7ACFE0FE0D3E900894F456E
:1009000008BF4645F2D31946DB68EEE7D2E90C236F
:10091000BB4208BFB242CC60EBD2BDE8F84300F066
:100920005BBA38B505460C4600F040FA6A68536871
:10093000A34209D1DB6853602846FFF789FEBDE872
:10094000384000F049BA1346002BF8D0DA689442D8
:10095000F9D1E268DA60F2E738B50446FFF7F8FE4D
:1009600000F024FA2046FFF7DFFD6368D3E90C4569
:1009700000F032FA2046294638BD08B5FFF7ECFFF3
:1009800008BD0000024B00221A7003F095BD00BFA5
:10099000BB1A002008B503F0FBFC024B01221A70C1
:1009A00008BD00BFBB1A00200048704760A10300CB
:1009B000024B1B680BB10248184770470C0200201D
:1009C00060A10300002070474FF0100300F00CB846
:1009D0004FF0200300F008B84FF0300300F004B8E7
:1009E0004FF0400300F000B8EFF308804FF004012F
:1009F00072460A4201D0EFF309809C46244B1968E5
:100A000002680A60043142680A60043182680A6040
:100A10000431C2680A600431F0C147460F600431F6
:100A20004F460F60043157460F6004315F460F6038
:100A3000043102690A60083142690A60043182693E
:100A40000A600431C2690A600431034620334FF45E
:100A50000076324200D0043375464FF0100635421E
:100A600000D148330C46103C2360EFF309820A6042
:100A70000431EFF308820A60043172460A600431DF
:100A8000EFF314820A606046014900F079F8FEE74E
:100A90008CA10300F0B52C4C2C4F85B000252646C8
:100AA00054F8252029463846013500F065F90D2D0A
:100AB000F6D1A36C0293636C0193236C009304F151
:100AC0003401234C23480EC900F056F9216822480E
:100AD00000F052F9E16AA26AA36AA06A256BE76B8B
:100AE0000297000C01950090C3F30723D2B21B4874
:100AF00000F042F9A36A1D0603D5616B184800F0A7
:100B00003BF9A36A180403D5A16B164800F034F929
:100B1000F36C190712D5144800F02EF9336DDA077B
:100B20000FD5124800F028F9F36C5B074CBF104852
:100B3000104805B0BDE8F04000F01EB90E4800F0C6
:100B40001BF90E48EEE700BF0001002020A20300C1
:100B500000ED00E02EA203007DA203008BA20300A3
:100B6000DAA20300E8A20300F6A2030005A3030033
:100B700035A3030041A3030025A3030012A3030030
:100B800013B50446154800F0F7F8302C17D0402C68
:100B90001AD0202C1DD11248124C00F0EDF812484A
:100BA00000F0EAF8FFF776FF104800F0E5F80023C0
:100BB0000F4A0093D26B0F49204600F071FA0E489D
:100BC0000E4C00F0D9F8EAE70D480E4C00F0D4F8CE
:100BD000E5E70D480D4C00F0CFF8E0E790A10300E9
:100BE000B9A103003E01FF80E6A10300F1A10300CB
:100BF0000001002010A20300C8A103003F01FF80F4
:100C0000D1A103004001FF80DCA103003D01FF8072
:100C100004F07ABF05F0E0BB04F058BE04F0D0BD8C
:100C200007B50B46009201460022014800F038FA51
:100C30004401FF8008B5202201490248FFF7F0FF78
:100C400088A00300C3A0030083B500F0AFF80D2116
:100C500001A8FFF758FC2C4C2C4D04269DF90430BC
:100C60005F1C01D1FFF7E6FF1F2B86BF03F01F03B8
:100C700021464FF0A041012202FA03F3C1F80835E2
:100C8000284600F007FC9DF90430581CEAD01F2BC1
:100C900086BF03F01F0321464FF0A041012202FA54
:100CA00003F3C1F80C35284600F0F4FB013ED5D122
:100CB000174F04269DF90430591CD3D01F2B86BF33
:100CC00003F01F0321464FF0A041012202FA03F373
:100CD000C1F80835384600F0DDFB9DF904305A1C98
:100CE000C0D01F2B86BF03F01F0321464FF0A04149
:100CF000012202FA03F3C1F80C35384600F0CAFBB2
:100D0000013ED7D1A9E700BF00030050F04902001F
:100D1000801A060010B5014604460022022000F0A9
:100D200041FB00F043F8204605F02AFD214602462B
:100D3000022000F037FBBDE8104000F04DB8000085
:100D400000B5A3B00B460246842101A807F00EF8B7
:100D5000832806D9074B1A681B79CDF883208DF8B4
:100D60008730002802DD01A8FFF7D4FF23B05DF82B
:100D700004FB00BF4DA303000FB407B504A951F84D
:100D8000040B0191FFF7DCFF03B05DF804EB04B046
:100D90007047EFF31080C04300F001007047EFF39D
:100DA0000580003018BF01207047000008B502F030
:100DB000D1FB064A1368591C04D140220449054856
:100DC000FFF72EFF0133136008BD00BFB80E0020EF
:100DD00052A3030075A30300044A136823B1013B27
:100DE00013600BB902F0BEBB704700BFB80E002005
:100DF00008B50E4B0121D3E84F2FC3E8401FD2B2F4
:100E00000028F8D12AB1FFF7D1FFBFF34F8F20BFE1
:100E1000FDE7FFF7C4FF08B1FFF716FFFFF7B9FFC3
:100E20000028F9D0012000F034FA00BF080F00209C
:100E300070B5234C90B034EA200428BF04460D4618
:100E4000164600214022684605F078FA1D4B0295AF
:100E50005B690393DA6B04925A6B1B6B05920693E2
:100E60008DE85000CDF81CD0FFF7A0FF164A13689C
:100E70000133012B13600BD16D460FCD134C0FC402
:100E80000FCD0FC40FCD0FC495E80F0084E80F00FD
:100E90006C460FCC0E4D0FC50FCC0FC50FCC0FC538
:100EA00094E80F0085E80F000A4B1B6813B1A5F109
:100EB00030009847FFF790FF002010B070BD00BFD2
:100EC0000101FF8018030020BC0E0020C80E002086
:100ED0000C0F0020C00E00202DE9FF41374C0E46BC
:100EE0002168C1F34173032B0CBF4D428DB2C1F396
:100EF00007438046174632482A46FFF73DFF6FF406
:100F000098731D44132D0FD8DFE805F00A3E4144C5
:100F1000474D4A500E0E0E0E0E0E0E0E0E0E0E53B6
:100F2000A1682848FFF728FF4046FFF7F3FE6168F5
:100F30002548FFF721FF4EB12448FFF7EBFE30466E
:100F4000FFF7E8FE39462248FFF716FFA16821485F
:100F5000FFF712FFE268E36951681F480293A36933
:100F6000019363690093002908BF014623691B4868
:100F7000FFF702FF21681A48FFF7FEFE194804B088
:100F8000BDE8F041FFF7F8BEA1681748CAE7A168BD
:100F90001648C7E7A1681648C4E7A1681548C1E725
:100FA000A1681548BEE7A1681448BBE7A1681448CA
:100FB000B8E71448FFF7E0FEB6E700BF0C0F0020CB
:100FC0002DA403007EA4030026A5030037A503007B
:100FD0003FA5030043A5030023A4030057A5030076
:100FE000AFA50300FCA5030094A40300A4A4030080
:100FF000B3A40300C6A40300DAA40300EEA4030014
:10100000FDA4030013A5030010B50A4C00F13C0138
:101010000346002013F8012B80EA02600822002812
:101020004FEA4000B8BF6040013AF8D18B42F1D19D
:1010300010BD00BFB71DC1047047000038B5134C88
:10104000D4F88030002B1FDA04F18000FFF7DCFFBA
:10105000D4F8BC30984217D1D4F8B830A3B90C4BAF
:10106000012504F180001D70FFF7E6FFD4F8B430CD
:10107000002B09DDC4F8B85004F18000FFF7C4FF6D
:10108000C4F8BC00FFF7B4FE002038BD000100200A
:10109000090F0020014B1878C0B27047C40E002021
:1010A00080B50E461F461146254A0125D2E84F4F0E
:1010B000C2E8435FE4B23CB97246FFF7B9FE029A58
:1010C00039463046FFF708FF1E4E1F481F4C1F4D84
:1010D000FFF79AFFD6F8BC30984208BFD6F8B43074
:1010E0001A480CBF0133012363630023A363FFF796
:1010F0008BFFE063FFF75AFE0FCD134C0FC40FCDEB
:101100000FC40FCD0FC495E80F0084E80F00FFF760
:1011100063FE0F48FFF730FED6F8B410002902DD59
:101120000C48FFF729FEBFF34F8F0B490B4BCA68E2
:1011300002F4E0621343CB60BFF34F8F00BFFDE7C3
:10114000C40E002000010020800100200C0F0020B0
:10115000A6A30300D9A3030000ED00E00400FA05F4
:101160006FF01C0070476FF015007047012070474A
:101170000020704770470000034B186818B14FF00B
:10118000FF3101F025BB7047C01A0020024B1868E0
:1011900008B101F035BB7047C01A0020F8B5074E02
:1011A00015460C468F18BC4205D014F8011B30467A
:1011B00003F034F8F7E72846F8BD00BF60180020B8
:1011C00038B58DB215F0010405D0084803F05EF87B
:1011D000041C18BF0124EB0605D5044803F076F87B
:1011E00008B144F01004204638BD00BF601800204C
:1011F00010B5044604F080FC204610BD10B50C4626
:101200002AB1044802F0C8FF2070012010BD10462A
:1012100010BD00BF6018002038B51D46074B0360A5
:10122000074B1B68044633B9064802F057FE2946AF
:10123000044802F037FF204638BD00BF20A6030057
:10124000CC18002060180020002070470020704754
:1012500008B5012000F01DF8074A08491368184432
:10126000884289BF064B10600C224FF0FF308CBFC4
:101270001A601846704700BF1003002000F80320D2
:10128000182B002008B508B1FFF7DEFCFEE70120AF
:10129000704708B5FFF7F6FF0120704708B500F06A
:1012A00039FA08BD08B500F03DFA08BD10B504468E
:1012B000037803F00303012B08D0FFF75DFF2378C9
:1012C00003F00302012A03D1FFF760FF002010BDE5
:1012D0002AB140F2E75204490448FFF7A1FC43F069
:1012E00002032370012010BD93A60300B8A60300DB
:1012F00008B5037803F00302022A05D04FF4BE625A
:1013000006490748FFF78CFC23F0030343F0010371
:101310000370BDE80840FFF739BF00BF93A6030084
:10132000D6A603003F2870B504462FDC184D55F8AB
:1013300020305A1C13D1022811DCFFF787FF034627
:1013400058B92046FFF780FF034630B9114E337875
:10135000BFF35B8FDB0704D50F4B45F824301846ED
:1013600070BD3046FFF7A2FF0028F5D04FF41653AA
:10137000082206210848FFF74FFF3046FFF7B8FF65
:10138000064A07490448FFF782FFE5E70023E6E73E
:10139000100200204C0F0020500F002000020020FF
:1013A0007511030038B50C461546FFF7BBFF38B979
:1013B00004F036FA092303604FF0FF34204638BDAD
:1013C00003682146DB682A469847041EF6DA04F0D3
:1013D00027FA64420460EFE713B5044604F084FB87
:1013E000034628B90090224602490348FFF758FEF9
:1013F00002B010BD74A603001F01018004F07CBB85
:1014000007B5094AD2E85F3F0133C2E8513F0029DE
:10141000F8D19BB22BB91288044900930448FFF716
:101420003FFE03B05DF804FB5C0F00200DA7030036
:101430002301048007B50B4AD2E85F1F0139C2E8D7
:10144000531F002BF8D14FF6FF7089B2814205D1AE
:101450001288054900930548FFF722FE03B05DF8A6
:1014600004FB00BF5C0F00202FA7030024010480B1
:1014700008B5FFF79BFC064B1B889BB22BB902F00B
:101480006DFFBDE80840FFF7A7BC02F043FFF8E797
:101490005C0F002070B50446FFF786FA0646FFF79A
:1014A0006CFA05463046FFF768FA401BA042F9D3B4
:1014B00070BD000013B50446FFF771FC40B9FFF79B
:1014C00068FC28B1204602B0BDE8104001F02CBEF7
:1014D000002300931A4602490248FFF7E1FD00BFCE
:1014E0004DA703000601018010B5034B03600446BD
:1014F000FEF70AFF204610BD9CA7030010B5044666
:10150000FFF7F2FF20463821FFF778FF204610BD95
:1015100010B50446FEF7D2FE0A4B236000220023DA
:10152000C4E90823C4E90A23A069FFF715FA0123D7
:1015300084F830300023C4E9080184F831302046B3
:1015400010BD00BF9CA70300024B0349586801F07F
:10155000CBBD00BF18AA0300591A030090F8300051
:101560007047F8B50446FEF7C9FE002384F8313011
:10157000012384F83030A069FFF7EEF9D4E9086759
:10158000801B4FF0000361EB07014FF47A7208F003
:10159000E7FB50EA010303D010F1FF3041F1FF31C6
:1015A0004FF47A75A0FB0523B61805FB01335F41A4
:1015B000D4E90A2312184B41C4E90867C4E90A2395
:1015C000F8BD70B504460D46FFF7F0FBD4E90801FD
:1015D0004FF47A726A43851841F100062A46334671
:1015E0002046FEF781FEBDE87040FFF7F5BB38B539
:1015F00004460D46FEF782FE002384F830300123B6
:1016000084F8313029462046BDE83840FFF7D9BF7D
:10161000FEF774BED0E90A23013243F10003C0E9AA
:101620000A23D0E9082312F57A7243F10003C0E9D6
:101630000823704710B50446FFF7B8FB94F8313023
:1016400033B1012384F83030BDE81040FFF7C4BB4C
:10165000054B4FF0806220465A60FFF7DBFF012107
:101660002046FFF7AEFFEFE700ED00E008B5094BBD
:10167000094A1A60094B9B1A094A1360094B0A4A26
:101680001A600A4B9B1A0A4A136000F051F800F0E6
:1016900065F800BFC40F002000F8032000000420FC
:1016A000C00F0020580F0020202B002000F803203E
:1016B000540F00200E4838B50E4B03600B251C2438
:1016C0000D4B4560C460836001F06AF80B4B1860F5
:1016D0000B480C4BC46080E828000B4B836001F082
:1016E0005FF80A4B1860BDE8384004F0D5B900BF78
:1016F000900F0020A8A70300A40F0020A00F002037
:10170000600F0020B5A70300740F0020700F0020A9
:10171000FEF766BD024B4FF0FF31186801F058B874
:10172000A00F0020014B186801F06AB8A00F00203C
:1017300008B502F00FF9BDE8084000F00CB870479A
:1017400008B5FFF7B7FFFFF7FAFFFFF777FCBDE833
:101750000840FFF7DDBF00F029BB000007B51748C0
:10176000174B03600B2343601C23164CC360164BBE
:101770008360164B23614FF4805363614423E3601D
:10178000134BA3601823A361124B236001F008F8E8
:10179000114B224618600021104801F015FC034649
:1017A00028B90F49009022460E48FFF779FC00F057
:1017B00015FB002300931A460B49F5E7EC2A00209D
:1017C000BFA70300C82A0020FC2A0020C81A002056
:1017D000C80F0020CFA70300C01A00204117030044
:1017E000D4A703001D010180F0A7030073B50646CE
:1017F0000C461546FFF74EFC60B9A11D052996BFA2
:10180000054B064953F82110002300933246284621
:10181000FFF746FC02B070BD08A8030028A903002A
:1018200008B500F0BDF8000007B5411E02460023D0
:10183000042923D8DFE801F0030A10161C0012491E
:101840001248009301220023FFF72AFC0093022292
:1018500000230F490F48F7E70093032200230E49A6
:101860000E48F1E70093042200230D490D48EBE7F1
:101870000093052200230C490C48E5E700930C492E
:101880000C480023E0E700BF20A8030025010280E8
:1018900041A803002601028066A8030027010280F8
:1018A0009BA8030028010280D6A803002A01028019
:1018B00016A9030000010280014A0146FFF796BF06
:1018C00031010180014AFFF791BF00BF3201018061
:1018D000014AFFF78BBF00BF33010180014AFFF7C8
:1018E00085BF00BF3801018010B501F085FB034BB7
:1018F0001B6813B1BDE81040184710BD0C10002044
:10190000F8B500F081FA054608B9FFF779FD114CEA
:10191000114F20682946FFF76AFE00262068FFF76E
:101920001DFE68B966B9FFF741FABB7A33B9FFF714
:101930009FFDFFF751FABFF36F8FEFE70126F8E73E
:101940000DB9FFF777FD2068FFF70BFEBDE8F84003
:1019500000F06EBA481000201803002038B5094C7A
:1019600023684BB9FEF7D2FD074D01462846FFF725
:10197000CFFD2560FFF7E8FD20680121BDE8384074
:10198000FFF71FBE4810002010100020014B186800
:10199000FFF73EBE4810002070474FF0FF30704701
:1019A00008B5024C23689847FCE700BF14030020E9
:1019B0001EF0040F0CBFEFF30880EFF3098081697C
:1019C00011F8021C91BB01B590E80F10E047BDE88B
:1019D00000508CE80300244B93E80600914208BFB6
:1019E000704741B91EF0100F10D12049086820F04F
:1019F000010008600AE02CE9F00F1EF0100F08BF8C
:101A00002CED108AC1F838C081F822E01A6092F8F3
:101A10002210906B61F0FF0E1EF0100F08BFB0ECAB
:101A2000108AB0E8F00F80F309887047104A1368F5
:101A30009942FAD801B552F821C00FC8E047BDE875
:101A40000050CCF80000704701B500F039FFBDE848
:101A50000140EFF3098CBEE701B500F0F7FEBDE8E9
:101A60000140EFF3098CB6E72C03002034EF00E0CF
:101A700080AA030008B5014610B1132001F012FA44
:101A8000002008BD08B5EFF3058333B16FF0050002
:101A900000F012F86FF0050008BDEFF31083002B83
:101AA000F4D1EFF31183002BF0D1DFF808C000DF91
:101AB00008BD00BF751A03007047EFF310832BB900
:101AC000EFF31180003018BF0120704701207047EC
:101AD00070B54D4C217A012900F0878031B14FF06B
:101AE000FF30FFF7E9FE4FF0FF3070BD474D9C22FD
:101AF00004F1080004F022FCEB68EE6AE3652B8A2F
:101B0000A4F85430296BAB682364304600F0A6F982
:101B100008B1C4F880606E69A969304600F09EF98A
:101B2000002864D06667EE69296A304600F096F9AD
:101B3000002860D0A6676E6AA96A304600F08EF968
:101B400000285CD0E6676E6B3EB1F368B26831681E
:101B5000304600F0EFF9C4F88460AE6B3EB1F36834
:101B6000B2683168304600F0E5F9C4F88860EE6B81
:101B70003EB1F368B2683168304600F0DBF9C4F872
:101B80008C602E6C3EB1F368B2683168304600F06C
:101B9000D1F9C4F890606E6C3EB1F368B2683168F8
:101BA000304600F0C7F9C4F89460AE6C3EB1F368FB
:101BB000B2683168304600F0BDF9C4F89860EE6C48
:101BC0003EB1F368B2683168304600F0B3F9C4F84A
:101BD0009C602D6D3DB1EB68AA682968284600F02D
:101BE000A9F9C4F8A05001232372002070BDD4F8D5
:101BF0008030636797E7D4F88030A3679BE7D4F819
:101C00008030E3679FE700BF1803002018AA030095
:101C100038B5264C237A012B06D06FF00600FFF76B
:101C20004BFE4FF0FF3038BD01F0AEF910B94FF068
:101C3000FF30F4E71E4A1F4D1F496868FF2382F8F2
:101C4000223092F82230D26863F0FF03DB4314BFE6
:101C5000B3FA83F32023C3F12003C2F30222934299
:101C600098BF531CFE2202FA03F3114ADBB2D3776A
:101C700001F03AFA0028DAD1FFF78FFE2061FFF772
:101C80006DFE0E4800F05EFF00F0C2FF2B6813F0FF
:101C9000010F4FF0020304D083F314882372002055
:101CA00038BD032282F31488F8E700BF1803002030
:101CB00000ED00E018AA0300591A030034030020C5
:101CC00010B5134C237A022B05D06FF00700FFF7F5
:101CD000F3FD002010BDFFF759FE01236372BFF32F
:101CE0004F8F0C4A5168C90042BF4FF000615160EC
:101CF000A372E36A4BB1D869636C1BB11B6998424C
:101D000028BF18460423237210BD4FF0FF30F3E7BD
:101D10001803002000ED00E0F8B5214C237A042BD5
:101D200005463BD1E3680344E360E36A53B10646EA
:101D30000127DA69B24225D8DF61B61A00F030FF18
:101D4000E36A13BB636C4BB101261869A8421FD824
:101D50001E61236D2D1A9847636CE3B9022300209E
:101D6000237200F05FFF00236372BFF34F8FA27AEC
:101D700022B1A3720B4B4FF080525A60BDE8F8407D
:101D8000FFF7ECBD961BDE61DCE7002ED1D1D9E771
:101D9000401B1861E2E7002DD7D1DFE7F8BD00BF97
:101DA0001803002000ED00E07047000008B5FFF7C1
:101DB000FBFFEFF3058333B16FF00500FFF77CFD08
:101DC0006FF0050008BDFFF778FE0028F4D1DFF8BA
:101DD00008C000DF08BD00BFD11A030008B5EFF34B
:101DE000058333B16FF00500FFF766FD6FF0050066
:101DF00008BDFFF762FE0028F4D1DFF808C000DF5D
:101E000008BD00BF111C030008B5EFF305832BB11B
:101E10006FF00500FFF750FD002008BDFFF74DFEF5
:101E20000028F5D1DFF804C000DF08BDC11C0300A5
:101E300008B50246EFF305832BB16FF00500BDE84E
:101E40000840FFF739BDFFF738FE0028F5D11046EE
:101E5000DFF804C000DF08BD191D030010B5A8B1EC
:101E600040EA010313F007030DD117290DD90160D2
:101E700008390C181022846042600B5081684A6057
:101E8000C360012010BD002010BD184610BD70B504
:101E9000B0B100292ED032F003032BD10F3121F045
:101EA000070100F108052E686C68731B24F0030419
:101EB0001B1B994205D933683546002BF3D11846D0
:101EC00070BD446803680C44446018440838436893
:101ED0009C4288BF44606B6811431BB9696005F17F
:101EE000080070BD23F00303E818EE50416028603D
:101EF000083070BD002070BD10B5D0B1C1B1A1F1E6
:101F0000080400F108030022A34209D1596821F016
:101F100003044168091B41603AB95A60012010BDB1
:101F200019681A4621B10B46EEE71B681360F5E706
:101F3000084610BD30B5C0B189B1C2B1CBB10024E3
:101F4000446002FB01F41D1901608260C3604361BB
:101F500005611846013904D1A21A99500121084699
:101F600030BD851805602846F4E70146F7E71146BD
:101F7000F5E71946F3E710B50346B0B100F11402D6
:101F800052E8000F10B9BFF32F8F04E0016842E858
:101F9000001404B1F4E740B1043353E8002F511C9E
:101FA00043E8001404B1F8E710BD10BD30B5F0B13E
:101FB000C3688B421BD80369994218D200F11403FD
:101FC0001A680A60BFF35F8F53E8002F0C689442D1
:101FD000F6D143E8001505B1F2E7043050E8003FC0
:101FE0005A1E40E8002101B1F8E7002030BD6FF033
:101FF000030030BDEFF310832BB9EFF311800030F5
:1020000018BF0120704701207047036B30B5E3B162
:10201000CD780024DA78AA420FD31A464A608C6041
:102020008AB19160A4B16160283050E8003F5A1C29
:1020300040E8002101B1F8E730BD5A681C46002A8B
:10204000ECD01346E6E7C162ECE74B608B60C162FF
:102050000163E9E74B688A6823B19A608A681AB11C
:1020600053607047C262F9E703637047F8B586783A
:10207000044696B3C56801460026284605F10C07BC
:10208000FFF7E8FF267021463846FFF78FFFAB6861
:10209000002B48D03846FFF76EFF0446002842D098
:1020A000284600F04FFD32460746314600F0E6FD77
:1020B000384600F08FFD6A6A8168074604F10C001B
:1020C00004F03EF8F9232370A670FB68E370214604
:1020D0002846BDE8F840FFF798BF8568AB68002B3D
:1020E000F5D05B78832BF2D1284600F02BFD3246E9
:1020F0003146074600F0C2FD384600F06BFD06464B
:102100006A6A806804F10C0104F01AF8F3680BB1F4
:10211000E2781A7000232370214605F10C00BDE817
:10212000F840FFF743BFF8BD2DE9F74F8946074652
:1021300000B131B96FF003010020FFF7CFFB0020A1
:102140007BE0CD1C25F003050C3514BFB5FA85F1F5
:102150002021B0FA80F30B441F2BEBDD05FB00FAC6
:10216000F2B19468D2F80080166953693CB1A107B6
:1021700002D1D268332A05D86FF00801DCE7D268B3
:10218000002AF9D13EB116F0030B01D19A4557D977
:102190006FF00901D0E7002BFAD11CB19B460CE08F
:1021A00090461646284BD3F8A000E0B1FFF7E3FEB7
:1021B0000446A8B14FF0010B3EBB234B0193D86FEF
:1021C00000225146FFF763FE019B0646B8B9BBF1FA
:1021D000000F05D0D3F8A000214658B1FFF7E6FE66
:1021E0006FF00401A8E701223421D3F88000FFF743
:1021F0004EFEDDE7D3F88000FFF77EFEF0E75246A3
:10220000002104F09BF84BF0020BFA23237000230B
:10221000A360A362E36223632A46334684F802B0D4
:10222000C4F80480C4F82490394604F10C00FFF788
:1022300081FE054B054A1A67204603B0BDE8F08FC2
:10224000002CE2D1AEE700BF180300206D20030090
:102250002DE9F0410C4617469846054618B103781B
:10226000FA2B00D141B928466FF00301FFF736FB86
:102270006FF00300BDE8F0818368C3B15B78832B06
:1022800015D100F05FFC01220646002100F0F6FCAB
:10229000304600F09FFC06466A6A8068214603F0DB
:1022A0004FFFF06858B307700020BDE8F08105F1DA
:1022B0000C00FFF760FE064670B121466A6A0C30DA
:1022C00003F03EFF0024F9233370B470F7703146F9
:1022D0002846FFF79AFEE7E7B8F1000F11D0414614
:1022E000932000F0DFFD40B1084B2846596900F00B
:1022F00017FCEFF309839C60DF606FF00100BDE81D
:10230000F0816FF00200BDE8F08100BF18030020EB
:1023100010B500F1280353E8002F12B9BFF32F8F37
:1023200004E0511E43E8001404B1F4E70AB90020A8
:1023300010BDC06A01230028F9D0821CD2E84F1FCB
:10234000C2E8443F04B1F9E711F0FF0F01D0806803
:10235000F1E710BD2DE9F0410F46144698460546B9
:1023600018B10378FA2B00D141B928466FF0030168
:10237000FFF7B4FA6FF00300BDE8F081FFF7C8FF84
:10238000064600283BD001462846FFF763FE6A6AEE
:1023900006F10C01384603F0D3FE0CB1F37823703C
:1023A000002405F10C07347031463846FFF7FEFD76
:1023B000AB6813B90020BDE8F0813846FFF7DBFDBC
:1023C00006460028F6D0284600F0BCFB214607460A
:1023D000012200F053FC384600F0FCFB6A6A816879
:1023E000074606F10C0003F0ABFEF9233370B4701E
:1023F000FB68F37031462846FFF707FEDAE7B8F1CD
:10240000000F11D04146832000F04CFD40B1084B35
:102410002846596900F084FBEFF309839F60DC6074
:102420006FF00100BDE8F0816FF00200BDE8F081BF
:102430001803002010B50446EFF3058333B16FF0A5
:1024400005010020FFF74AFA002010BDFFF7D2FD7A
:102450000028F4D12046DFF808C000DF10BD00BF1F
:10246000292103002DE9F04106460F4690461C46FF
:10247000EFF305834BB19EB930466FF00301FFF7D0
:102480002DFA6FF00300BDE8F081FFF7B3FD0028DF
:10249000F1D130462346DFF850C000DFBDE8F081BF
:1024A0003378FA2BE8D1002FE6D0002CE4D106F1E6
:1024B0000C00FFF760FD054688B1726A39460C30A2
:1024C00003F03EFEF92328462B70AC7085F803809C
:1024D0006F60AE6000F03CFA2046BDE8F0816FF01E
:1024E0000200BDE8F08100BF51220300F8B50446A8
:1024F0000F4616461D46EFF3058343B18CB92046BF
:102500006FF00301FFF7EAF96FF00300F8BDFFF782
:1025100071FD0028F2D120462B46DFF844C000DFD1
:10252000F8BD2378FA2BEAD1002FE8D0002DE6D1B0
:102530002046FFF7EDFE054670B100F10C01626A1E
:10254000384603F0FDFD0EB1EB7833702846EC60A1
:1025500000F0FEF90020F8BD6FF00200F8BD00BFEA
:1025600055230300EFF310832BB9EFF311800030F4
:1025700018BF0120704701207047000070B5002887
:1025800035D0846890E8600064B114F0030302D190
:10259000C2681B2A19D86FF008010020FFF798F9CC
:1025A000002070BDC368002BF5D1124BD3F8940006
:1025B00030B901221C21D3F88000FFF768FC01E04C
:1025C000FFF7D9FC044668B10123F522A37000236C
:1025D0002270E6706560A360E36023616361237627
:1025E000204670BD6FF00401FFF772F9F8E7054669
:1025F0000646DAE718030020284B70B55D690446EB
:102600000E4635B96FF00701FFF762F94FF0FF3062
:1026100070BD10B10378F52B07D020466FF0030191
:10262000FFF756F96FF0030070BD037E53B9EA6AF5
:10263000C5604261036102B11061EC62012323763F
:10264000002070BDC278D1070DD5C168A9420AD15A
:10265000FF2B06D16FF00F01FFF73AF96FF0020080
:1026600070BD0133EBE7002EF8D093070AD5E06880
:1026700095F9203090F920209A4203DA80F8203032
:1026800000F073FA3146532000F00CFC18B12946D3
:10269000204600F045FA6FF0010070BD18030020DD
:1026A00038B52E4B5A69044632B96FF00701FFF76F
:1026B0000FF94FF0FF3038BD10B10378F52B07D07C
:1026C00020466FF00301FFF703F96FF0030038BDF8
:1026D000037E33B96FF00E01FFF7FAF86FF00200D6
:1026E00038BDC168914202D06FF00D01F4E7013BA3
:1026F000DBB2037623BB43690BB101691961216920
:1027000001B34B61E3789B0705D592F92110D36A99
:10271000D3B982F82010A3687BB1204600F012FAEA
:1027200000220546114600F0A9FAEB6A6361002316
:1027300023610123E560EC622376002000F072FA49
:10274000002038BDD362DDE7986820B190F9200001
:102750008142B8BF01465B69DAE700BF1803002079
:102760002DE9F0410446002601270CB9BDE8F081AF
:10277000E378D4F814801B0710D5A36826766BB1D4
:10278000204600F0DFF900220546114600F076FAF7
:10279000EB6AE56063612661EC6227764446E4E714
:1027A00008B50246EFF3058333B16FF00501002051
:1027B000FFF78EF8002008BDFFF7D4FE0028F4D103
:1027C0001046DFF808C000DF08BD00BF7D2503000C
:1027D00008B50246EFF305833BB110466FF00501E3
:1027E000FFF776F86FF0050008BDFFF7BBFE002885
:1027F000F3D11046DFF804C000DF08BDF92503005F
:1028000008B50246EFF305833BB110466FF00501B2
:10281000FFF75EF86FF0050008BDFFF7A3FE002884
:10282000F3D11046DFF804C000DF08BDA126030085
:1028300010B5D0E85F3F5A1C914200D80022C0E892
:10284000542F04B1F5E798B210BD000038B51B4C09
:10285000FFF7A2F8E3680133E360236D03B1984703
:1028600000F09EF9002000F0DDF9236C2BB1A26B83
:10287000A1698A4202D0A163E36338BDE36B0BB167
:10288000013BE363E36B002BF7D1237A022BF4D1F6
:10289000656A002DF1D095F9201092F92030994207
:1028A000EBD1284600F057F9A06B00F071F92846EB
:1028B00000F0AEF9A563236CDEE700BF180300202B
:1028C00070B5224C04F1560504F15A06B4F85410C0
:1028D000D5E85F3F13B9BFF32F8F04E05A1EC5E858
:1028E000502F00B1F4E79BB25BB33046FFF7A0FF77
:1028F000E36D53F8200020B30378F13B082BE5D8B3
:1029000001A252F823F000BF2D290300CD280300B7
:1029100033290300CD280300CD2803003729030005
:102920003B290300CD2803003F290300236E98476D
:10293000CCE7636EFBE7A36EF9E7E36EF7E7236F7F
:10294000F5E70020BDE8704000F06CB918030020E6
:1029500070B5164C0546B4F8541004F15602D2E88E
:102960005F3F994202D8BFF32F8F04E0581CC2E8A2
:10297000560F06B1F3E79BB2994210D904F1580003
:10298000FFF756FFE36D43F82050637A23B9084BF5
:102990004FF080525A6070BD0123A37270BD29466A
:1029A0000220BDE87040FEF73FBF00BF18030020C3
:1029B00000ED00E0EFF310832BB9EFF3118000304E
:1029C00018BF0120704701207047000010B5012397
:1029D000094A437090F92010536A1C321BB193F9D5
:1029E00020408C4205DCC2608360906003B1D860F7
:1029F00010BD1A469B68F1E718030020014B586987
:102A0000704700BF1803002008B5FEF76DFFDFF820
:102A100010C000DF4FF0FF310020FEF753FFFEE74C
:102A2000252F030012F0020F10B502F0010222D18F
:102A300000F1280382B153E8000F00EA01028A4244
:102A400003D0BFF32F8F002005E020EA010243E806
:102A5000002404B1EFE710BD53E8000F084203D192
:102A6000BFF32F8F002005E020EA010243E8002495
:102A700004B1F1E710BD806A01EA00031AB199427E
:102A800018BF002010BD002B08BF002010BD0000A3
:102A900010B5C4694169631C03690AD103B1596166
:102AA00042691AB113610023436110BD064A1363E2
:102AB00010BD1BB1DA6959612244DA614269002A0A
:102AC000F0D1014AD36210BD1803002010B50023D5
:102AD0004370037083789A07044608D513F0100FEB
:102AE000016B0E4B0FD0D3F88400FFF75FFAA37889
:102AF000DB0712D5094BD3F88800214638B1BDE871
:102B00001040FFF753BA586FFFF7F6F9EFE7D3F825
:102B10008000BDE81040FFF7EFB910BD180300209A
:102B200010B591F9202083681BB193F9204094429D
:102B300005DAC8608B60816003B1D96010BD1846AA
:102B40009B68F1E783689A68826002B1D0600022D6
:102B5000DA6018467047C36833B182689A60826849
:102B600002B1D3600023C360704710B5014604462C
:102B700064B12378F12B07D00846FFF7ECFF20461D
:102B8000BDE81040FFF7CCBFE468F1E710BD0000DE
:102B90000123014643700148FFF7C2BF3403002000
:102BA00038B50B4DEC6A94B1E369013BE36173B94D
:102BB0002046FFF7D0FF2046FFF7EAFF246924B143
:102BC000E369002BF4D000236361EC6238BD38BDAB
:102BD0001803002090F82230826B13F0100F0CBF06
:102BE0006020202010447047074B596951B10B6B8E
:102BF0008A6B934203D21A68044B9A4202D0012096
:102C0000FEF712BE704700BF18030020A52E5AE23F
:102C100008B502234370024B9861FFF7E5FF08BD3A
:102C20001803002010B5144B04461A7A5969A0B94C
:102C3000022A1FD15C6AECB194F9202091F920306E
:102C40009A4217DD2046FFF786FF0846FFF7BEFED3
:102C50002046BDE81040FFF7DBBF022A05D190F9FE
:102C6000202091F920309A42EFDC2046BDE8104048
:102C7000FFF78EBF10BD00BF1803002038B5044613
:102C80001546FFF7A7FF01602046FFF701FF20462A
:102C90001DB1BDE83840FFF7C5BFBDE83840FFF7BC
:102CA00077BF10B54378332B04460CD1416A90F8B6
:102CB0002320FFF7B7FE014628B120460022BDE8D9
:102CC0001040FFF7DBBF10BD2DE9F04F85B0824605
:102CD000029128B96FF00301FEF7F4FD0020B8E07F
:102CE000002A48D0946816695569976944B1A307CA
:102CF00002D1D368432B06D86FF008010020EBE720
:102D0000D368002BF8D13EB1700702D1002D40F0FE
:102D1000B9806FF00A01F1E72FB17B1E372B03D981
:102D20006FF00B01EAE718271DB16907F1D1472DB4
:102D3000EFD95368D2F8009001934CBB544BD3F8B1
:102D40008800F0B1FFF717F90446002800F09780DB
:102D50004FF00108002E36D1DFF834B1DDB94D4A0D
:102D6000DBF88400556DB0B1FFF705F9D8B148F034
:102D70001008064623E0914618271546164601928C
:102D8000DCE701224421D3F88000FFF780F8DBE77D
:102D90004FF00008DEE732462946DBF87400FFF703
:102DA00076F80028E5D1B8F1000F5CD0DBF8882078
:102DB000002A51D021461046FFF7F8F8002448F0C9
:102DC0000208002C5BD0F1232370012363709DF86F
:102DD0000430E3700023A360E36023616361A361B7
:102DE000E36184F823306362A362E362A5F14003E8
:102DF00033447FB2A363FD22274B84F80280C4F8DA
:102E0000049084F8207084F8217084F822202663CE
:102E10006563C4F83CA033601E4B1B685B0724D479
:102E2000A36B00201A1F03F1300142F8040F9142F6
:102E3000FBD11A4A5A634FF08072DA63029A1A621F
:102E4000C3F838A0124B164A1A662046FFF7EAFE6E
:102E5000204605B0BDE8F08F2146DBF880000392E4
:102E6000FFF74AF8AAE74446A9E7AD08113D4FF03D
:102E7000CC33002DD4D046F8043F013DF9E76FF084
:102E800004013BE7002F7FF448AF18274DE700BF50
:102E90001803002018AA0300A52E5AE2092A0300ED
:102EA000A32C030038B51D4C237A022B34D1636A5E
:102EB000002B31D063694A1C587015D1226B002158
:102EC0006AB94FF0FF30D86159611A6151B10B6195
:102ED0001348FFF737FEFFF79BFE012038BD114670
:102EE0001269EDE72363F3E7E26A002012B1D569C6
:102EF000A9420BD2D96158611A6158B10361002A05
:102F0000E6D0D0695361411AD161E1E71046491B0F
:102F10001269EBE7E362F2E7002038BD18030020F6
:102F20003403002038B5164D2B7A022B27D16B6A5B
:102F30002BB36C69E06AFFF713FCA06918B100229B
:102F40001146FFF79BFEEFF309830E48A363FFF7DB
:102F5000F9FDFFF75DFE00236B61E378DB0701D528
:102F6000A36923B12046BDE83840FFF7AFBD042276
:102F70006270E3606B6BA36003B1DC606C6338BDAF
:102F8000180300203403002038B50B4C0B48A26D09
:102F90000B4D0021FFF798FE636EA8624BB1E26D06
:102FA00008480021FFF790FEA864003018BF0120F8
:102FB00038BD012038BD00BF18AA03002118030046
:102FC00018030020AD30030010B50446EFF305836D
:102FD00033B16FF005010020FEF774FC002010BD36
:102FE000FFF7E8FC0028F4D12046DFF808C000DF36
:102FF00010BD00BFC92C030008B5EFF3058313B162
:10300000054B586908BDFFF7D5FC0028F8D1DFF85B
:103010000CC000DF08BD00BF18030020FD2903001D
:103020000C4A536C30B5002413B11D69A9420AD271
:1030300001618460C3601BB11D699860691A1961E0
:103040002CB1E06030BD1C46491BDB68ECE75064E6
:1030500030BD00BF1803002070B5134D6C6C04B375
:103060002369013B236101262369D3B9E3680BB1CE
:10307000A2689A606B6400231A4604F11801E86C98
:10308000FFF7F0F918B121460320FEF7CDFBE378F6
:10309000012B07D161692046FFF7C2FF6C6C002C41
:1030A000E2D170BD6670F9E7180300200B4B0C4CA1
:1030B00007B51A6E586E0821FFF7BCF9094AE0649B
:1030C00022654FF0FF3300226946E06CFFF70EFAED
:1030D0000028F6D10198009B9847F2E718AA030050
:1030E0001803002059300300A8B10C4B1B68B3FB38
:1030F000F0F00138B0F1807F0DD2094BFF2283F848
:103100002320A3F54F6306221A60586000209860C0
:10311000044B187070474FF0FF307047BC0300201D
:1031200000ED00E09816002008B5FEF7ABFC20B1DA
:103130006C2202490248FDF773FD08BD06AB03008F
:10314000F7AA03000749084A084B9B1A03DD043B12
:10315000C858D050FBDC06488047064880470648E0
:103160000047000020AF030000020020C00D002037
:10317000C13103002D3903006D010300FEE7FEE7B6
:10318000FEE7FEE7FEE7FEE7FEE7FEE7FEE7FEE717
:103190001030024B43F82010704700BF00000020A1
:1031A000054B1B68082B01BF044B1868B0FA80F070
:1031B000400918BF00207047300100103401001092
:1031C00008B5FFF7EDFF40B14FF080430022C3F890
:1031D0000C21C3F81021C3F83825FFF7E1FF0028C0
:1031E00046D04FF08052714BD2F80414C3F820152A
:1031F000D2F80814C3F82415D2F80C14C3F8281513
:10320000D2F81014C3F82C15D2F81414C3F83015E2
:10321000D2F81814C3F83415D2F81C14C3F84015AA
:10322000D2F82014C3F84415D2F82414C3F8481572
:10323000D2F82814C3F84C15D2F82C14C3F8501542
:10324000D2F83014C3F85415D2F83414C3F860150A
:10325000D2F83814C3F86415D2F83C14C3F86815D2
:10326000D2F84014C3F86C15D2F84424C3F8702582
:10327000FFF796FF10B14E4B4E4A1A60FFF790FFD2
:1032800018B14D4BFB22C3F81825FFF789FF48B151
:103290004A494B4B0A681B6822F00F0203F00F03E8
:1032A00013430B60FFF77CFF18B1464B4FF40072DD
:1032B0001A60FFF775FF48B14FF08043D3F8002440
:1032C000D20744BF6FF00102C3F800243E4AD2F88F
:1032D000883043F47003C2F88830BFF34F8FBFF3D8
:1032E0006F8F4FF01023D3F80022002A03DBD3F8AE
:1032F0000432002B2FDA354B0122C3F80425D3F812
:103300000024002AFBD04FF010221221C2F8001234
:10331000D3F80024002AFBD04FF010231222C3F868
:1033200004222A4B1A46D3F800140029FBD00021AE
:10333000C3F80415D2F80034002BFBD0BFF34F8F35
:103340002149234BCA6802F4E0621343CB60BFF308
:103350004F8F00BFFDE71F4B1F4A1A604FF080439D
:1033600001220021C3F81825C3F804119A60D3F88C
:103370000421002AFBD01949CA6842F08072CA6051
:10338000D3F85C2542F48032C3F85C25D3F85C2581
:1033900042F00302C3F85C254FF0A04340F2013233
:1033A000C3F848270E4B00221A6108BD00C0004038
:1033B0008C5600404881030000F00040E40E0040BD
:1033C000580200104096024000ED00E000E001408D
:1033D0000400FA05BC0300200090D003F0ED00E0EB
:1033E000000004E00D4B07B51A6842B100221A60D4
:1033F0001B680B4A0193019B136801331360094B4F
:103400001A68094B0AB91A782AB11A780AB1002247
:103410001A70FDF77FF803B05DF804FB041101405A
:103420009C16002044110140991600202DE9FF410F
:10343000DFF88C801C4E98F800501C4C5DB10023C6
:10344000336033680193019B4FF40033C4F80833B1
:1034500004B0BDE8F081164B164901271F6011200A
:10346000FFF796FEC4F80855356033680393039B55
:10347000114B1D601B680293029B4FF00213C4F8AE
:1034800048330223C4F804330C4B4FF4003240217C
:10349000C4F8082383F81113C3F880211A60276049
:1034A00088F80070D4E700BF4411014000100140CB
:1034B00004100140E53303000411014000E100E085
:1034C0009A160020094B01221A60094A4FF4003372
:1034D000C2F80833074AC2F88030BFF34F8FBFF3FA
:1034E0006F8F054B00221A70704700BF0410014017
:1034F0000010014000E100E09A16002073B5044678
:103500000E461546FDF752FC104B24F07F40D3F8D1
:103510000445A04204D0013424F07F44A04202D1EB
:10352000023020F07F4006F5A87643F82600D3F855
:103530000413294006D1064A116012680192019ACB
:10354000C3F80453FDF748FC02B070BD0010014001
:1035500044110140024803780BB100F0C7BF704727
:10356000C0030020024B012200201A7000F0CCBFE3
:10357000C0030020104B10B502460446D3E90001F9
:1035800005F046FF002100F0010050EA010312D0CF
:103590000A4B1A5D910706D5D20604D42046BDE831
:1035A000104001F0A1BD1B5DDB0604D52046BDE83F
:1035B000104001F0E9BE10BD9017002060170020F8
:1035C0001F288BBF00F01F030346174A4FF0A0428D
:1035D00003F5E07370B552F82330C3F30143032BB6
:1035E000124B02460446D3E900010CBF0125022517
:1035F00005F00EFF002100F0010050EA010311D098
:103600000B4B012D1B5D02D15A0602D470BD9B06E7
:1036100008D5084B084A1B6852F824002946BDE823
:103620007040184770BD00BF00030050981700207D
:1036300060170020A0170020A016002073B5434D8E
:10364000434E2B5C13F0010F044601D1DB0671D50C
:103650002B5D980704D5C3F30013DAB2002A4FD0CC
:103660009DF8063003F0FD036FF300038DF806307C
:1036700003238DF804302B5DC3F38103DAB2012AF2
:1036800002D0032A18BF00238DF805302B5DD90620
:1036900026D5304A01A9204601F08CFD2E4B22464A
:1036A000D3E9000105F0B4FE002100F0010050EA6A
:1036B000010308D02B5D5A0601D49B0603D50121D6
:1036C000204601F0F5FD22460120002105F0ACFE68
:1036D000D6E9002310431943C6E9000102B070BDCA
:1036E0001F2C23469DF8052086BF1C4904F01F03AC
:1036F0004FF0A04103F5E073920041F82320E2E788
:103700001F2C8DF8063088BF144BADF8042094BFF1
:103710004FF0A04304F01F02D3F8043598BF2246AF
:10372000D34003F0010301A920468DF8053001F0D4
:1037300067FCC8E702460021012005F075FED6E9C6
:10374000002322EA000023EA0101C5E760170020F8
:1037500090170020C1350300981700200003005087
:103760004B1C10B50446017014D0C9B22F2904D9DE
:10377000532209490948FDF753FA09490620FFF782
:1037800007FD01F0FBFB074994F900208B5C43F037
:1037900001038B5410BD00BF9CAB0300E1AB0300E1
:1037A000FD5303006017002090F90000421C08B58B
:1037B00004D166220F491048FDF732FA0F4B1B5C0B
:1037C0009B070DD51F288ABF0D4B4FF0A04300F07B
:1037D0001F00D3F8043523FA00F000F0010008BD03
:1037E0001F288ABF064B4FF0A04300F01F00D3F8FC
:1037F0001035F0E79CAB0300C3A003006017002066
:103800000003005038B5044690F90000431C0D46F3
:1038100004D1A62209490A48FDF702FAC0B2FFF70F
:10382000A9FE94F90000074B1A5C65F383021A5451
:10383000C0B2BDE83840FFF701BF00BF9CAB03003A
:10384000C3A003006017002038B5044690F90000BB
:10385000431C0D4604D1B12209490A48FDF7E0F99D
:10386000C0B2FFF787FE94F90000074B1A5C65F3BE
:1038700041021A54C0B2BDE83840FFF7DFBE00BFB6
:103880009CAB0300C3A003006017002070B5254E59
:103890000446002316F933506A1C06EBC30011D00E
:1038A00090F90120B2F1FF3F0CD0A5421ED18A420F
:1038B0001CD140681C4B03F8104003EB4003451C2F
:1038C00059702DD1184B93F9000084421A4603D148
:1038D00093F901308B420BD092F902309C420BD10C
:1038E00092F903508D4207D1012070BD0133D1E719
:1038F000002070BD00230CE0013003D192F90100DB
:103900000130F7D00133EFD192F903300133EBD11D
:10391000012302F8134002EB43021846517070BDB8
:1039200070BD00BF94AB0300C1030020064A0748E6
:10393000002350F8231042F823100133402BF8D114
:10394000034B9A60704700BF000000200000030096
:1039500000ED00E007B5052101A8FCF7D4FD9DF9B5
:1039600004305A1C04D1202209490A48FDF758F9AD
:103970001F2B86BF03F01F0307494FF0A041012210
:1039800002FA03F3C1F80C3503B05DF804FB00BF85
:1039900088A00300C3A0030000030050002343508D
:1039A00082B043580193019B02B07047074A282315
:1039B000584313180021597413581A6A586A1AB1D7
:1039C000800701D5D8691047704700BF0C18002048
:1039D000074A2823584313180021597313581A6AA9
:1039E000596A22B1C90702D50121D8691047704729
:1039F0000C180020084A2823584313180021D973B3
:103A0000597313581A6B596B22B1490702D5042117
:103A100099631047704700BF0C180020124B53F8F1
:103A20002020124B10B54FF4A671C2F8083304469B
:103A30001046FFF7B3FF4FF488711046FFF7AEFF53
:103A4000D2F8003223F02003C2F80032084B2821BC
:103A500001FB043401232374002384F82430102351
:103A6000C2F8043310BD00BF64AC030010000800AE
:103A70000C1800202DE9F347544F57F82060D6F872
:103A800010310446D3B14FF488713046FFF786FFFA
:103A900028254F4805FB04F142188146137C002B72
:103AA00046D00023137493734358DA6B196C2AB110
:103AB000C90503D54FF480715964904757F82450D5
:103AC000D5F84C31FBB1D5F81031E3B94FF4A671FC
:103AD0002846FFF763FF3E4828236343C118043399
:103AE0008A7C82F0010213440344086AC5F8343525
:103AF000421C4FF00103C5F8383504D08A69032A07
:103B00005BD901F047FBD5F8203173B14FF49071C8
:103B10002846FFF743FF002C52D12E4B01221A708A
:103B20002D4B4FF48012C3F8002102B0BDE8F0879E
:103B3000957C85F001039374D6F83C35002BBDD0FD
:103B400001EB05081D44033501F1180608F10308CF
:103B50000D44064480440544924614E001A9DAF875
:103B6000140000F01FFD80B118F8013F037001A997
:103B7000DAF8140000F040FD56E8002F013A46E85C
:103B80000023002BF8D1A845E8D1282303FB049992
:103B900099F81130002B91D1012389F811303CB9EB
:103BA0000E4A13700C4B4FF48012C3F8002185E7C6
:103BB000012C83D10A4B1C70F4E781F82430A2E772
:103BC000012CB2D1074B1C70AAE700BF64AC030004
:103BD0000C1800205E18002000E100E05C180020B6
:103BE0005D1800205F1800200120FFF743BF002070
:103BF000FFF740BF2DE9F041174B184F53F8204015
:103C0000DFF85C80C4F80883282545437E19043515
:103C1000706900F0A5FC2023B3614FF4A671204623
:103C2000FFF7BCFE4FF488712046FFF7B7FED4F8CB
:103C3000003243F02003C4F8003200233D44012247
:103C4000B374C4F834553374C4F8382586F8243076
:103C5000C4F80483BDE8F08164AC03000C180020B4
:103C60001000080008B5174B1A7832B10020187000
:103C7000154BDB7BF3B1FFF7BDFE144B1A781AB17D
:103C800000201870FFF792FE114B1A7842B1002203
:103C90001A700D4B93F8373001207BB1FFF7AAFE65
:103CA0000C4B1A786AB100221A700120BDE8084056
:103CB000FFF77CBE1846FFF78BFEDEE7FFF788FEB6
:103CC000EEE708BD5E1800200C1800205C180020EC
:103CD0005F1800205D1800202DE9F843044628B93C
:103CE0005749584840F24E22FCF79AFF41684D1C54
:103CF00010D01F2987BF01F01F03534A0B464FF016
:103D0000A0420120984003F5E073C2F808050320A3
:103D100042F82300A268501C0CD01F2A8BBF02F06F
:103D20001F03134648484FF0A04003F5E0730025F9
:103D300040F823502368454E56F82300C0F80C1570
:103D4000C0F81425227D012A15D1E268511C0CD03F
:103D50001F2A8BBF02F01F0111463B4D4FF0A045BB
:103D600001F5E071002745F821704FF0FF31C0F8F0
:103D70000815C0F81025364D2169282707FB035385
:103D80001A6A91424ED0187F01F0C8FC20B140F26F
:103D90007B222B492F48A7E7236807FB03531B6AA5
:103DA000013302D0206901F09FF92069431C33D010
:103DB000294901F025F9082806D1206901F094F974
:103DC0002549206901F01CF910B140F29222E0E788
:103DD0002368206956F823704FF0280808FB035227
:103DE00007F5887792F81C9001F0C6F9394602462B
:103DF000484601F05DFC10B14FF42672C9E7236814
:103E000008FB0353187F01F073FC10B140F29B22B2
:103E1000BFE7206901F09EF92368282202FB0355C1
:103E200023692B622368217D56F82320637D0B4391
:103E3000C2F86C35A369C2F82435BDE8F88300BF29
:103E400003AC03004AAC03000003005064AC030061
:103E50000C1800204EAC030000AC030070B5044603
:103E600028B94FF43F7219491948FCF7D9FE056883
:103E7000184E28226A43B118B258904202D190F8E5
:103E80002C3083B12046FFF727FF28236B432846B9
:103E9000F450002384F82C3094F82D304BB1BDE859
:103EA0007040FFF7BBBD90F82D200B7C4AB95BB189
:103EB0002846FFF79FFE084B53F8253001221A6071
:103EC00070BD0BB92846EAE770BD00BF03AC030024
:103ED0004AAC03000C18002064AC03002DE9F84F35
:103EE0000F469046044628B959495A4840F2433291
:103EF000FCF796FE584B594D1A78002A5ED00022E6
:103F00001A7001F073F808B901F038F8544E5549A9
:103F1000DFF888911420FFF73BF9E02386F814338B
:103F20004FF48013C6F88031212233604E490123BB
:103F3000484600F002FB0023C5F814902B604B4864
:103F400001F08AFB824620B14FF45972404948483B
:103F5000CEE7484B4849DFF848B14FF0FF39C5F884
:103F600020900220C3F80893FFF712F9042386F883
:103F700002A32122C6F8803140493360584601230C
:103F800000F0DBFAC5F828A0C5F83CB03C4801F0C9
:103F900063FB824610B140F27A32D7E7394BC5F85D
:103FA00048903949C3F808932820FFF7F1F84FF4F7
:103FB000807386F828A3C6F884317360414638467A
:103FC000FFF764FC28234343EA1820609668013613
:103FD000012E96601AD000236375237523622B4B44
:103FE0002B4AA2619C424FF0FF326760C4F8088000
:103FF000E26022614FF0010301D1264A136084F888
:104000002C302046BDE8F84FFFF728BF224A52F86F
:1040100020200821C2F800150C334FF0FF31C2F800
:104020000C151D44C2F814154FF08051C2F8241528
:104030001046C2F844554FF49071C2F84865FFF736
:10404000ADFC9660D2F81C31002BFBD0C3E700BF5B
:1040500003AC03004AAC0300C50300200C18002089
:1040600000E100E0653C0300A417002028180020B0
:104070004EAC030000200040EF3B0300D8170020A7
:104080005018002000800240E93B03006018002027
:1040900000502700CC18002064AC0300C817002093
:1040A000FC17002008B528B940F2FF3230493148EA
:1040B000FCF7B6FDB1F5166F35DBB1F5965F35DB74
:1040C000B1F5165F35DBB1F5615F34DBB1F5964FC5
:1040D00033DBB1F5E14F32DBB1F5164F31DBB1F532
:1040E000614F30DBB1F5963F30DBB1F5E13F30DBBE
:1040F000B1F5613F2FDB204B99422FDDB1F5E12F68
:104100002FDBB1F5612F2FDB1C4B9942D4BF4FF051
:1041100070614FF08051836999421EBF0123816114
:1041200080F82C3008BD4FF49E21F4E74FF41D2198
:10413000F1E71349EFE71349EDE71349EBE71349BB
:10414000E9E71349E7E74FF41D01E4E74FF46B019A
:10415000E1E71049DFE74FF0EB71DCE74FF06C71FE
:10416000D9E74FF08061D6E74FF0E861D3E700BFB1
:1041700003AC03004AAC03008FD003003F420F00A2
:1041800000B013000050270000F03A0000A04E00DD
:1041900000C0750000903A01F7B528B940F203520B
:1041A0001B491C48FCF73CFD0022046880F82D20C8
:1041B000194DFFF753FE282303FB04535E697289F0
:1041C000F38892B29BB29A42F9D001A9304600F02E
:1041D00023FA01A90746304600F049FA282303FBD9
:1041E0000453183353E8001F013143E80012002A3A
:1041F000F8D1282303FB045494F8243023B184F825
:104200002420206A00F0C6FF387803B0F0BD00BF5C
:1042100003AC03004AAC03000C18002038B50D466F
:1042200028B940F2345215491548FCF7F9FC0468E6
:10423000FFF714FE134B53F82420D2F81C31002B47
:10424000FBD010464FF48E71FFF7A8FB0E492823D0
:104250006343C8180C330B440124C2F8443505737A
:10426000C2F848454FF490711046FFF797FB4FF4A2
:104270008073C2F80433946038BD00BF03AC030000
:104280004AAC030064AC03000C18002010B528B938
:1042900040F25C520A490B48FCF7C2FC002280F84D
:1042A0002D200468FFF7DAFD074B282202FB0434B7
:1042B00063695889DB88C01A18BF012010BD00BF90
:1042C00003AC03004AAC03000C18002008B528B961
:1042D00040F279520B490C48FCF7A2FC02680B49EA
:1042E000282303FB02135B7BDBB243B9084B53F873
:1042F0002230D3F81C01003018BF012008BD002077
:1043000008BD00BF03AC03004AAC03000C1800203A
:1043100064AC03000E4B1A6942F010021A61F1EE10
:10432000102A22F09F02E1EE102AF1EE102A094A2B
:104330004021C2F884114FF080420121D16740BF73
:1043400020BF5A68044B134003B920BF704700BF19
:1043500000ED00E000E100E03FF0439E07480278F6
:1043600008B512B1064B01221A60FFF7D3FF03789C
:1043700013B1044B01221A6008BD00BFD018002001
:104380000490004000900040004870476CAC03006F
:1043900073B5214E214A3178214C51B1002313606D
:1043A00013680093009B4FF48033C4F8083302B0C5
:1043B00070BD1C4B01251D604FF48033C4F80833D9
:1043C000D4F8043523F00303C4F80435D4F81035C9
:1043D00023F00F0343F00403C4F81035D4F8083574
:1043E00043F00303C4F80835C4F84015116013689E
:1043F00001930D49019B0920FEF7CAFE0B4B402299
:1044000083F809234FF40072C3F880211A60084B27
:1044100025601D603570CAE7D0180020409100402B
:104420000090004004900040B109030000E100E06A
:1044300044900040024B01221A60D3F800057047F7
:104440004490004013B50446FCF7B0FC0A4AC2F899
:104450004045D2F8043313F4803308D107490B6088
:104460000B680193019B4FF48033C2F80433FCF7CF
:10447000B3FC02B010BD00BF00900040409100406E
:10448000024B4FF40072C3F80021704700E100E0D6
:10449000024B4FF48032C3F808237047009000406D
:1044A000044B00221A6082B01B680193019B02B08A
:1044B000704700BF40910040094B01221A604FF441
:1044C0008032C3F80423074B4FF40072C3F88020F6
:1044D000BFF34F8FBFF36F8F034B00221A707047EB
:1044E0000490004000E100E0D018002072B6054AB8
:1044F0001378191C18BF01210133017013700020BB
:10450000704700BFD1180020044B20B11A78013A3F
:104510001A7000207047187062B6FAE7D1180020B0
:1045200000B550E8003FA3EB010240E8002E9EF0EA
:10453000000FF6D110465DF804FB10B561B1B2FB77
:10454000F3F403FB1424A4B244B980E8120084609D
:104550008281C381204610BD0E2010BD092010BDF0
:1045600082B050E8022FC188B2EB324F4FF0000307
:1045700017BF92B241EA014142EA014104E04268B8
:10458000B2EB324F08BF012340E80212002AE8D103
:104590008DF807309DF80730002B0CBF112000204C
:1045A00002B0704737B550E8013F9DB2C489254439
:1045B0008489A54228BF2D1B0489A54202BFBFF3F1
:1045C0002F8F002207E0C5EA030540E80154002CC4
:1045D000E9D14FF001028DF803200193019B9DF872
:1045E00003200B6002F0FF0322B10B88006818441F
:1045F00003B030BD1846FBE70A884B889A4209D1C0
:1046000050E8012FC2EA024240E80123002BF7D113
:10461000012070470020704737B550E8023F1FFA6D
:10462000A3F5C488A54202BFBFF32F8F00220DE07F
:10463000C48925448489A54228BF2D1BC3EA0545AA
:1046400040E80254002CE8D14FF001028DF803201D
:104650000193019B9DF803200B6002F0FF0322B140
:104660004B880068184403B030BD1846FBE70A8841
:104670004B889A4209D150E8022FC2EA224240E810
:104680000223002BF7D10120704700207047000063
:1046900070B5064E0546002456F824300BB1284666
:1046A00098470134042CF7D170BD00BFE0180020FA
:1046B0000B4A0C4B5188142000FB0131CB6833B9F5
:1046C0000420496810700122074800F0ECBB052364
:1046D0000649137002238B80012200230968F3E747
:1046E000F818002010190020AC0D00204C190020F3
:1046F00007B5002305490093054A096805480823C2
:1047000000F09BFB03B05DF804FB00BF4C190020D8
:1047100080AC0300AC0D002007B5002300930146D8
:104720000823034A034800F088FB03B05DF804FB4C
:1047300078AC0300AC0D002013B500230C460093A9
:1047400001460423074A084800F077FB38B9074BB5
:10475000142202FB04340123237402B010BD0E2086
:10476000FBE700BF74AC0300AC0D00201019002063
:1047700037B50A480A4B42689C8819685388032554
:10478000033305709BB2002000909B0001EB840175
:10479000044800F052FB03B030BD00BFF818002001
:1047A0004C190020AC0D00204388033300EB830339
:1047B000994209D382884FF6FF739A4206D0008847
:1047C000B0FA80F04009704702207047012070471E
:1047D000144A142303FB002070B50B6844680D468F
:1047E00004F5805653B15C88033403EB8404A6427D
:1047F00002D9236801330BD1002070BD0834F6E7DD
:104800002C60012070BD6388033304EB8304EEE762
:1048100031462046FFF7C8FF0128F4D0F0D3022824
:10482000EAD0E4E710190020436873B505460C464A
:104830006BB3254AD1688B4229D31269934226D89B
:1048400013F0030223D121490089098988421ED12E
:104850002868996888421AD11D494868834203D95B
:1048600000F5805083420ED38A6993420DD902F538
:104870008052934209D2012323800020B0FA80F0B5
:10488000400902B070BD1346F6E70A20F6E70023A0
:1048900023801E462388012B01D90020F1E70196D1
:1048A00001A92088FFF794FF18B9238801332380DA
:1048B000F0E7019B2A6899689142F1D16B60034B44
:1048C0001B892B81DDE700BFAC0D0020F81800200C
:1048D000101900202DE9F8431C461E4B1B78064694
:1048E0000F4615467BB38AB384B3DFF870804FF070
:1048F0001409A388012B02D90A20BDE8F88309FB1B
:1049000003F318F803302BB92146A088FFF760FFA6
:1049100020B92060A3880133A380EAE723681EB191
:10492000998832889142EFD147B99A6885E80C009E
:10493000094B1B892B810020BDE8F88319883A8830
:104940009142E1D1F1E70220BDE8F8830520BDE8FE
:10495000F88300BFF0180020F8180020101900207C
:1049600008B5074B191D5888FFF732FF18B1BDE88D
:104970000840FFF7FDBEBDE80840FFF799BE00BF45
:10498000F81800202DE9F04FA04FDFF8A49289B06D
:104990000646B8463B6823B949469D48FFF73CFEAA
:1049A0003860D8F800502A78531E052B00F2EA81AF
:1049B000DFE813F0060070007000020102015A01E6
:1049C00026B1944B00225A60012425E02B79032B59
:1049D0001ED8DFE803F016023C478F490B78022B04
:1049E000084632D00B7D022B4FF0010340F00E82BF
:1049F00014225343C2180020C8545068FFF78CFE9D
:104A000003E001232B71FFF773FE002800F0CE8036
:104A1000804B00225A600E241422002103A801F0CA
:104A20008DFC41F61D539C4208BF0024D8F800308D
:104A300004941A78023A042A00F2C381DFE812F0E3
:104A4000A401B001D301DB01E2010023D0E77349E7
:104A50007348002302222B718A800122096800F02A
:104A600022FAD2E76D4C00262E7120686A4DFFF7BE
:104A700053FE6C4BD4F800E05A8814235343EA18D1
:104A8000EE5451682160A188C2F804E0118102222D
:104A9000A280BAE7B5F814A0DFF87CB1B6B1AA7D60
:104AA000EB88022A06D9142101FB0AB1DA1C088915
:104AB00002440A81142202FB0ABAC3F57F43BAF802
:104AC0000A20FD331344AAF80A307DE7142303FBC0
:104AD0000AB319895C68AB7D04EB8104062B05D809
:104AE000DFE803F0274D35431C5967000F24AA7DEA
:104AF000EB88022A06D9142101FB0AB1DA1C0889C5
:104B000002440A81142202FB0ABAC3F57F43BAF8B1
:104B10000A20FD331344AAF80A307DE7424843498E
:104B200000234360AB690360FFF77EFE002800F0BE
:104B300027810223AB75002300930423EA18214642
:104B4000374800F07AF9002830D00E24CFE72B69DF
:104B5000002B14BF03230123AB750023009305F141
:104B60000C02042304F10801EAE70123AB750022DB
:104B7000EB8800929B002A6904F10C01E0E7032A0C
:104B80000CBF05230623AB7500230093042305F116
:104B90000802E118D4E70623AB75244B1988224B91
:104BA0005868FFF7C9FD04460028A0D109B0BDE848
:104BB000F08F41F61D549AE7002E7FF405AF2B7954
:104BC000012B37D005D3022B41F61D5418BF0F24FB
:104BD00022E702232B71039604960596EB68039354
:104BE0000DF10A0103A8FFF71FFE002800F0C8809E
:104BF0000498BDF80A108388EB8003882B81FFF7A7
:104C00009BFD0446002C7FF407AFCFE70C19002072
:104C100038190020F0180020101900204C1900202D
:104C2000AC0D0020F8180020D418002054190020E2
:104C300008190020DFF8F8A103AA53463146A81D41
:104C4000FFF748FE044650B9BAF804100498FFF77D
:104C500073FD04460A2CD5D141F61D54DCE6CAF892
:104C60000060CAF80460F5E7002E7FF4ADAE6A4B31
:104C70001A7B5AB11E731A78013A062A00F2828012
:104C8000DFE802F0495E6669806C77001A78072ACF
:104C9000F1D801A151F822F0B94C0300774C030080
:104CA000774C0300DF4C0300F34C0300134D03006B
:104CB000134D0300DB4C03001A89584901321A8155
:104CC00000225A801A730A78B2FA82F252099A7252
:104CD0000A7DB2FA82F25209DA72012207E05049E3
:104CE00058688A884088033202448A8002221A70F7
:104CF000C1E74A4C5A884A49142505FB0242086814
:104D0000546850608888108102228A800C600622D4
:104D1000EDE70722EBE79A7A32B1404900229A7216
:104D2000CA680AB9097C51B9DA7A62B10022DA722A
:104D30003A4A116A39B992F8242022B101225A80E4
:104D4000FFF70EFE5DE700221A705A805A6083E773
:104D5000FFF70EFD55E7FFF7ABFC52E706221A708E
:104D60002E4A5B88142101FB03235868FFF7D4FC0B
:104D700047E707221A7000225A60FFF7B9FC40E7A4
:104D80000A2449E60F2447E601228DF80C201A89EF
:104D9000ADF818209A88ADF81A20DB68059310E06A
:104DA00002228DF80C201A89ADF818209A88ADF8E7
:104DB0001A20DA6805929B7D9A1F534253418DF861
:104DC0001C3003A8FFF764FC002649461548C8F8C4
:104DD0000060FFF74CFC01211348FFF7A1FB0028FE
:104DE0007FF4D8ADE2E603228DF80C20DA88ADF826
:104DF00018201A89CFE704228DF80C20DB88ADF843
:104E00001830DEE705238DF80C30DAE7074A137017
:104E10000023536020E700BFF8180020101900207D
:104E20004C1900203819002048190020F0180020E3
:104E3000581900204068FFF7A5BD2DE9F043DDF8C3
:104E40001C809646F0B1EAB1D0F800C0BCF1000F6A
:104E50001BD0EBB14768D7F80490B3FBF9F709FB17
:104E60001737AFB942EA010E1EF0030F07D1C7682A
:104E7000B94204D34C1E05691C44AC420BD9102026
:104E8000BDE8F0830E20BDE8F0830820BDE8F08384
:104E90000920BDE8F083CDF81C80DCF80C40A44666
:104EA000BDE8F0436047F0B5B8B1D0F800E0BEF11E
:104EB000000F14D0AAB14768D7F800C00CF1FF3733
:104EC0000F4208D1C768B94205D34C1E05690CFBD7
:104ED0000244AC4207D91020F0BD0E20F0BD0820DE
:104EE000F0BD0920F0BDDEF81040A446BDE8F0405A
:104EF0006047FBF75BBFFBF76FBF00F1804000F539
:104F0000C040002382B0036003680193019B02B09C
:104F10007047000003681F2B83BF03F01F0303606B
:104F200001484FF0A04070470003005007B502ABA6
:104F300043F8040D1846FFF7EDFF019B00EB8300DB
:104F4000D0F8003723F44033C0F80037D0F80037EA
:104F500043EA0141C0F8001703B05DF804FB00000C
:104F6000054B4FF0FF32072843F8202084BF1B1861
:104F700083F84C20704700BF60190020174991F852
:104F80005B3010B543BBFF20CA180133302B82F8C9
:104F90002400F9D10024E0B20134FFF7E1FF092C2D
:104FA000F9D10F4B0022C1F855209A800D4BE0201B
:104FB00083F806034020C3F8800118604FF4BE70E8
:104FC000FFF79BFF084B4FF00040C3F80403012399
:104FD00081F85B30104610BD082010BD601900201C
:104FE000B519002000E100E000600040034B93F899
:104FF0005B00003018BF0120704700BF601900201F
:1050000030B5374C2318024693F92400013085B09F
:1050100064D18878002852D0002354F823500135F9
:105020004FEA830045D1A51800F1804000F5C0404B
:1050300085F82430002544F82350D0F810550B781B
:105040004C7825F499151B04240525F4F85504F42F
:10505000801403F44033C0F8105523431402D0F8F1
:10506000105504F47C5423432B43C0F81035497881
:10507000012928D104A840F80C2DFFF74BFF019B14
:105080009940C0F8081504A840F8042DFFF742FF26
:10509000039B03F5E073032140F82310D308114963
:1050A00002F0070001228240C85C0243CA5400207B
:1050B00003E00133082BB0D1042005B030BDFE2041
:1050C00083F82400D3E704A840F8082DFFF722FF57
:1050D000029901238B40C0F80C35D4E70820ECE797
:1050E00060190020B519002037B517490D1804467E
:1050F00095F82400072809D8FFF732FF95F92430E6
:10510000124A03F5A273002042F823000B19FF2274
:105110000F4D83F82420E10804F0070301229A4090
:105120006B5C13420ED002A840F8044DFFF7F2FE6C
:10513000019B03F5E073022440F823406B5C23EAF3
:1051400002026A5403B030BD6019002000600040C4
:10515000B5190020074B184490F924309B0003F147
:10516000804303F5C043D3F8102542F00302C3F88F
:105170001025704760190020054B184490F9240051
:105180008000C0B200F1804000F5C040704700BF11
:1051900060190020064B1844012290F9243018337E
:1051A0009B00DBB203F1804303F5C0431A607047F4
:1051B00060190020F7B53C4C2318064693F92430BB
:1051C000002B6FDA8878C0F3400000280BBF08235B
:1051D000002309250825AB4202D1042003B0F0BD0D
:1051E00054F82370013745D1A7195DB287F82450D0
:1051F00044F8232010B9234483F84C608B785A0775
:1052000018D4D80738D502A840F8086DFFF782FEF9
:10521000009B00EB8300D0F8003723F00203C0F8B6
:1052200000372248F20806F007070123BB40875CDD
:105230003B43835488780A7810F0020029D0AB00F1
:1052400003F1804303F5C0433602D3F8101521F46F
:105250004F3121F44071C3F810151204D3F8101522
:1052600006F47C5602F4403216430E43C3F8106530
:105270000020B3E70133AEE702A84A7840F8046D96
:10528000FFF748FE019B03F5E073920040F82320EE
:10529000C7E7083D2C4494F8546046EA821284F82B
:1052A00054209BE7082099E760190020B5190020D9
:1052B00073B5224C2518064695F92420072A1ADDD5
:1052C000224492F84C309B09032B10D102A840F8DD
:1052D000046DFFF71FFE019AD0F81035D340DB07AD
:1052E00007D402213046FFF721FE02B070BD012B2A
:1052F000F7D00321F6E7D3B2072BF6D8930003F1DA
:10530000804303F5C043D3F8100540F00100C3F813
:10531000100502F14000800080B2FFF7EEFD002989
:10532000E3D095F9243054F82330002BDDD001234D
:1053300003FA02F2024BC3F80423D6E760190020F7
:10534000006000400E4B034493F92420072A02DD3D
:105350000021FFF7EBBDD3B2072B10D8930003F168
:10536000804303F5C043D3F8101521F00101C3F8C1
:105370001015012303FA02F2024BC3F80823704709
:105380006019002000600040F7B50446FFF7DAFF1F
:105390001749184E0B19E50893F92430DAB2072A99
:1053A0009FBF03F5A273144A002042F8230004F0C3
:1053B000070301229A40735D13420ED002A8022710
:1053C00040F8044DFFF7A6FD019B03F5E07340F89C
:1053D0002370735D23EA02027255214491F8240080
:1053E000FFF7BEFDFF2381F8243003B0F0BD00BFFE
:1053F00060190020B5190020006000402DE9F04739
:1054000088B00024614A624E624D029403940121E7
:10541000A2F5C04052F8043B012B80B206D1D6F869
:1054200004330B4202D0FFF768FD0C43AA424FEA57
:105430004101EDD1584B1B68012B0ED14FF4BE70CA
:10544000FFF75BFD4FF0A04344F00044D3F8103564
:105450000293524BD3F81035039314F0FF0F30D161
:10546000002C80F2888004AD002304936B604C4EC6
:10547000DFF828814FF0FF3306930793012796F951
:105480005420531C77D0D2B222F0C00408ABE008FD
:1054900003EB000A02F007011AF8083C07FA01F1D1
:1054A0000B4268D03319920993F9243056F82390AF
:1054B000B9F1000F21D1032A5DD12B5C0B432B5492
:1054C0001DE0374F01260025344210D0AB0003F118
:1054D000804303F5C043D3F81005D3F8101557F8EF
:1054E000253023B1C1F30141C0F3052098470135B0
:1054F000082D4FEA4606E7D1B2E7032ADDD008A817
:1055000040F81C4DFFF706FD019B03F5E07350F8D2
:1055100023301AF8180C0842C3F3014305D0022BBC
:1055200029D1032A1CD1114604E0032B23D1032ADD
:1055300016D102212046FFF7F9FCB9F1000F1DD169
:105540004FF0A0430299D3F81025D8F810359142B6
:1055500017D002920393049A059B069207938EE755
:10556000B9F1000F07D04FF0000A11462046C84796
:10557000BAF1000FE4D108B0BDE8F0874FF0010A9E
:10558000F3E703999942F6D0E3E700BF00610040DA
:1055900000600040206100407C610040000300503A
:1055A0006019002000F180431A68002A1BBF002206
:1055B000012000201A6070474FF0804310B5D3F8E7
:1055C0000443620707D54FF48470FFF7EBFF10B177
:1055D0001E4B1B689847A30608D54FF48A70FFF747
:1055E000E1FF18B11A4B00201B689847600608D5E8
:1055F0004FF48C70FFF7D6FF18B1154B01201B68D4
:105600009847210608D54FF48E70FFF7CBFF18B1ED
:10561000104B00201B689847E20508D54FF49070A6
:10562000FFF7C0FF18B10B4B01201B689847A3057B
:105630000AD54FF49270FFF7B5FF28B1054B022051
:105640001B68BDE81040184710BD00BFBC19002002
:10565000C0190020C41900202DE9F84F124D134F36
:1056600080464FF0000A04264FF001095FFA8AFBDA
:10567000002009FA0BF4FFF73CFC2C4208D03B68F1
:1056800014EA030201BF23433B6088F800B01646CA
:105690000020FFF730FC1EB1A5430AF1010AE5D155
:1056A0003046BDE8F88F00BFFFFF0F00C81900208B
:1056B00010B5A1B19AB101238340C3F3130484B19F
:1056C0000A4C246823420ED0C00000F1804000F54F
:1056D000F830C0F81015C0F81425002010BD0E20B9
:1056E00010BD072010BD082010BD00BFC819002044
:1056F000012303FA00F0C0F313031BB1054B1B6831
:10570000184204D0044BC3F8040500207047082059
:10571000704700BFC819002000F00140012303FAC0
:1057200000F0C0F313031BB1054B1B68184204D0F3
:10573000044BC3F80805002070470820704700BFDD
:10574000C819002000F001400048704788AC0300F1
:10575000FDF76CBEFDF7B6BE014BD3F804057047EC
:10576000001001404FF400320121FDF7C7BE0000D8
:1057700008B5FBF71BFB064B01221A70054B4FF4D3
:105780000032C3F80021BDE80840FBF725BB00BF8D
:105790009916002000E100E0024B4FF40032C3F8FC
:1057A0000823704700100140044B00221A6082B0A9
:1057B0001B680193019B02B0704700BF4411014078
:1057C00010B502FB01F1FBF723FA0446D8B150F8FB
:1057D000042C22F00302043A242A18D8132A14D9DC
:1057E00000231B2A0360436016D9242A8360C36008
:1057F00011BF00F110020361436100F118020023A0
:10580000136053609360204610BD0246F7E7002105
:1058100000F094FD204610BD00F10802EFE700BF44
:10582000014B1868704700BFC8030020F8B5244F2B
:105830000C460646FBF732FDBB685D68C4F57E6129
:105840000F3125F00305294421F47F6121F00F0178
:10585000A1F58054B4F5805F07DB0021304600F0ED
:1058600061FFBB682B44984204D03046FBF71AFD19
:105870000020F8BD6142304600F054FF01300DD0E9
:10588000104BBA6819682D1B45F001053046091BFD
:1058900055601960FBF706FD0120F8BD0021304678
:1058A00000F040FFBA68831A0F2BDEDD064C054975
:1058B000246843F00103001B53600860D5E700BF74
:1058C00064090020CC1900206C0D0020002944D070
:1058D0002DE9F0410D468046FBF7E0FC55F8047CCD
:1058E000694927F00103A5F10804E2188E685068A1
:1058F000B24220F003005ED0FE0750600BD455F892
:10590000087CE41B01F1080EA56875453B446DD089
:10591000E768EF60BD6015186D68ED073ED543F090
:1059200001026260E350B3F5007F17D2DB08581C18
:105930009A104D6851F83070A7600123934001EB35
:10594000C0022B43083AE2604B6041F83040FC60F3
:105950004046BDE8F041FBF7A5BC70475A0A042A4F
:1059600052D89A0902F13907FF0002F13805C81927
:10597000CA59083890424FD0516821F003018B4238
:1059800032D292689042F7D1C368A060E3609C6015
:10599000C4604046BDE8F041FBF784BC95683B4FCE
:1059A000BD42034440D0D068E86043F00102856006
:1059B0006260E350B7E7FF07034407D455F8082CAB
:1059C000A41A1344A068E268C2609060304A12686A
:1059D00043F00100934260608C60B9D32D4B404688
:1059E0001968FFF723FFB3E71046CDE711184968A0
:1059F000C90744D49168D268CA60034443F00100E7
:105A000091606060E350A3E7142A16D802F15C07A6
:105A1000FF0002F15B05AAE7AA1001234D6893403D
:105A20002B434B600346B0E743F001024C610C612D
:105A3000E560A5606260E3508AE7542A06D81A0B35
:105A400002F16F07FF0002F16E0590E7B2F5AA7F41
:105A500006D8DA0B02F17807FF0002F1770586E736
:105A600040F25450824206D89A0C02F17D07FF00A2
